{
  "transactions": [
    {
      "hash": "0x18a3ce5bc3991c47d305cde26f1d0630130e0959d894d9c569d018451dc2e16a",
      "transactionType": "CREATE",
      "contractName": "RemoteHopV2Tempo",
      "contractAddress": "0x9421489b1618f9c2598ecc8e09a95d32e0b3ff67",
      "function": null,
      "arguments": [
        "0x20Bb7C2E2f4e5ca2B4c57060d1aE2615245dCc9C"
      ],
      "transaction": {
        "from": "0x54f9b12743a7deec0ea48721683cbebedc6e17bc",
        "gas": "0x1060218",
        "value": "0x0",
        "input": "0x60a08060405234620000f757620000326020916200406a8038038091620000278285620000fb565b833981019062000133565b6200003c62000154565b6200004662000154565b604051631c2eb17b60e31b81526001600160a01b039290918290600490829086165afa908115620000ec575f91620000b6575b50166080526200008862000154565b604051613e769081620001f4823960805181818161179f01528181612b23015281816133a301526139060152f35b620000dd915060203d602011620000e4575b620000d48183620000fb565b81019062000133565b5f62000079565b503d620000c8565b6040513d5f823e3d90fd5b5f80fd5b601f909101601f19168101906001600160401b038211908210176200011f57604052565b634e487b7160e01b5f52604160045260245ffd5b90816020910312620000f757516001600160a01b0381168103620000f75790565b7ff0c57e16840df040f15088dc2f81fe391c3923bec73e23a9662efc9c229c6a00805460ff8160401c16620001e1576001600160401b036002600160401b031982821601620001a257505050565b6001600160401b031990911681179091556040519081527fc7f505b2f371ae2175ee4913f4499e1f2633a7b5936321eed1cdaeb6115181d290602090a1565b60405163f92ee8a960e01b8152600490fdfe6080604052600436101561001a575b3615610018575f80fd5b005b5f3560e01c806301ffc9a7146102b9578063104db380146102b457806321ad0b45146102af578063248a9ca3146102aa57806324df604b146102a55780632d2c5565146102a05780632f2ff15d1461029b57806332fb38d91461029657806336568abe146102915780633e832c901461028c5780634198dcf4146102875780635135db461461028257806359c7c5161461027d5780635c975abb146102785780635e280f1114610273578063630dc7cb1461026e57806367fb473814610269578063686dc57c14610264578063726075371461025f5780638153924b1461025a5780638692040c146102555780638f6b3311146102505780639010d07c1461024b57806391d1485414610246578063992c135814610241578063a0161f361461023c578063a217fddf14610237578063a3246ad314610232578063aa662ee31461022d578063b037875014610228578063b218b19814610223578063b8948dfd1461021e578063bcde532714610219578063ca15c87314610214578063d01dbc621461020f578063d0a102601461020a578063d547741f14610205578063df1cf4a114610200578063e1758bd8146101fb578063e6b215da146101f6578063fb478f3b146101f15763fc5f35650361000e5761184f565b6117f9565b6117ce565b61178a565b6116a2565b61163f565b6115d8565b611578565b611542565b611511565b6114c9565b611490565b611445565b6113ff565b61137f565b611321565b6112f6565b611275565b611223565b6111d2565b611157565b611130565b611065565b610fdf565b610f0e565b610ece565b610e87565b610e53565b610e22565b610ded565b610cad565b610a84565b610664565b610619565b61051b565b610489565b610431565b6103f5565b6103bc565b61038c565b610337565b346103295760203660031901126103295760043563ffffffff60e01b811680910361032957602090635a05180f60e01b81149081156102fe575b506040519015158152f35b637965db0b60e01b811491508115610318575b505f6102f3565b6301ffc9a760e01b1490505f610311565b5f80fd5b5f91031261032957565b34610329575f366003190112610329577f6f2b5e4a4e4e1ee6e84aeabd150e6bcb39c4b05494d47809c3cd3d998f859108546040516001600160a01b039091168152602090f35b63ffffffff81160361032957565b346103295760203660031901126103295760206103b36004356103ae8161037e565b61188a565b54604051908152f35b34610329576020366003190112610329576004355f525f80516020613df68339815191526020526020600160405f200154604051908152f35b34610329575f3660031901126103295760207f6f2b5e4a4e4e1ee6e84aeabd150e6bcb39c4b05494d47809c3cd3d998f85910554604051908152f35b34610329575f366003190112610329577f6f2b5e4a4e4e1ee6e84aeabd150e6bcb39c4b05494d47809c3cd3d998f859109546040516001600160a01b039091168152602090f35b6001600160a01b0381160361032957565b34610329576040366003190112610329576004356024356104a981610478565b815f525f80516020613df68339815191526020526104cd600160405f20015461247d565b6104d78183612e3b565b6104dd57005b5f9182525f80516020613db68339815191526020526040909120610018916001600160a01b031690613aa4565b6001600160401b0381160361032957565b346103295760803660031901126103295760043561053881610478565b6024356105448161037e565b604435916105518361050a565b7f0c64ebde8e3c30fe6dade45724a834e5d6c5c30f207a57bcd56cbc26361c2b55602063ffffffff6001600160401b036064359661058d612427565b604080516001600160a01b03881686820190815263ffffffff8a1660208201526001600160401b03841692810192909252606082018a90526105dc81608084015b03601f19810183528261098b565b5190205f9081525f80516020613e368339815191528552604090819020805460ff19166001179055516001600160a01b03909616865216941692a4005b346103295760403660031901126103295760243561063681610478565b336001600160a01b0382160361065257610018906004356124cb565b60405163334bd91960e11b8152600490fd5b6080366003190112610329576004803561067d81610478565b6024359061068a8261037e565b6044359260409081519161069d83610955565b5f8352346108e0575f80516020613e568339815191529283549060ff8260c01c166108d1576106dc6106d86106d1886118bd565b5460ff1690565b1590565b6108c25763ffffffff90610700826106f26109ac565b9416849063ffffffff169052565b602090610715898386019063ffffffff169052565b5f8585015233606085015289608085015260a084015261073760643588611fd5565b94856107b8575b5050906107a293929161076f6107665f80516020613e16833981519152975463ffffffff1690565b63ffffffff1690565b97169687036107a7576107839083876128b1565b516001600160a01b039094168452602084015233929081906040820190565b0390a4005b6107b2908387612683565b50610783565b8451637e062a3560e11b81529195949392916001600160a01b0390878184818d86165afa801561088c5761082393899389935f93610891575b5088516323b872dd60e01b81523392810192835230602084015260408301949094529294859384925f92849160600190565b0393165af1801561088c575f80516020613e16833981519152976107a29761076f936107669361085e575b505097505081929394955061073e565b8161087d92903d10610885575b610875818361098b565b810190611915565b505f8061084e565b503d61086b565b61190a565b5f9193506108b490863d88116108bb575b6108ac818361098b565b8101906118f5565b92906107f1565b503d6108a2565b505051633a09f24360e11b8152fd5b50505163819f993960e01b8152fd5b51638036d4a360e01b815234918101918252915081906020010390fd5b6001600160801b0381160361032957565b634e487b7160e01b5f52604160045260245ffd5b60c081019081106001600160401b0382111761093d57604052565b61090e565b6001600160401b03811161093d57604052565b602081019081106001600160401b0382111761093d57604052565b604081019081106001600160401b0382111761093d57604052565b90601f801991011681019081106001600160401b0382111761093d57604052565b604051906109b982610922565b565b6001600160401b03811161093d57601f01601f191660200190565b9291926109e2826109bb565b916109f0604051938461098b565b829481845281830111610329578281602093845f960137010152565b9080601f8301121561032957816020610a27933591016109d6565b90565b9060c060031983011261032957600435610a4381610478565b91602435610a508161037e565b916044359160643591608435610a65816108fd565b9160a435906001600160401b03821161032957610a2791600401610a0c565b610a8d36610a2a565b9194929434610c95575f80516020613e568339815191529283549160ff8360c01c16610c8357610ac26106d86106d1886118bd565b610c7157610b299063ffffffff92610aea84610adc6109ac565b9616869063ffffffff169052565b610b12602096610b028b8989019063ffffffff169052565b6001600160801b03166040870152565b33606086015289608086015260a085015286611fd5565b9283610b9e575b50906107a29291610b566107665f80516020613e16833981519152965463ffffffff1690565b9616958603610b8d57610b6a9082866128b1565b604080516001600160a01b03909516855260208501919091523393918291820190565b610b98908286612683565b50610b6a565b604051637e062a3560e11b815290939291906001600160a01b039085816004818b86165afa91821561088c575f9287928491610c54575b506040516323b872dd60e01b815233600482015230602482015260448101889052938492606492849291165af1801561088c575f80516020613e16833981519152966107a296610b569361076693610c36575b505096505050909192610b30565b81610c4c92903d1061088557610875818361098b565b505f80610c28565b610c6b9150833d85116108bb576108ac818361098b565b5f610bd5565b604051633a09f24360e11b8152600490fd5b60405163819f993960e01b8152600490fd5b604051638036d4a360e01b8152346004820152602490fd5b3461032957604036600319011261032957600435610cca8161037e565b6001600160401b0360243581811161032957610ced610d29913690600401610a0c565b92610cf6612427565b63ffffffff165f527f6f2b5e4a4e4e1ee6e84aeabd150e6bcb39c4b05494d47809c3cd3d998f85910660205260405f2090565b90825190811161093d57610d4781610d41845461192a565b8461197f565b602080601f8311600114610d8757508190610d7893945f92610d7c575b50508160011b915f199060031b1c19161790565b9055005b015190505f80610d64565b90601f19831694610d9b855f5260205f2090565b925f905b878210610dd5575050836001959610610dbd575b505050811b019055005b01515f1960f88460031b161c191690555f8080610db3565b80600185968294968601518155019501930190610d9f565b3461032957602036600319011261032957602060ff610e16600435610e1181610478565b6118bd565b54166040519015158152f35b34610329575f36600319011261032957602060ff5f80516020613e568339815191525460c01c166040519015158152f35b34610329575f366003190112610329575f80516020613e5683398151915254604051602091821c6001600160a01b03168152f35b34610329575f366003190112610329577f6f2b5e4a4e4e1ee6e84aeabd150e6bcb39c4b05494d47809c3cd3d998f859107546040516001600160a01b039091168152602090f35b3461032957602036600319011261032957610ee7612427565b6004357f6f2b5e4a4e4e1ee6e84aeabd150e6bcb39c4b05494d47809c3cd3d998f85910555005b34610329575f36600319011261032957335f9081527fb7db2dd08fcb62d0c9e08c51941cae53c267786a0b75803fb7960902fc8ef97d602052604090205460ff165f80516020613df68339815191528115610f9d575b5015610f8b575f80516020613e56833981519152805460ff60c01b1916600160c01b179055005b60405163ea8e4eb560e01b8152600490fd5b7f65d7a28e3265b37a6474929f336521b332c1681b933f6cb9f3376673440d862a5f908152602091825260408082203383529092522060ff915054165f610f64565b34610329575f36600319011261032957602063ffffffff5f80516020613e568339815191525416604051908152f35b5f5b83811061101f5750505f910152565b8181015183820152602001611010565b906020916110488151809281855285808601910161100e565b601f01601f1916010190565b906020610a2792818152019061102f565b346103295760208060031936011261032957611086600435610cf68161037e565b90604051905f9280546110988161192a565b8085529160019180831690811561110e57506001146110d2575b6110ce856110c28189038261098b565b60405191829182611054565b0390f35b5f908152838120939550925b8284106110fb57505050816110ce936110c292820101935f6110b2565b80548585018701529285019281016110de565b60ff191686860152505050151560051b82010191506110c2816110ce5f6110b2565b3461032957602061114f61114336610a2a565b949390939291926129ba565b604051908152f35b346103295760603660031901126103295760043561117481610478565b6044356001600160401b038111610329575f9161119683923690600401610a0c565b9061119f612427565b60208251920190602435905af13d156111cd576111c66111be3d6109bb565b60405161098b565b1561032957005b6111c6565b34610329576040366003190112610329576004355f525f80516020613db6833981519152602052602061120a60243560405f20613817565b905460405160039290921b1c6001600160a01b03168152f35b3461032957604036600319011261032957602060ff610e1660243561124781610478565b6004355f525f80516020613df6833981519152845260405f209060018060a01b03165f5260205260405f2090565b346103295760e03660031901126103295760043561129281610478565b6024359061129f8261037e565b608435906112ac826108fd565b60a4356001600160401b0381116103295760209361114f936112d56112f0933690600401610a0c565b9160c435946112e386610478565b60643591604435916129ba565b90612ae3565b3461032957604036600319011261032957602061114f60043561131881610478565b60243590612ae3565b34610329575f3660031901126103295760206040515f8152f35b60209060206040818301928281528551809452019301915f5b828110611362575050505090565b83516001600160a01b031685529381019392810192600101611354565b3461032957602080600319360112610329576004355f525f80516020613db683398151915260205260405f20906040519081602084549182815201935f5260205f20915f905b8282106113e8576110ce856113dc8189038261098b565b6040519182918261133b565b8354865294850194600193840193909101906113c5565b346103295760403660031901126103295760043561141c8161037e565b61144260243561142b81610478565b611433612427565b6001600160a01b03169161188a565b55005b34610329576020366003190112610329576100186004356114658161037e565b61146d612427565b63ffffffff5f80516020613dd6833981519152911663ffffffff19825416179055565b34610329575f36600319011261032957602063ffffffff5f80516020613dd68339815191525416604051908152f35b8015150361032957565b34610329576040366003190112610329576004356114e681610478565b6114fe602435916114f6836114bf565b610e11612427565b9060ff8019835416911515161790555f80f35b346103295760403660031901126103295760043561152e8161037e565b611536612427565b6114426024359161188a565b34610329576020366003190112610329576004355f525f80516020613db6833981519152602052602060405f2054604051908152f35b34610329575f36600319011261032957611590612427565b5f80516020613e56833981519152805460ff60c01b19169055005b9181601f84011215610329578235916001600160401b038311610329576020838186019501011161032957565b60a0366003190112610329576004356115f081610478565b6001600160401b0390604435828111610329576116119036906004016115ab565b9161161d606435610478565b608435938411610329576116386100189436906004016115ab565b5050611ac6565b346103295760403660031901126103295761001860243560043561166282610478565b805f525f80516020613df6833981519152602052611686600160405f20015461247d565b6124cb565b6001600160401b03811161093d5760051b60200190565b3461032957610100366003190112610329576004356116c08161037e565b602435906116cd82610478565b6064356116d98161037e565b6084356116e581610478565b60a435906116f282610478565b60c435926116ff84610478565b60e435946001600160401b03861161032957366023870112156103295785600401359661172b8861168b565b96611739604051988961098b565b888852602098602460208a019160051b8301019136831161032957602401905b82821061177157505050610018975060443591611c47565b8a8091833561177f81610478565b815201910190611759565b34610329575f366003190112610329576040517f00000000000000000000000000000000000000000000000000000000000000006001600160a01b03168152602090f35b3461032957604036600319011261032957602061114f6004356117f081610478565b60243590611fd5565b34610329576060366003190112610329576004356118168161037e565b60243590611823826108fd565b604435906001600160401b0382116103295760209261184961114f933690600401610a0c565b91612121565b34610329576020366003190112610329576004355f525f80516020613e36833981519152602052602060ff60405f2054166040519015158152f35b63ffffffff165f527f6f2b5e4a4e4e1ee6e84aeabd150e6bcb39c4b05494d47809c3cd3d998f85910360205260405f2090565b6001600160a01b03165f9081527f6f2b5e4a4e4e1ee6e84aeabd150e6bcb39c4b05494d47809c3cd3d998f8591016020526040902090565b908160209103126103295751610a2781610478565b6040513d5f823e3d90fd5b908160209103126103295751610a27816114bf565b90600182811c92168015611958575b602083101461194457565b634e487b7160e01b5f52602260045260245ffd5b91607f1691611939565b9161197b9183549060031b91821b915f19901b19161790565b9055565b601f821161198c57505050565b5f5260205f20906020601f840160051c830193106119c4575b601f0160051c01905b8181106119b9575050565b5f81556001016119ae565b90915081906119a5565b9060405191825f82546119e08161192a565b908184526020946001916001811690815f14611a4c5750600114611a0e575b5050506109b99250038361098b565b5f90815285812095935091905b818310611a345750506109b993508201015f80806119ff565b85548884018501529485019487945091830191611a1b565b925050506109b994925060ff191682840152151560051b8201015f80806119ff565b51906109b98261037e565b51906109b9826108fd565b81601f82011215610329578051611a9a816109bb565b92611aa8604051948561098b565b8184526020828401011161032957610a27916020808501910161100e565b9190611ad3828285612baa565b919091611c4157611aef611ae8848084612d16565b36916109d6565b8051602090820192818385031261032957818301516001600160401b039384821161032957019260c08486031261032957604051611b2c81610922565b83850151611b398161037e565b8152611b4760408601611a6e565b84820152611b5760608601611a79565b604082015260808501516060820190815260a0860151936080830194855260c0870151938411610329577f64d59d716368c2b909911c53eebae8d17837b738d80a98c64c9753528257023b99611bc0611bed9888611be097611bed9a611bf99d01920101611a84565b60a0850152611bcf8183612d33565b9915611c17575b50505086896128b1565b516001600160a01b031690565b6001600160a01b031690565b604080516001600160a01b03959095168552602085019290925292a2565b81611c32611c2883611c3795612d42565b63ffffffff168652565b612d54565b90525f8080611bd6565b50505050565b969492909593917ff0c57e16840df040f15088dc2f81fe391c3923bec73e23a9662efc9c229c6a009687549860ff8a60401c1615996001600160401b03811680159081611d82575b6001149081611d78575b159081611d6f575b50611d5d5767ffffffffffffffff1916600117909855611cc59789611d2657611d8a565b611ccb57565b7ff0c57e16840df040f15088dc2f81fe391c3923bec73e23a9662efc9c229c6a00805460ff60401b19169055604051600181527fc7f505b2f371ae2175ee4913f4499e1f2633a7b5936321eed1cdaeb6115181d290602090a1565b7ff0c57e16840df040f15088dc2f81fe391c3923bec73e23a9662efc9c229c6a00805460ff60401b1916600160401b179055611d8a565b60405163f92ee8a960e01b8152600490fd5b9050155f611ca1565b303b159150611c99565b8c9150611c8f565b9795939194929697611d9b33612d90565b611f56575b5f80516020613e568339815191529163ffffffff835491640100000000600160c01b039060201b169216906001600160401b0360c01b16171790555f5b8751811015611e0f5780611e09611dfc610e11611be06001958d612d77565b805460ff19166001179055565b01611ddd565b50611f099394965090611e89611ec992611e496109b99863ffffffff5f80516020613dd6833981519152911663ffffffff19825416179055565b7f6f2b5e4a4e4e1ee6e84aeabd150e6bcb39c4b05494d47809c3cd3d998f85910780546001600160a01b0319166001600160a01b03909216919091179055565b7f6f2b5e4a4e4e1ee6e84aeabd150e6bcb39c4b05494d47809c3cd3d998f85910880546001600160a01b0319166001600160a01b03909216919091179055565b7f6f2b5e4a4e4e1ee6e84aeabd150e6bcb39c4b05494d47809c3cd3d998f85910980546001600160a01b0319166001600160a01b03909216919091179055565b61762f5f527f6f2b5e4a4e4e1ee6e84aeabd150e6bcb39c4b05494d47809c3cd3d998f8591036020527fbd754e68c6089f0c09a226a23994d24c42e97e565a22c86b55771aa49b5bd6f255565b5f80525f80516020613db6833981519152602052611f94337f615f0f9e84155bea8cc509fe18befeb1baf65611e38a6ba60964480fb29dfd44613aa4565b50611da0565b90816020910312610329575190565b634e487b7160e01b5f52601160045260245ffd5b81810292918115918404141715611fd057565b611fa9565b604051634b1f7e5560e11b815290602090829060049082906001600160a01b03165afa90811561088c575f9161202c575b5080156120185780610a279204611fbd565b634e487b7160e01b5f52601260045260245ffd5b61204e915060203d602011612054575b612046818361098b565b810190611f9a565b5f612006565b503d61203c565b6040519061206882610970565b60148252720800880800000000000000000000000000249f60651b6020830152565b6020906120a0601694938281519485920161100e565b0190630100130360e01b82526001600160801b03199060801b1660068201520190565b90610168918201809211611fd057565b90612710918201809211611fd057565b91908201809211611fd057565b909260809263ffffffff610a27969516835260018060a01b031660208301526040820152816060820152019061102f565b7f6f2b5e4a4e4e1ee6e84aeabd150e6bcb39c4b05494d47809c3cd3d998f859108549092919061215b90611bed906001600160a01b031681565b604051630c2eceab60e21b815263ffffffff8516600482015260056024820152306044820152608060648201525f6084820152602092918390829060a49082905afa91821561088c576122619484925f94612408575b506121f16121ec8863ffffffff165f527f6f2b5e4a4e4e1ee6e84aeabd150e6bcb39c4b05494d47809c3cd3d998f85910660205260405f2090565b6119ce565b918251156123f8575b81516123ba575b507f6f2b5e4a4e4e1ee6e84aeabd150e6bcb39c4b05494d47809c3cd3d998f859107546122439061223c90611bed906001600160a01b031681565b91516120c3565b604051809781948293631c27ad9960e21b8452308c600486016120f0565b03915afa92831561088c576123229383926122ab925f92612397575b506122a6906122a06107665f80516020613dd68339815191525463ffffffff1690565b90611fbd565b6120e3565b7f6f2b5e4a4e4e1ee6e84aeabd150e6bcb39c4b05494d47809c3cd3d998f85910954909485916122e590611bed906001600160a01b031681565b60405163d424422160e01b815230600482015263ffffffff909216602483015260448201929092525f606482015293849190829081906084820190565b03915afa801561088c57610a279361237093612346935f93612378575b50506120e3565b6122a07f6f2b5e4a4e4e1ee6e84aeabd150e6bcb39c4b05494d47809c3cd3d998f859105546120d3565b612710900490565b61238f929350803d1061205457612046818361098b565b905f8061233f565b6122a69192506123b390853d871161205457612046818361098b565b919061227d565b909162061a80806001600160801b038416106123ee575b506123e7906105ce60405193849287840161208a565b905f612201565b91506123e76123d1565b915061240261205b565b916121fa565b612420919450833d851161205457612046818361098b565b925f6121b1565b335f9081527fb7db2dd08fcb62d0c9e08c51941cae53c267786a0b75803fb7960902fc8ef97d602052604090205460ff161561245f57565b60405163e2517d3f60e01b81523360048201525f6024820152604490fd5b5f8181525f80516020613df68339815191526020908152604080832033845290915290205460ff16156124ad5750565b6044906040519063e2517d3f60e01b82523360048301526024820152fd5b6124d58282612ed6565b91826124e057505090565b5f9182525f80516020613db6833981519152602052604090912061250d916001600160a01b031690613b44565b5090565b919082604091031261032957604051604081018181106001600160401b0382111761093d576040526020808294805184520151910152565b9060408282031261032957610a2791612511565b610a279163ffffffff825116815260208201516020820152604082015160408201526060820151606082015260c06125b96125a7608085015160e0608086015260e085019061102f565b60a085015184820360a086015261102f565b9201519060c081840391015261102f565b919060206125e15f9260408652604086019061255d565b930152565b919082810360c08112610329576080136103295760405190606082018281106001600160401b0382111761093d57610a27926080916040528551815260208601516126308161050a565b60208201526126428360408801612511565b60408201529401612511565b919392602061266760609360808652608086019061255d565b86518583015295015160408401526001600160a01b0316910152565b9190916126908284613009565b90612699613157565b92613fbb60921b91823b1561032957604080516339e25d1160e21b81526001600160a01b038716600482015290935f908290602490829084905af1801561088c57612862575b508251633b6f743b60e01b8152946001600160a01b038216939081878061270989600483016125ca565b0381885afa92831561088c576127889860c0985f9561282b575b5090612765918661273d60205f9899015163ffffffff1690565b61762f8063ffffffff831614908115612804575b5088146127dc57505085935b8751926131c3565b806127ca575b505180968195829463c7c7f5b360e01b845230916004850161264e565b03925af1801561088c5761279c575b505f90565b6127bd9060c03d60c0116127c3575b6127b5818361098b565b8101906125e6565b50612797565b503d6127ab565b6127d5903090613391565b505f61276b565b8160a06127f5896127fe9501516001600160801b031690565b91015191612121565b9361275d565b90506128246107665f80516020613e568339815191525463ffffffff1690565b145f612751565b5f9550906128526127659392863d881161285b575b61284a818361098b565b810190612549565b95509091612723565b503d612840565b8061286f61287592610942565b8061032d565b5f6126df565b919260a09363ffffffff610a279796931684526020840152600180851b031660408301526060820152816080820152019061102f565b60808301519192916128cb906001600160a01b0316611bed565b83612958575b60a08301519081516128e5575b5050505050565b60018060a01b03169060606128fe855163ffffffff1690565b94015190823b15610329575f9461292d86926040519889978896879563b56ffd4f60e01b87526004870161287b565b03925af1801561088c57612945575b808080806128de565b8061286f61295292610942565b5f61293c565b604051637e062a3560e11b81526001600160a01b03906020816004818786165afa90811561088c5761299692879285925f9161299b575b5016613789565b6128d1565b6129b4915060203d6020116108bb576108ac818361098b565b5f61298f565b5f80516020613e568339815191525463ffffffff90811696908316959294909387929091878414612ad657612a5b98612a3b612a4092604095612a0a6129fe6109ac565b63ffffffff9095168552565b63ffffffff8b1660208501526001600160801b0389168488015233606085015260808401528860a084015284611fd5565b613009565b90825180809a8194633b6f743b60e01b8352600483016125ca565b03916001600160a01b03165afa94851561088c57610a27965f96612ab5575b5061762f809114918215612aab575b505015612a9c575050505f905b516120e3565b612aa592612121565b90612a96565b1490505f80612a89565b612acf91965060403d60401161285b5761284a818361098b565b945f612a7a565b5050505050505050505f90565b8115612ba4576001600160a01b0381811615612b98575b60405163559bfa4360e11b81526001600160a01b038316600482015290602090829060249082907f0000000000000000000000000000000000000000000000000000000000000000165afa90811561088c575f91612b79575b5061250d57612b7390612b6d6001600160801b039361382c565b906138e2565b90501690565b612b92915060203d60201161088557610875818361098b565b5f612b53565b608360961b9150612afa565b50505f90565b5f80516020613e5683398151915254909290602081901c6001600160a01b03163303612d045760c01c60ff16610c8357612be96106d86106d1856118bd565b610c7157612c0b612bfa8284612d42565b91612c058185612d54565b93613a95565b604080516001600160a01b0386166020820190815263ffffffff8516928201929092526001600160401b038316606082015260808101859052919491612c548160a081016105ce565b5190209383612c628461188a565b541494612c866106d1825f525f80516020613e3683398151915260205260405f2090565b15612c9657505050505090600190565b7f0c64ebde8e3c30fe6dade45724a834e5d6c5c30f207a57bcd56cbc26361c2b5591612ce1611dfc6001600160401b03935f525f80516020613e3683398151915260205260405f2090565b6040516001600160a01b03949094168452169263ffffffff1691602090a4905f90565b604051637ee14dfd60e01b8152600490fd5b9092919283604c1161032957831161032957604c0191604b190190565b90602c1161032957600c013590565b90600c11610329576008013560e01c90565b90604c1161032957602c013590565b634e487b7160e01b5f52603260045260245ffd5b8051821015612d8b5760209160051b010190565b612d63565b6001600160a01b0381165f9081527fb7db2dd08fcb62d0c9e08c51941cae53c267786a0b75803fb7960902fc8ef97d60205260409020545f80516020613df68339815191529060ff16612ba4575f808052602091825260408082206001600160a01b038516835290925220805460ff1916600117905533906001600160a01b03165f7f2f8788117e7eff1d82e926ec794901d17c78024a50270940304540a733656f0d8180a4600190565b5f8181525f80516020613df6833981519152602081815260408084206001600160a01b03871685529091529091205460ff16612ecf575f828152602091825260408082206001600160a01b038616835290925220805460ff1916600117905533916001600160a01b0316907f2f8788117e7eff1d82e926ec794901d17c78024a50270940304540a733656f0d5f80a4600190565b5050505f90565b5f8181525f80516020613df6833981519152602081815260408084206001600160a01b03871685529091529091205460ff1615612ecf575f828152602091825260408082206001600160a01b038616835290925220805460ff1916905533916001600160a01b0316907ff6391f5c32d9c69d2a47ea670b442974b53935d1edc7fd64eb21e047a839171b5f80a4600190565b6040519060e082018281106001600160401b0382111761093d57604052606060c0835f81525f60208201525f60408201525f838201528260808201528260a08201520152565b60e060a0610a27936020845263ffffffff80825116602086015260208201511660408501526001600160801b0360408201511660608501526060810151608085015260808101518285015201519160c080820152019061102f565b9190613013612f68565b61762f81529280604085015260608401526020810161762f8063ffffffff61303f845163ffffffff1690565b16148061314a575b15613059575050608001516020830152565b916131016130e9613115936105ce9561309b61762f5f527f6f2b5e4a4e4e1ee6e84aeabd150e6bcb39c4b05494d47809c3cd3d998f85910360205260405f2090565b5460208a01526130a9613bef565b9160408601916001600160801b039262061a80846130ce83516001600160801b031690565b161061313f575b620f4240958691516001600160801b031690565b938416119182613124575b505061311c575b50613c09565b608086015260405192839160208301612fae565b60a0830152565b91505f6130fb565b519091506131379063ffffffff16610766565b145f806130f4565b62061a8081526130d5565b5060a08301515115613047565b604051631da931f560e31b815233600482015290602082602481613fbb60921b5afa91821561088c575f926131a2575b506001600160a01b0382161561319957565b608360961b9150565b6131bc91925060203d6020116108bb576108ac818361098b565b905f613187565b604051637e062a3560e11b815260209491936001600160a01b0393928683600481888a165afa92831561088c575f93613359575b506132029084612ae3565b9084819483613281575b505050508161321c575050505050565b60405163095ea7b360e01b81526001600160a01b0394909416600485015260248401919091528391839160449183915f91165af1801561088c57613263575b8080806128de565b8161327992903d1061088557610875818361098b565b505f8061325b565b6040516323b872dd60e01b815233600482015230602482015260448101859052911688826064815f855af191821561088c57899261333c575b5084871681036132dc5750506132d19293506120e3565b905b5f80848161320c565b60405163095ea7b360e01b81526001600160a01b03891660048201526024810194909452909150829060449082905f905af1801561088c5761331f575b506132d3565b61333590863d881161088557610875818361098b565b505f613319565b61335290833d851161088557610875818361098b565b505f6132ba565b61320291935061337590883d8a116108bb576108ac818361098b565b92906131f7565b908160209103126103295751610a27816108fd565b908115612ba4576001600160a01b03907f000000000000000000000000000000000000000000000000000000000000000082168015613777576133d2613157565b6040805163559bfa4360e11b81526001600160a01b038316600480830191909152956020918281602481895afa90811561088c575f9161375a575b5061366b5792613467936134296134238a61382c565b836138e2565b85516323b872dd60e01b815233818c019081523060208201526001600160801b03831660408201529297858516959193879185918291606090910190565b03815f895af192831561088c578b9361364e575b508587518096815f816134b68863095ea7b360e01b9a8b8452830191909160206001600160801b03604083019461037b60961b845216910152565b03925af1801561088c5761352187936134d98f8f94998d9a613631575b5061382c565b8a5163f0122b7560e01b81526001600160a01b039586169481019485529890941660208401526001600160801b03938416604084015290921660608201528591829160800190565b03815f61037b60961b5af191821561088c57895f89938d968896613604575b5061356b8951978896879586948552840160209093929193604081019460018060a01b031681520152565b039289165af1801561088c576135e6575b5050823b156103295751630c46aac760e31b81526001600160a01b03918216948101948552921660208401526040830193909352915f918391908290849082906060015b03925af1801561088c576135d357505f90565b8061286f6135e092610942565b5f612797565b816135fc92903d1061088557610875818361098b565b505f8061357c565b61362390873d891161362a575b61361b818361098b565b81019061337c565b505f613540565b503d613611565b61364790883d8a1161088557610875818361098b565b505f6134d3565b61366490873d891161088557610875818361098b565b505f61347b565b82516323b872dd60e01b815233888201908152306020820152604081018a90529185169183908290819060600103815f865af1801561088c576136e79284928b9261373d575b50855163095ea7b360e01b81526001600160a01b038916818c01908152602081019390935293849283915f918391604090910190565b03925af1801561088c576135e6575050823b156103295751630c46aac760e31b81526001600160a01b03918216948101948552921660208401526040830193909352915f918391908290849082906060016135c0565b61375390843d861161088557610875818361098b565b505f6136b1565b6137719150833d851161088557610875818361098b565b5f61340d565b604051638dce522760e01b8152600490fd5b60405163a9059cbb60e01b60208281019182526001600160a01b039094166024830152604482019490945290925f916137c581606481016105ce565b519082855af11561190a575f513d61380e57506001600160a01b0381163b155b6137ec5750565b604051635274afe760e01b81526001600160a01b039091166004820152602490fd5b600114156137e5565b8054821015612d8b575f5260205f2001905f90565b6001600160801b0390818111613840571690565b604490604051906306dfcc6560e41b8252608060048301526024820152fd5b6020908181840312610329578051906001600160401b03821161032957019180601f840112156103295782516138948161168b565b936138a2604051958661098b565b818552838086019260051b820101928311610329578301905b8282106138c9575050505090565b83809183516138d781610478565b8152019101906138bb565b6040805162e26f7960e81b8152909392600492916001600160a01b0391905f8186817f000000000000000000000000000000000000000000000000000000000000000087165afa90811561088c575f91613a73575b506001600160801b03965f958251935f5b8581106139845750505050505082161561396157509190565b604051633ee75bc160e01b81526001600160a01b03919091166004820152602490fd5b613991611be08287612d77565b871688881614613a6b576139a8611be08287612d77565b8451630abb7d0760e11b81526001600160a01b03808b1686830190815292166020838101919091526001600160801b03851660408401529091819083908190606001038161037b60961b5afa9182915f93613a4c575b5050613a0f57506001905b01613948565b6001600160801b038c166001600160801b03821610613a32575b50600190613a09565b9a5097506001613a45611be08a87612d77565b9890613a29565b613a63929350803d1061362a5761361b818361098b565b905f806139fe565b600190613a09565b613a8f91503d805f833e613a87818361098b565b81019061385f565b5f613937565b90600811610329573560c01c90565b6001810190825f528160205260405f2054155f14612ecf578054600160401b81101561093d57613af4613ade826001879401855584613817565b819391549060031b91821b915f19901b19161790565b905554915f5260205260405f2055600190565b8054908115613b30575f1991820191613b208383613817565b909182549160031b1b1916905555565b634e487b7160e01b5f52603160045260245ffd5b6001810191805f528260205260405f2054928315155f14613be7575f199284840190858211611fd0578054948501948511611fd0575f958583613ba097613b939503613ba6575b505050613b07565b905f5260205260405f2090565b55600190565b613bd0613bca91613bba613bde9487613817565b90549060031b1c92839187613817565b90611962565b85905f5260205260405f2090565b555f8080613b8b565b505050505f90565b604051600360f01b602082015260028152610a2781610970565b61ffff90600382613c1983613cfc565b1603613cda57604051925f60208501526001600160801b03199060801b16602284015260128352613c4983610970565b600382613c5583613cfc565b1603613cda57825191808311613c8657613c766105ce91610a279416613d48565b9360405194859360208501613d5b565b60405162461bcd60e51b815260206004820152602660248201527f53616665436173743a2076616c756520646f65736e27742066697420696e203160448201526536206269747360d01b6064820152608490fd5b90613ce6602492613cfc565b604051633a51740d60e01b815291166004820152fd5b6002815110613d0c576002015190565b60405162461bcd60e51b8152602060048201526014602482015273746f55696e7431365f6f75744f66426f756e647360601b6044820152606490fd5b90600161ffff80931601918211611fd057565b602090613d7260049594938281519485920161100e565b600160f81b910190815260f09190911b6001600160f01b0319166001820152600360f81b6003820152815191613db09083908584019060200161100e565b01019056fec1f6fe24621ce81ec5827caf0253cadb74709b061630e6b55e823717059320006f2b5e4a4e4e1ee6e84aeabd150e6bcb39c4b05494d47809c3cd3d998f85910402dd7bc7dec4dceedda775e58dd541e08a116c6c53815c0bd028192f7b626800bc9ee36b6ca0bdd5b3840e6d329dd19a2490d880c7ce24d9818aa593adfb35be6f2b5e4a4e4e1ee6e84aeabd150e6bcb39c4b05494d47809c3cd3d998f8591026f2b5e4a4e4e1ee6e84aeabd150e6bcb39c4b05494d47809c3cd3d998f85910000000000000000000000000020bb7c2e2f4e5ca2b4c57060d1ae2615245dcc9c",
        "nonce": "0x56",
        "chainId": "0x1079",
        "feeToken": null,
        "calls": [],
        "keyType": null,
        "keyData": null
      },
      "additionalContracts": [],
      "isFixedGasLimit": false
    },
    {
      "hash": "0xa55300891a53d43cb90baafca7655df3b37b20141290dbcd8c4250805ea02eba",
      "transactionType": "CALL",
      "contractName": null,
      "contractAddress": "0x0000006d38568b00b457580b734e0076c62de659",
      "function": "upgradeToAndCall(address,bytes)",
      "arguments": [
        "0x9421489b1618F9C2598Ecc8E09a95D32E0b3FF67",
        "0xdf1cf4a100000000000000000000000000000000000000000000000000000000000076ca00000000000000000000000020bb7c2e2f4e5ca2b4c57060d1ae2615245dcc9c00000000000000000000000000000000e18afc20afe54d4b2c8688bb60c06b360000000000000000000000000000000000000000000000000000000000000003000000000000000000000000f851abca1d0fd1df8eaba6de466a102996b7d7b200000000000000000000000076faff60799021b301b45dc1bbede53f261f99610000000000000000000000001deb70e45c2399a4abef19e9b1643f2670f892d00000000000000000000000000000000000000000000000000000000000000100000000000000000000000000000000000000000000000000000000000000000600000000000000000000000000000000d61733e7a393a10a5b48c311abe8f1e500000000000000000000000000000000fd8c4b8a413a06821456801295921a71000000000000000000000000000000008c3930dca540bb9b3a5d0ee78fca9a4c00000000000000000000000000000000883279097a49db1f2af954ead0c77e3c00000000000000000000000000000000e9ce0f293d1ce552768b187eba8a56d400000000000000000000000000000000bc4aef4ba6363a437455cb1af19e2aeb"
      ],
      "transaction": {
        "from": "0x54f9b12743a7deec0ea48721683cbebedc6e17bc",
        "to": "0x0000006d38568b00b457580b734e0076c62de659",
        "gas": "0x7460e",
        "value": "0x0",
        "input": "0x4f1ef2860000000000000000000000009421489b1618f9c2598ecc8e09a95d32e0b3ff67000000000000000000000000000000000000000000000000000000000000004000000000000000000000000000000000000000000000000000000000000001e4df1cf4a100000000000000000000000000000000000000000000000000000000000076ca00000000000000000000000020bb7c2e2f4e5ca2b4c57060d1ae2615245dcc9c00000000000000000000000000000000e18afc20afe54d4b2c8688bb60c06b360000000000000000000000000000000000000000000000000000000000000003000000000000000000000000f851abca1d0fd1df8eaba6de466a102996b7d7b200000000000000000000000076faff60799021b301b45dc1bbede53f261f99610000000000000000000000001deb70e45c2399a4abef19e9b1643f2670f892d00000000000000000000000000000000000000000000000000000000000000100000000000000000000000000000000000000000000000000000000000000000600000000000000000000000000000000d61733e7a393a10a5b48c311abe8f1e500000000000000000000000000000000fd8c4b8a413a06821456801295921a71000000000000000000000000000000008c3930dca540bb9b3a5d0ee78fca9a4c00000000000000000000000000000000883279097a49db1f2af954ead0c77e3c00000000000000000000000000000000e9ce0f293d1ce552768b187eba8a56d400000000000000000000000000000000bc4aef4ba6363a437455cb1af19e2aeb00000000000000000000000000000000000000000000000000000000",
        "nonce": "0x57",
        "chainId": "0x1079",
        "feeToken": null,
        "calls": [],
        "keyType": null,
        "keyData": null
      },
      "additionalContracts": [],
      "isFixedGasLimit": false
    },
    {
      "hash": "0x7f46f551ef25b35f0fa3d0fb15940ff3927b2338b07296e2989bde00e13ee5cc",
      "transactionType": "CALL",
      "contractName": null,
      "contractAddress": "0x0000006d38568b00b457580b734e0076c62de659",
      "function": "changeAdmin(address)",
      "arguments": [
        "0x000000dbfaA1Fb91ca46867cE6D41aB6da4f7428"
      ],
      "transaction": {
        "from": "0x54f9b12743a7deec0ea48721683cbebedc6e17bc",
        "to": "0x0000006d38568b00b457580b734e0076c62de659",
        "gas": "0x6f33",
        "value": "0x0",
        "input": "0x8f283970000000000000000000000000000000dbfaa1fb91ca46867ce6d41ab6da4f7428",
        "nonce": "0x58",
        "chainId": "0x1079",
        "feeToken": null,
        "calls": [],
        "keyType": null,
        "keyData": null
      },
      "additionalContracts": [],
      "isFixedGasLimit": false
    },
    {
      "hash": "0x2aa37994999c0166c8a369867a795352ed0f597c67d00dfdfdb1bf65dfcf9434",
      "transactionType": "CALL",
      "contractName": null,
      "contractAddress": "0x0000006d38568b00b457580b734e0076c62de659",
      "function": "setExecutorOptions(uint32,bytes)",
      "arguments": [
        "30168",
        "0x0100210100000000000000000000000000030d40000000000000000000000000002dc6c0"
      ],
      "transaction": {
        "from": "0x54f9b12743a7deec0ea48721683cbebedc6e17bc",
        "to": "0x0000006d38568b00b457580b734e0076c62de659",
        "gas": "0x19a6c",
        "value": "0x0",
        "input": "0x5135db4600000000000000000000000000000000000000000000000000000000000075d8000000000000000000000000000000000000000000000000000000000000004000000000000000000000000000000000000000000000000000000000000000240100210100000000000000000000000000030d40000000000000000000000000002dc6c000000000000000000000000000000000000000000000000000000000",
        "nonce": "0x59",
        "chainId": "0x1079",
        "feeToken": null,
        "calls": [],
        "keyType": null,
        "keyData": null
      },
      "additionalContracts": [],
      "isFixedGasLimit": false
    },
    {
      "hash": "0x2e46bfc9b643b9444efd7ef46d07ff633c3e8b40e417e4139e59f1f969b6df73",
      "transactionType": "CREATE",
      "contractName": null,
      "contractAddress": "0xe764367bf30ef6e66918ea595e2ee621c7ad4a2a",
      "function": null,
      "arguments": null,
      "transaction": {
        "from": "0x54f9b12743a7deec0ea48721683cbebedc6e17bc",
        "gas": "0x15e6a3",
        "value": "0x0",
        "input": "0x60e0346100b357601f61045538819003918201601f19168301916001600160401b038311848410176100b7578084926060946040528339810103126100b357610047816100cb565b906100606040610059602084016100cb565b92016100cb565b60809290925260a0526001600160a01b031660c05260405161037590816100e0823960805181818161015901526102af015260a05181818161012001526102f0015260c051818181606201526102720152f35b5f80fd5b634e487b7160e01b5f52604160045260245ffd5b51906001600160a01b03821682036100b35756fe6080604090808252600480361015610015575f80fd5b5f3560e01c9182635e84b81c146102de575081636d0798131461029b578163b56ffd4f14610089575063e275fc6a1461004c575f80fd5b34610085575f36600319011261008557602090517f00000000000000000000000000000000000000000000000000000000000000008152f35b5f80fd5b82346100855760a036600319011261008557813563ffffffff8116809103610085576044356001600160a01b038181169291839003610085576084359167ffffffffffffffff9081841161008557366023850112156100855783870135946100f86100f387610359565b61031f565b9186835260209687840196366024838301011161008557815f9260248b93018a3785010152847f000000000000000000000000000000000000000000000000000000000000000016331480159061026f575b61025f5761762f0361024f57837f0000000000000000000000000000000000000000000000000000000000000000160361023f578051810193868287870196031261008557519283168093036100855785810151918211610085570182603f820112156100855783810151906101c26100f383610359565b93828552868383010111610085579084915f5b82811061022b575050915f84928195948295010152828583519301915af1903d15610225575f3d916102096100f384610359565b9283523d92013e5b1561021857005b51634f791bf960e01b8152fd5b50610211565b8181018801518682018501528693016101d5565b8551633a09f24360e11b81528790fd5b8651632f746eff60e01b81528890fd5b875163ea8e4eb560e01b81528990fd5b507f0000000000000000000000000000000000000000000000000000000000000000602435141561014a565b8234610085575f36600319011261008557517f00000000000000000000000000000000000000000000000000000000000000006001600160a01b03168152602090f35b34610085575f366003190112610085577f00000000000000000000000000000000000000000000000000000000000000006001600160a01b03168152602090f35b6040519190601f01601f1916820167ffffffffffffffff81118382101761034557604052565b634e487b7160e01b5f52604160045260245ffd5b67ffffffffffffffff811161034557601f01601f1916602001905600000000000000000000000000000000d61733e7a393a10a5b48c311abe8f1e50000000000000000000000000000006d38568b00b457580b734e0076c62de6590000000000000000000000005f25218ed9474b721d6a38c115107428e832fa2e",
        "nonce": "0x5a",
        "chainId": "0x1079",
        "feeToken": null,
        "calls": [],
        "keyType": null,
        "keyData": null
      },
      "additionalContracts": [],
      "isFixedGasLimit": false
    },
    {
      "hash": "0x5e2b104063b21791403ca4083b0b307939580006e8ec76d60dfc3010137ade4d",
      "transactionType": "CALL",
      "contractName": null,
      "contractAddress": "0x0000006d38568b00b457580b734e0076c62de659",
      "function": "grantRole(bytes32,address)",
      "arguments": [
        "0x65d7a28e3265b37a6474929f336521b332c1681b933f6cb9f3376673440d862a",
        "0x54C5Ef136D02b95C4Ff217aF93FA63F9E4119919"
      ],
      "transaction": {
        "from": "0x54f9b12743a7deec0ea48721683cbebedc6e17bc",
        "to": "0x0000006d38568b00b457580b734e0076c62de659",
        "gas": "0x226de",
        "value": "0x0",
        "input": "0x2f2ff15d65d7a28e3265b37a6474929f336521b332c1681b933f6cb9f3376673440d862a00000000000000000000000054c5ef136d02b95c4ff217af93fa63f9e4119919",
        "nonce": "0x5b",
        "chainId": "0x1079",
        "feeToken": null,
        "calls": [],
        "keyType": null,
        "keyData": null
      },
      "additionalContracts": [],
      "isFixedGasLimit": false
    },
    {
      "hash": "0x9faa45aba258b84f8714ab466439827583a2ef5246c5b08053fb760ece7383a2",
      "transactionType": "CALL",
      "contractName": null,
      "contractAddress": "0x0000006d38568b00b457580b734e0076c62de659",
      "function": "grantRole(bytes32,address)",
      "arguments": [
        "0x65d7a28e3265b37a6474929f336521b332c1681b933f6cb9f3376673440d862a",
        "0x17e06ce6914E3969f7BD37D8b2a563890cA1c96e"
      ],
      "transaction": {
        "from": "0x54f9b12743a7deec0ea48721683cbebedc6e17bc",
        "to": "0x0000006d38568b00b457580b734e0076c62de659",
        "gas": "0x1c14a",
        "value": "0x0",
        "input": "0x2f2ff15d65d7a28e3265b37a6474929f336521b332c1681b933f6cb9f3376673440d862a00000000000000000000000017e06ce6914e3969f7bd37d8b2a563890ca1c96e",
        "nonce": "0x5c",
        "chainId": "0x1079",
        "feeToken": null,
        "calls": [],
        "keyType": null,
        "keyData": null
      },
      "additionalContracts": [],
      "isFixedGasLimit": false
    },
    {
      "hash": "0x2fdfedba9de5089de8aee375a4cd3fcb988af457512cf3dcefa4b587f99d04c8",
      "transactionType": "CALL",
      "contractName": null,
      "contractAddress": "0x0000006d38568b00b457580b734e0076c62de659",
      "function": "grantRole(bytes32,address)",
      "arguments": [
        "0x65d7a28e3265b37a6474929f336521b332c1681b933f6cb9f3376673440d862a",
        "0x8d8290d49e88D16d81C6aDf6C8774eD88762274A"
      ],
      "transaction": {
        "from": "0x54f9b12743a7deec0ea48721683cbebedc6e17bc",
        "to": "0x0000006d38568b00b457580b734e0076c62de659",
        "gas": "0x1c14a",
        "value": "0x0",
        "input": "0x2f2ff15d65d7a28e3265b37a6474929f336521b332c1681b933f6cb9f3376673440d862a0000000000000000000000008d8290d49e88d16d81c6adf6c8774ed88762274a",
        "nonce": "0x5d",
        "chainId": "0x1079",
        "feeToken": null,
        "calls": [],
        "keyType": null,
        "keyData": null
      },
      "additionalContracts": [],
      "isFixedGasLimit": false
    },
    {
      "hash": "0x5c3e82c2e7c6085bccbd45faf3305cdff05a884abb6667692af3efadb0c5ea93",
      "transactionType": "CALL",
      "contractName": null,
      "contractAddress": "0x0000006d38568b00b457580b734e0076c62de659",
      "function": "grantRole(bytes32,address)",
      "arguments": [
        "0x65d7a28e3265b37a6474929f336521b332c1681b933f6cb9f3376673440d862a",
        "0xcbc616D595D38483e6AdC45C7E426f44bF230928"
      ],
      "transaction": {
        "from": "0x54f9b12743a7deec0ea48721683cbebedc6e17bc",
        "to": "0x0000006d38568b00b457580b734e0076c62de659",
        "gas": "0x1c14a",
        "value": "0x0",
        "input": "0x2f2ff15d65d7a28e3265b37a6474929f336521b332c1681b933f6cb9f3376673440d862a000000000000000000000000cbc616d595d38483e6adc45c7e426f44bf230928",
        "nonce": "0x5e",
        "chainId": "0x1079",
        "feeToken": null,
        "calls": [],
        "keyType": null,
        "keyData": null
      },
      "additionalContracts": [],
      "isFixedGasLimit": false
    },
    {
      "hash": "0x8576008947ef0ab33bc96346f16ed99cc4ea18196927b4aeddfd2741cb3f16e4",
      "transactionType": "CALL",
      "contractName": null,
      "contractAddress": "0x0000006d38568b00b457580b734e0076c62de659",
      "function": "grantRole(bytes32,address)",
      "arguments": [
        "0x65d7a28e3265b37a6474929f336521b332c1681b933f6cb9f3376673440d862a",
        "0x381e2495e683868F693AA5B1414F712f21d34b40"
      ],
      "transaction": {
        "from": "0x54f9b12743a7deec0ea48721683cbebedc6e17bc",
        "to": "0x0000006d38568b00b457580b734e0076c62de659",
        "gas": "0x1c14a",
        "value": "0x0",
        "input": "0x2f2ff15d65d7a28e3265b37a6474929f336521b332c1681b933f6cb9f3376673440d862a000000000000000000000000381e2495e683868f693aa5b1414f712f21d34b40",
        "nonce": "0x5f",
        "chainId": "0x1079",
        "feeToken": null,
        "calls": [],
        "keyType": null,
        "keyData": null
      },
      "additionalContracts": [],
      "isFixedGasLimit": false
    },
    {
      "hash": "0x305b5db4e7b2958407de519c2ecd880476d283c96960ca9afd2ca94494d621c4",
      "transactionType": "CALL",
      "contractName": null,
      "contractAddress": "0x0000006d38568b00b457580b734e0076c62de659",
      "function": "grantRole(bytes32,address)",
      "arguments": [
        "0x65d7a28e3265b37a6474929f336521b332c1681b933f6cb9f3376673440d862a",
        "0x6e74053a3798e0fC9a9775F7995316b27f21c4D2"
      ],
      "transaction": {
        "from": "0x54f9b12743a7deec0ea48721683cbebedc6e17bc",
        "to": "0x0000006d38568b00b457580b734e0076c62de659",
        "gas": "0x1c14a",
        "value": "0x0",
        "input": "0x2f2ff15d65d7a28e3265b37a6474929f336521b332c1681b933f6cb9f3376673440d862a0000000000000000000000006e74053a3798e0fc9a9775f7995316b27f21c4d2",
        "nonce": "0x60",
        "chainId": "0x1079",
        "feeToken": null,
        "calls": [],
        "keyType": null,
        "keyData": null
      },
      "additionalContracts": [],
      "isFixedGasLimit": false
    },
    {
      "hash": "0x8587d6a818c8576cdf7e0469edde46a97dd89a322aa4dc3683df60c2854b9c0d",
      "transactionType": "CALL",
      "contractName": null,
      "contractAddress": "0x0000006d38568b00b457580b734e0076c62de659",
      "function": "grantRole(bytes32,address)",
      "arguments": [
        "0x65d7a28e3265b37a6474929f336521b332c1681b933f6cb9f3376673440d862a",
        "0xC6EF452b0de9E95Ccb153c2A5A7a90154aab3419"
      ],
      "transaction": {
        "from": "0x54f9b12743a7deec0ea48721683cbebedc6e17bc",
        "to": "0x0000006d38568b00b457580b734e0076c62de659",
        "gas": "0x1c14a",
        "value": "0x0",
        "input": "0x2f2ff15d65d7a28e3265b37a6474929f336521b332c1681b933f6cb9f3376673440d862a000000000000000000000000c6ef452b0de9e95ccb153c2a5a7a90154aab3419",
        "nonce": "0x61",
        "chainId": "0x1079",
        "feeToken": null,
        "calls": [],
        "keyType": null,
        "keyData": null
      },
      "additionalContracts": [],
      "isFixedGasLimit": false
    },
    {
      "hash": "0xb3740793b9eadef206df491cc33398d9881c627914eb3cacfd03a14b440673af",
      "transactionType": "CALL",
      "contractName": null,
      "contractAddress": "0x0000006d38568b00b457580b734e0076c62de659",
      "function": "grantRole(bytes32,address)",
      "arguments": [
        "0x0000000000000000000000000000000000000000000000000000000000000000",
        "0x1Ba19a54a01AE967f5E3895764Caaa6919FD2bEe"
      ],
      "transaction": {
        "from": "0x54f9b12743a7deec0ea48721683cbebedc6e17bc",
        "to": "0x0000006d38568b00b457580b734e0076c62de659",
        "gas": "0x1bfb2",
        "value": "0x0",
        "input": "0x2f2ff15d00000000000000000000000000000000000000000000000000000000000000000000000000000000000000001ba19a54a01ae967f5e3895764caaa6919fd2bee",
        "nonce": "0x62",
        "chainId": "0x1079",
        "feeToken": null,
        "calls": [],
        "keyType": null,
        "keyData": null
      },
      "additionalContracts": [],
      "isFixedGasLimit": false
    },
    {
      "hash": "0x99309edf7ced8d9ed761fee96064d13f738dec0b713aaa8a194aa8966443cf08",
      "transactionType": "CALL",
      "contractName": null,
      "contractAddress": "0x0000006d38568b00b457580b734e0076c62de659",
      "function": "grantRole(bytes32,address)",
      "arguments": [
        "0x0000000000000000000000000000000000000000000000000000000000000000",
        "0xF866Bb647CB051F17C2cd1FBE71EDF17Df5C5d50"
      ],
      "transaction": {
        "from": "0x54f9b12743a7deec0ea48721683cbebedc6e17bc",
        "to": "0x0000006d38568b00b457580b734e0076c62de659",
        "gas": "0x1bfb2",
        "value": "0x0",
        "input": "0x2f2ff15d0000000000000000000000000000000000000000000000000000000000000000000000000000000000000000f866bb647cb051f17c2cd1fbe71edf17df5c5d50",
        "nonce": "0x63",
        "chainId": "0x1079",
        "feeToken": null,
        "calls": [],
        "keyType": null,
        "keyData": null
      },
      "additionalContracts": [],
      "isFixedGasLimit": false
    },
    {
      "hash": "0x44cb98f9d5d1cc2bfab5ef1df0c9b51ac305601224cb2a6762c0591bda9892fb",
      "transactionType": "CALL",
      "contractName": null,
      "contractAddress": "0x0000006d38568b00b457580b734e0076c62de659",
      "function": "renounceRole(bytes32,address)",
      "arguments": [
        "0x0000000000000000000000000000000000000000000000000000000000000000",
        "0x54F9b12743A7DeeC0ea48721683cbebedC6E17bC"
      ],
      "transaction": {
        "from": "0x54f9b12743a7deec0ea48721683cbebedc6e17bc",
        "to": "0x0000006d38568b00b457580b734e0076c62de659",
        "gas": "0xd145",
        "value": "0x0",
        "input": "0x36568abe000000000000000000000000000000000000000000000000000000000000000000000000000000000000000054f9b12743a7deec0ea48721683cbebedc6e17bc",
        "nonce": "0x64",
        "chainId": "0x1079",
        "feeToken": null,
        "calls": [],
        "keyType": null,
        "keyData": null
      },
      "additionalContracts": [],
      "isFixedGasLimit": false
    }
  ],
  "receipts": [
    {
      "type": "0x2",
      "status": "0x1",
      "cumulativeGasUsed": "0x103ed6d",
      "logs": [
        {
          "address": "0x9421489b1618f9c2598ecc8e09a95d32e0b3ff67",
          "topics": [
            "0xc7f505b2f371ae2175ee4913f4499e1f2633a7b5936321eed1cdaeb6115181d2"
          ],
          "data": "0x000000000000000000000000000000000000000000000000ffffffffffffffff",
          "blockHash": "0xf62020d4176a036308c5fd9cf673b1faec95a37be27e2a4cb563dc967dfbf5ac",
          "blockNumber": "0x950358",
          "blockTimestamp": "0x69b8e1b3",
          "transactionHash": "0x18a3ce5bc3991c47d305cde26f1d0630130e0959d894d9c569d018451dc2e16a",
          "transactionIndex": "0x0",
          "logIndex": "0x0",
          "removed": false
        },
        {
          "address": "0x20c0000000000000000000000000000000000000",
          "topics": [
            "0xddf252ad1be2c89b69c2b068fc378daa952ba7f163c4a11628f55a4df523b3ef",
            "0x00000000000000000000000054f9b12743a7deec0ea48721683cbebedc6e17bc",
            "0x000000000000000000000000feec000000000000000000000000000000000000"
          ],
          "data": "0x00000000000000000000000000000000000000000000000000000000000532d5",
          "blockHash": "0xf62020d4176a036308c5fd9cf673b1faec95a37be27e2a4cb563dc967dfbf5ac",
          "blockNumber": "0x950358",
          "blockTimestamp": "0x69b8e1b3",
          "transactionHash": "0x18a3ce5bc3991c47d305cde26f1d0630130e0959d894d9c569d018451dc2e16a",
          "transactionIndex": "0x0",
          "logIndex": "0x1",
          "removed": false
        }
      ],
      "logsBloom": "0x000000004000000000000000000000000000000000000000004000000000000000000000000000000000400001000000000000000000000000000000000000000000040000000000000000080000000000000000000000000000000004000000000000000000000000000000000000000000000000000000000000100008000000000000000000000008000000a0000000000000800080000000000000000000000020000000000000000000000000000000000008000000000000000000000000000002000000000000000000000000000000000004000000000000000000000000000000000000000000000000000000000000000000000000000000000000",
      "transactionHash": "0x18a3ce5bc3991c47d305cde26f1d0630130e0959d894d9c569d018451dc2e16a",
      "transactionIndex": "0x0",
      "blockHash": "0xf62020d4176a036308c5fd9cf673b1faec95a37be27e2a4cb563dc967dfbf5ac",
      "blockNumber": "0x950358",
      "gasUsed": "0x103ed6d",
      "effectiveGasPrice": "0x4a817c801",
      "from": "0x54f9b12743a7deec0ea48721683cbebedc6e17bc",
      "to": null,
      "contractAddress": "0x9421489b1618f9c2598ecc8e09a95d32e0b3ff67",
      "feeToken": "0x20c0000000000000000000000000000000000000",
      "feePayer": "0x54f9b12743a7deec0ea48721683cbebedc6e17bc"
    },
    {
      "type": "0x2",
      "status": "0x1",
      "cumulativeGasUsed": "0x42273d",
      "logs": [
        {
          "address": "0x0000006d38568b00b457580b734e0076c62de659",
          "topics": [
            "0xbc7cd75a20ee27fd9adebab32041f755214dbc6bffa90cc0225b39da2e5c2d3b",
            "0x0000000000000000000000009421489b1618f9c2598ecc8e09a95d32e0b3ff67"
          ],
          "data": "0x",
          "blockHash": "0x016d24def4902d1c0dac771a7dc1a87c57db2f79588006e393152f295a6d23e8",
          "blockNumber": "0x95035d",
          "blockTimestamp": "0x69b8e1b6",
          "transactionHash": "0xa55300891a53d43cb90baafca7655df3b37b20141290dbcd8c4250805ea02eba",
          "transactionIndex": "0x0",
          "logIndex": "0x0",
          "removed": false
        },
        {
          "address": "0x0000006d38568b00b457580b734e0076c62de659",
          "topics": [
            "0x2f8788117e7eff1d82e926ec794901d17c78024a50270940304540a733656f0d",
            "0x0000000000000000000000000000000000000000000000000000000000000000",
            "0x00000000000000000000000054f9b12743a7deec0ea48721683cbebedc6e17bc",
            "0x00000000000000000000000054f9b12743a7deec0ea48721683cbebedc6e17bc"
          ],
          "data": "0x",
          "blockHash": "0x016d24def4902d1c0dac771a7dc1a87c57db2f79588006e393152f295a6d23e8",
          "blockNumber": "0x95035d",
          "blockTimestamp": "0x69b8e1b6",
          "transactionHash": "0xa55300891a53d43cb90baafca7655df3b37b20141290dbcd8c4250805ea02eba",
          "transactionIndex": "0x0",
          "logIndex": "0x1",
          "removed": false
        },
        {
          "address": "0x0000006d38568b00b457580b734e0076c62de659",
          "topics": [
            "0xc7f505b2f371ae2175ee4913f4499e1f2633a7b5936321eed1cdaeb6115181d2"
          ],
          "data": "0x0000000000000000000000000000000000000000000000000000000000000001",
          "blockHash": "0x016d24def4902d1c0dac771a7dc1a87c57db2f79588006e393152f295a6d23e8",
          "blockNumber": "0x95035d",
          "blockTimestamp": "0x69b8e1b6",
          "transactionHash": "0xa55300891a53d43cb90baafca7655df3b37b20141290dbcd8c4250805ea02eba",
          "transactionIndex": "0x0",
          "logIndex": "0x2",
          "removed": false
        },
        {
          "address": "0x20c0000000000000000000000000000000000000",
          "topics": [
            "0xddf252ad1be2c89b69c2b068fc378daa952ba7f163c4a11628f55a4df523b3ef",
            "0x00000000000000000000000054f9b12743a7deec0ea48721683cbebedc6e17bc",
            "0x000000000000000000000000feec000000000000000000000000000000000000"
          ],
          "data": "0x00000000000000000000000000000000000000000000000000000000000152b5",
          "blockHash": "0x016d24def4902d1c0dac771a7dc1a87c57db2f79588006e393152f295a6d23e8",
          "blockNumber": "0x95035d",
          "blockTimestamp": "0x69b8e1b6",
          "transactionHash": "0xa55300891a53d43cb90baafca7655df3b37b20141290dbcd8c4250805ea02eba",
          "transactionIndex": "0x0",
          "logIndex": "0x3",
          "removed": false
        }
      ],
      "logsBloom": "0x400000044000000000000000000000004000000000000000000000000000000000000000000000000000000001000000000000000000000000000000000000000000040000000000000000080000020000000000000000000100000004000000000000000200000000000000000008000000000000000000000000100008000000000000000000000008000000a0000000000000800080000000000000000000000020000000000000000040000000000000080000000000001000000000000000001022000000000000000000000000000000000004000100000000000020000000000000000000000000000000000000000000000000000000000000000000",
      "transactionHash": "0xa55300891a53d43cb90baafca7655df3b37b20141290dbcd8c4250805ea02eba",
      "transactionIndex": "0x0",
      "blockHash": "0x016d24def4902d1c0dac771a7dc1a87c57db2f79588006e393152f295a6d23e8",
      "blockNumber": "0x95035d",
      "gasUsed": "0x42273d",
      "effectiveGasPrice": "0x4a817c801",
      "from": "0x54f9b12743a7deec0ea48721683cbebedc6e17bc",
      "to": "0x0000006d38568b00b457580b734e0076c62de659",
      "contractAddress": null,
      "feeToken": "0x20c0000000000000000000000000000000000000",
      "feePayer": "0x54f9b12743a7deec0ea48721683cbebedc6e17bc"
    },
    {
      "type": "0x2",
      "status": "0x1",
      "cumulativeGasUsed": "0x6dd9",
      "logs": [
        {
          "address": "0x0000006d38568b00b457580b734e0076c62de659",
          "topics": [
            "0x7e644d79422f17c01e4894b5f4f588d331ebfa28653d42ae832dc59e38c9798f"
          ],
          "data": "0x00000000000000000000000054f9b12743a7deec0ea48721683cbebedc6e17bc000000000000000000000000000000dbfaa1fb91ca46867ce6d41ab6da4f7428",
          "blockHash": "0x8521822c631e2c60f381910e8b760d4043d32ca4497aa80b1efb323cc2215af3",
          "blockNumber": "0x950361",
          "blockTimestamp": "0x69b8e1b8",
          "transactionHash": "0x7f46f551ef25b35f0fa3d0fb15940ff3927b2338b07296e2989bde00e13ee5cc",
          "transactionIndex": "0x0",
          "logIndex": "0x0",
          "removed": false
        },
        {
          "address": "0x20c0000000000000000000000000000000000000",
          "topics": [
            "0xddf252ad1be2c89b69c2b068fc378daa952ba7f163c4a11628f55a4df523b3ef",
            "0x00000000000000000000000054f9b12743a7deec0ea48721683cbebedc6e17bc",
            "0x000000000000000000000000feec000000000000000000000000000000000000"
          ],
          "data": "0x0000000000000000000000000000000000000000000000000000000000000233",
          "blockHash": "0x8521822c631e2c60f381910e8b760d4043d32ca4497aa80b1efb323cc2215af3",
          "blockNumber": "0x950361",
          "blockTimestamp": "0x69b8e1b8",
          "transactionHash": "0x7f46f551ef25b35f0fa3d0fb15940ff3927b2338b07296e2989bde00e13ee5cc",
          "transactionIndex": "0x0",
          "logIndex": "0x1",
          "removed": false
        }
      ],
      "logsBloom": "0x000000004000000000000000000000000000000000000000000000000000000000000000000000000000000001000000000000000000000000000000000000000000040000000000000000080000000000000000000000000100000004000000000000000000000000000000000000000000008000000000000000100008000000000000000000000008000000a0000000000000800000000000000000800000000020000000000000000040000000000000000000000000000000000000000000000002000000000000000000000000000000000400000000000000000000000000000000000000000000000000000000000000000000000000000000000000",
      "transactionHash": "0x7f46f551ef25b35f0fa3d0fb15940ff3927b2338b07296e2989bde00e13ee5cc",
      "transactionIndex": "0x0",
      "blockHash": "0x8521822c631e2c60f381910e8b760d4043d32ca4497aa80b1efb323cc2215af3",
      "blockNumber": "0x950361",
      "gasUsed": "0x6dd9",
      "effectiveGasPrice": "0x4a817c801",
      "from": "0x54f9b12743a7deec0ea48721683cbebedc6e17bc",
      "to": "0x0000006d38568b00b457580b734e0076c62de659",
      "contractAddress": null,
      "feeToken": "0x20c0000000000000000000000000000000000000",
      "feePayer": "0x54f9b12743a7deec0ea48721683cbebedc6e17bc"
    },
    {
      "type": "0x2",
      "status": "0x1",
      "cumulativeGasUsed": "0xc0ac4",
      "logs": [
        {
          "address": "0x20c0000000000000000000000000000000000000",
          "topics": [
            "0xddf252ad1be2c89b69c2b068fc378daa952ba7f163c4a11628f55a4df523b3ef",
            "0x00000000000000000000000054f9b12743a7deec0ea48721683cbebedc6e17bc",
            "0x000000000000000000000000feec000000000000000000000000000000000000"
          ],
          "data": "0x0000000000000000000000000000000000000000000000000000000000003da8",
          "blockHash": "0xa2fbb687c6a114104853954072d7f8b4dd837a24434db656036f8ece6510606d",
          "blockNumber": "0x950364",
          "blockTimestamp": "0x69b8e1b9",
          "transactionHash": "0x2aa37994999c0166c8a369867a795352ed0f597c67d00dfdfdb1bf65dfcf9434",
          "transactionIndex": "0x0",
          "logIndex": "0x0",
          "removed": false
        }
      ],
      "logsBloom": "0x000000004000000000000000000000000000000000000000000000000000000000000000000000000000000001000000000000000000000000000000000000000000040000000000000000080000000000000000000000000000000004000000000000000000000000000000000000000000000000000000000000100008000000000000000000000000000000a0000000000000800000000000000000000000000020000000000000000000000000000000000000000000000000000000000000000002000000000000000000000000000000000000000000000000000000000000000000000000000000000000000000000000000000000000000000000000",
      "transactionHash": "0x2aa37994999c0166c8a369867a795352ed0f597c67d00dfdfdb1bf65dfcf9434",
      "transactionIndex": "0x0",
      "blockHash": "0xa2fbb687c6a114104853954072d7f8b4dd837a24434db656036f8ece6510606d",
      "blockNumber": "0x950364",
      "gasUsed": "0xc0ac4",
      "effectiveGasPrice": "0x4a817c801",
      "from": "0x54f9b12743a7deec0ea48721683cbebedc6e17bc",
      "to": "0x0000006d38568b00b457580b734e0076c62de659",
      "contractAddress": null,
      "feeToken": "0x20c0000000000000000000000000000000000000",
      "feePayer": "0x54f9b12743a7deec0ea48721683cbebedc6e17bc"
    },
    {
      "type": "0x2",
      "status": "0x1",
      "cumulativeGasUsed": "0x15b5f7",
      "logs": [
        {
          "address": "0x20c0000000000000000000000000000000000000",
          "topics": [
            "0xddf252ad1be2c89b69c2b068fc378daa952ba7f163c4a11628f55a4df523b3ef",
            "0x00000000000000000000000054f9b12743a7deec0ea48721683cbebedc6e17bc",
            "0x000000000000000000000000feec000000000000000000000000000000000000"
          ],
          "data": "0x0000000000000000000000000000000000000000000000000000000000006f29",
          "blockHash": "0x593da4a06931dcdf18d6cfb133c5f4f0ff83e7815a1a41f04479903c0381804c",
          "blockNumber": "0x95036a",
          "blockTimestamp": "0x69b8e1bc",
          "transactionHash": "0x2e46bfc9b643b9444efd7ef46d07ff633c3e8b40e417e4139e59f1f969b6df73",
          "transactionIndex": "0x0",
          "logIndex": "0x0",
          "removed": false
        }
      ],
      "logsBloom": "0x000000004000000000000000000000000000000000000000000000000000000000000000000000000000000001000000000000000000000000000000000000000000040000000000000000080000000000000000000000000000000004000000000000000000000000000000000000000000000000000000000000100008000000000000000000000000000000a0000000000000800000000000000000000000000020000000000000000000000000000000000000000000000000000000000000000002000000000000000000000000000000000000000000000000000000000000000000000000000000000000000000000000000000000000000000000000",
      "transactionHash": "0x2e46bfc9b643b9444efd7ef46d07ff633c3e8b40e417e4139e59f1f969b6df73",
      "transactionIndex": "0x0",
      "blockHash": "0x593da4a06931dcdf18d6cfb133c5f4f0ff83e7815a1a41f04479903c0381804c",
      "blockNumber": "0x95036a",
      "gasUsed": "0x15b5f7",
      "effectiveGasPrice": "0x4a817c801",
      "from": "0x54f9b12743a7deec0ea48721683cbebedc6e17bc",
      "to": null,
      "contractAddress": "0xe764367bf30ef6e66918ea595e2ee621c7ad4a2a",
      "feeToken": "0x20c0000000000000000000000000000000000000",
      "feePayer": "0x54f9b12743a7deec0ea48721683cbebedc6e17bc"
    },
    {
      "type": "0x2",
      "status": "0x1",
      "cumulativeGasUsed": "0xff4f9",
      "logs": [
        {
          "address": "0x0000006d38568b00b457580b734e0076c62de659",
          "topics": [
            "0x2f8788117e7eff1d82e926ec794901d17c78024a50270940304540a733656f0d",
            "0x65d7a28e3265b37a6474929f336521b332c1681b933f6cb9f3376673440d862a",
            "0x00000000000000000000000054c5ef136d02b95c4ff217af93fa63f9e4119919",
            "0x00000000000000000000000054f9b12743a7deec0ea48721683cbebedc6e17bc"
          ],
          "data": "0x",
          "blockHash": "0xa73c22a587f932c7368d15ffef78f38bbbc435e43bbaea5a4f0fdf3cec6b6c3b",
          "blockNumber": "0x95036f",
          "blockTimestamp": "0x69b8e1be",
          "transactionHash": "0x5e2b104063b21791403ca4083b0b307939580006e8ec76d60dfc3010137ade4d",
          "transactionIndex": "0x0",
          "logIndex": "0x0",
          "removed": false
        },
        {
          "address": "0x20c0000000000000000000000000000000000000",
          "topics": [
            "0xddf252ad1be2c89b69c2b068fc378daa952ba7f163c4a11628f55a4df523b3ef",
            "0x00000000000000000000000054f9b12743a7deec0ea48721683cbebedc6e17bc",
            "0x000000000000000000000000feec000000000000000000000000000000000000"
          ],
          "data": "0x00000000000000000000000000000000000000000000000000000000000051b4",
          "blockHash": "0xa73c22a587f932c7368d15ffef78f38bbbc435e43bbaea5a4f0fdf3cec6b6c3b",
          "blockNumber": "0x95036f",
          "blockTimestamp": "0x69b8e1be",
          "transactionHash": "0x5e2b104063b21791403ca4083b0b307939580006e8ec76d60dfc3010137ade4d",
          "transactionIndex": "0x0",
          "logIndex": "0x1",
          "removed": false
        }
      ],
      "logsBloom": "0x000000044000000000000000000000000000000000000000000000000000000000000000000000000000000001000000000000000000000000000000000000000000040000000000000000080000000000000000000000000100000004000000000000000000000000000000000000000000040000000000000000100008000000000000000000000008000000a0008000000000800000000000000000000000000020000000000000000040000000000000000000000000001000000000000000010002000000000000000000000000000000000000000100002000000000000000000000000000000000000000000000000400000002000000000000000000",
      "transactionHash": "0x5e2b104063b21791403ca4083b0b307939580006e8ec76d60dfc3010137ade4d",
      "transactionIndex": "0x0",
      "blockHash": "0xa73c22a587f932c7368d15ffef78f38bbbc435e43bbaea5a4f0fdf3cec6b6c3b",
      "blockNumber": "0x95036f",
      "gasUsed": "0xff4f9",
      "effectiveGasPrice": "0x4a817c801",
      "from": "0x54f9b12743a7deec0ea48721683cbebedc6e17bc",
      "to": "0x0000006d38568b00b457580b734e0076c62de659",
      "contractAddress": null,
      "feeToken": "0x20c0000000000000000000000000000000000000",
      "feePayer": "0x54f9b12743a7deec0ea48721683cbebedc6e17bc"
    },
    {
      "type": "0x2",
      "status": "0x1",
      "cumulativeGasUsed": "0xc2f59",
      "logs": [
        {
          "address": "0x0000006d38568b00b457580b734e0076c62de659",
          "topics": [
            "0x2f8788117e7eff1d82e926ec794901d17c78024a50270940304540a733656f0d",
            "0x65d7a28e3265b37a6474929f336521b332c1681b933f6cb9f3376673440d862a",
            "0x00000000000000000000000017e06ce6914e3969f7bd37d8b2a563890ca1c96e",
            "0x00000000000000000000000054f9b12743a7deec0ea48721683cbebedc6e17bc"
          ],
          "data": "0x",
          "blockHash": "0x5a4953b83bb25e4c282dad20801a681967260b1c02c8c971877eb451893eb4f9",
          "blockNumber": "0x950373",
          "blockTimestamp": "0x69b8e1c0",
          "transactionHash": "0x9faa45aba258b84f8714ab466439827583a2ef5246c5b08053fb760ece7383a2",
          "transactionIndex": "0x0",
          "logIndex": "0x0",
          "removed": false
        },
        {
          "address": "0x20c0000000000000000000000000000000000000",
          "topics": [
            "0xddf252ad1be2c89b69c2b068fc378daa952ba7f163c4a11628f55a4df523b3ef",
            "0x00000000000000000000000054f9b12743a7deec0ea48721683cbebedc6e17bc",
            "0x000000000000000000000000feec000000000000000000000000000000000000"
          ],
          "data": "0x0000000000000000000000000000000000000000000000000000000000003e64",
          "blockHash": "0x5a4953b83bb25e4c282dad20801a681967260b1c02c8c971877eb451893eb4f9",
          "blockNumber": "0x950373",
          "blockTimestamp": "0x69b8e1c0",
          "transactionHash": "0x9faa45aba258b84f8714ab466439827583a2ef5246c5b08053fb760ece7383a2",
          "transactionIndex": "0x0",
          "logIndex": "0x1",
          "removed": false
        }
      ],
      "logsBloom": "0x000000044000000000000000000000000000000000000000000000000000000000000040000000000000000001000000000000000000000000000000000000000000040000000000000000080000000000000000000000000100000004000000000000000000000000000000000000000000000000000000000000100008000000000000000000000008000000a0008000000000800000000000000000000000000020000000040000000040000000000000000000000000081000000000000000000002000000000000000000000000000000000000000100002000000000000000000000000000000000000000000000000400000000000000000000000000",
      "transactionHash": "0x9faa45aba258b84f8714ab466439827583a2ef5246c5b08053fb760ece7383a2",
      "transactionIndex": "0x0",
      "blockHash": "0x5a4953b83bb25e4c282dad20801a681967260b1c02c8c971877eb451893eb4f9",
      "blockNumber": "0x950373",
      "gasUsed": "0xc2f59",
      "effectiveGasPrice": "0x4a817c801",
      "from": "0x54f9b12743a7deec0ea48721683cbebedc6e17bc",
      "to": "0x0000006d38568b00b457580b734e0076c62de659",
      "contractAddress": null,
      "feeToken": "0x20c0000000000000000000000000000000000000",
      "feePayer": "0x54f9b12743a7deec0ea48721683cbebedc6e17bc"
    },
    {
      "type": "0x2",
      "status": "0x1",
      "cumulativeGasUsed": "0xc2f59",
      "logs": [
        {
          "address": "0x0000006d38568b00b457580b734e0076c62de659",
          "topics": [
            "0x2f8788117e7eff1d82e926ec794901d17c78024a50270940304540a733656f0d",
            "0x65d7a28e3265b37a6474929f336521b332c1681b933f6cb9f3376673440d862a",
            "0x0000000000000000000000008d8290d49e88d16d81c6adf6c8774ed88762274a",
            "0x00000000000000000000000054f9b12743a7deec0ea48721683cbebedc6e17bc"
          ],
          "data": "0x",
          "blockHash": "0x4fbdb293cf88346cae8c1b793410ca77a1c55ba76cf019022cb22a09be25a47a",
          "blockNumber": "0x950378",
          "blockTimestamp": "0x69b8e1c3",
          "transactionHash": "0x2fdfedba9de5089de8aee375a4cd3fcb988af457512cf3dcefa4b587f99d04c8",
          "transactionIndex": "0x0",
          "logIndex": "0x0",
          "removed": false
        },
        {
          "address": "0x20c0000000000000000000000000000000000000",
          "topics": [
            "0xddf252ad1be2c89b69c2b068fc378daa952ba7f163c4a11628f55a4df523b3ef",
            "0x00000000000000000000000054f9b12743a7deec0ea48721683cbebedc6e17bc",
            "0x000000000000000000000000feec000000000000000000000000000000000000"
          ],
          "data": "0x0000000000000000000000000000000000000000000000000000000000003e64",
          "blockHash": "0x4fbdb293cf88346cae8c1b793410ca77a1c55ba76cf019022cb22a09be25a47a",
          "blockNumber": "0x950378",
          "blockTimestamp": "0x69b8e1c3",
          "transactionHash": "0x2fdfedba9de5089de8aee375a4cd3fcb988af457512cf3dcefa4b587f99d04c8",
          "transactionIndex": "0x0",
          "logIndex": "0x1",
          "removed": false
        }
      ],
      "logsBloom": "0x000200044000000000000000000000000000004000000000000000000000000000000000000000000000000001000000000000000000000000000000000000000000040000000000000000080000000000000000000000000100000004000000000000000000000000000000000000000000000000000000000000100008000000000000000000000008000000a0008000000000800000000000000000000000000020000000000000000040000000000000000000000000001000000000000000000002000000000000000000000000000000000800000100002000000000000000000000000000000000000000000000000400000000000000000000000000",
      "transactionHash": "0x2fdfedba9de5089de8aee375a4cd3fcb988af457512cf3dcefa4b587f99d04c8",
      "transactionIndex": "0x0",
      "blockHash": "0x4fbdb293cf88346cae8c1b793410ca77a1c55ba76cf019022cb22a09be25a47a",
      "blockNumber": "0x950378",
      "gasUsed": "0xc2f59",
      "effectiveGasPrice": "0x4a817c801",
      "from": "0x54f9b12743a7deec0ea48721683cbebedc6e17bc",
      "to": "0x0000006d38568b00b457580b734e0076c62de659",
      "contractAddress": null,
      "feeToken": "0x20c0000000000000000000000000000000000000",
      "feePayer": "0x54f9b12743a7deec0ea48721683cbebedc6e17bc"
    },
    {
      "type": "0x2",
      "status": "0x1",
      "cumulativeGasUsed": "0xc2f59",
      "logs": [
        {
          "address": "0x0000006d38568b00b457580b734e0076c62de659",
          "topics": [
            "0x2f8788117e7eff1d82e926ec794901d17c78024a50270940304540a733656f0d",
            "0x65d7a28e3265b37a6474929f336521b332c1681b933f6cb9f3376673440d862a",
            "0x000000000000000000000000cbc616d595d38483e6adc45c7e426f44bf230928",
            "0x00000000000000000000000054f9b12743a7deec0ea48721683cbebedc6e17bc"
          ],
          "data": "0x",
          "blockHash": "0x5a881f3e4eff32605cc045ab486b2ff8c090a5d12c655a3a46b48b9aa019ec1d",
          "blockNumber": "0x95037b",
          "blockTimestamp": "0x69b8e1c4",
          "transactionHash": "0x5c3e82c2e7c6085bccbd45faf3305cdff05a884abb6667692af3efadb0c5ea93",
          "transactionIndex": "0x0",
          "logIndex": "0x0",
          "removed": false
        },
        {
          "address": "0x20c0000000000000000000000000000000000000",
          "topics": [
            "0xddf252ad1be2c89b69c2b068fc378daa952ba7f163c4a11628f55a4df523b3ef",
            "0x00000000000000000000000054f9b12743a7deec0ea48721683cbebedc6e17bc",
            "0x000000000000000000000000feec000000000000000000000000000000000000"
          ],
          "data": "0x0000000000000000000000000000000000000000000000000000000000003e64",
          "blockHash": "0x5a881f3e4eff32605cc045ab486b2ff8c090a5d12c655a3a46b48b9aa019ec1d",
          "blockNumber": "0x95037b",
          "blockTimestamp": "0x69b8e1c4",
          "transactionHash": "0x5c3e82c2e7c6085bccbd45faf3305cdff05a884abb6667692af3efadb0c5ea93",
          "transactionIndex": "0x0",
          "logIndex": "0x1",
          "removed": false
        }
      ],
      "logsBloom": "0x000000044000000000000000000000000000000000000000000000000000000000000000000000000000000001000000000000000000000000000000000000008000040000000000000000080000000000000000000000000100000004000000800000000000000000000000000000000000000000000000000000100008000000000000000000000008000080a0008000000000800000000000000000000000000020000000000000000040000000000000000000000000001000000000000000000002000000000000000000000000000000000000000100002000000000000000000000000000000000000000000000000400000000000000000000000000",
      "transactionHash": "0x5c3e82c2e7c6085bccbd45faf3305cdff05a884abb6667692af3efadb0c5ea93",
      "transactionIndex": "0x0",
      "blockHash": "0x5a881f3e4eff32605cc045ab486b2ff8c090a5d12c655a3a46b48b9aa019ec1d",
      "blockNumber": "0x95037b",
      "gasUsed": "0xc2f59",
      "effectiveGasPrice": "0x4a817c801",
      "from": "0x54f9b12743a7deec0ea48721683cbebedc6e17bc",
      "to": "0x0000006d38568b00b457580b734e0076c62de659",
      "contractAddress": null,
      "feeToken": "0x20c0000000000000000000000000000000000000",
      "feePayer": "0x54f9b12743a7deec0ea48721683cbebedc6e17bc"
    },
    {
      "type": "0x2",
      "status": "0x1",
      "cumulativeGasUsed": "0xc2f59",
      "logs": [
        {
          "address": "0x0000006d38568b00b457580b734e0076c62de659",
          "topics": [
            "0x2f8788117e7eff1d82e926ec794901d17c78024a50270940304540a733656f0d",
            "0x65d7a28e3265b37a6474929f336521b332c1681b933f6cb9f3376673440d862a",
            "0x000000000000000000000000381e2495e683868f693aa5b1414f712f21d34b40",
            "0x00000000000000000000000054f9b12743a7deec0ea48721683cbebedc6e17bc"
          ],
          "data": "0x",
          "blockHash": "0xeba81e4c30a3d8bd1f0337a3bb61baccfcfc707801676efae0da413a9429af58",
          "blockNumber": "0x95037f",
          "blockTimestamp": "0x69b8e1c6",
          "transactionHash": "0x8576008947ef0ab33bc96346f16ed99cc4ea18196927b4aeddfd2741cb3f16e4",
          "transactionIndex": "0x0",
          "logIndex": "0x0",
          "removed": false
        },
        {
          "address": "0x20c0000000000000000000000000000000000000",
          "topics": [
            "0xddf252ad1be2c89b69c2b068fc378daa952ba7f163c4a11628f55a4df523b3ef",
            "0x00000000000000000000000054f9b12743a7deec0ea48721683cbebedc6e17bc",
            "0x000000000000000000000000feec000000000000000000000000000000000000"
          ],
          "data": "0x0000000000000000000000000000000000000000000000000000000000003e64",
          "blockHash": "0xeba81e4c30a3d8bd1f0337a3bb61baccfcfc707801676efae0da413a9429af58",
          "blockNumber": "0x95037f",
          "blockTimestamp": "0x69b8e1c6",
          "transactionHash": "0x8576008947ef0ab33bc96346f16ed99cc4ea18196927b4aeddfd2741cb3f16e4",
          "transactionIndex": "0x0",
          "logIndex": "0x1",
          "removed": false
        }
      ],
      "logsBloom": "0x000000044200000000000000000000000000000000000000000000000000000000000000000000000000000001000000000000000000000000000000000000000000140000000000000000080000000000000000000000000100000004000000000000000000000000000000000000000000000000000000000000100008000000000000000000000008000000a0008080000000800000000000000000000000000020000000000000000040000000000000000000000000001000000000000000000002000000000000000000000000000000000000000100002000000000000000000000000000000000000000000000000400000000000000000000000000",
      "transactionHash": "0x8576008947ef0ab33bc96346f16ed99cc4ea18196927b4aeddfd2741cb3f16e4",
      "transactionIndex": "0x0",
      "blockHash": "0xeba81e4c30a3d8bd1f0337a3bb61baccfcfc707801676efae0da413a9429af58",
      "blockNumber": "0x95037f",
      "gasUsed": "0xc2f59",
      "effectiveGasPrice": "0x4a817c801",
      "from": "0x54f9b12743a7deec0ea48721683cbebedc6e17bc",
      "to": "0x0000006d38568b00b457580b734e0076c62de659",
      "contractAddress": null,
      "feeToken": "0x20c0000000000000000000000000000000000000",
      "feePayer": "0x54f9b12743a7deec0ea48721683cbebedc6e17bc"
    },
    {
      "type": "0x2",
      "status": "0x1",
      "cumulativeGasUsed": "0xc2f59",
      "logs": [
        {
          "address": "0x0000006d38568b00b457580b734e0076c62de659",
          "topics": [
            "0x2f8788117e7eff1d82e926ec794901d17c78024a50270940304540a733656f0d",
            "0x65d7a28e3265b37a6474929f336521b332c1681b933f6cb9f3376673440d862a",
            "0x0000000000000000000000006e74053a3798e0fc9a9775f7995316b27f21c4d2",
            "0x00000000000000000000000054f9b12743a7deec0ea48721683cbebedc6e17bc"
          ],
          "data": "0x",
          "blockHash": "0xbf95f622d42ae1dc2ef2210116faecc006573b3ff88bf5987ba6efcb75ac43a2",
          "blockNumber": "0x950383",
          "blockTimestamp": "0x69b8e1c8",
          "transactionHash": "0x305b5db4e7b2958407de519c2ecd880476d283c96960ca9afd2ca94494d621c4",
          "transactionIndex": "0x0",
          "logIndex": "0x0",
          "removed": false
        },
        {
          "address": "0x20c0000000000000000000000000000000000000",
          "topics": [
            "0xddf252ad1be2c89b69c2b068fc378daa952ba7f163c4a11628f55a4df523b3ef",
            "0x00000000000000000000000054f9b12743a7deec0ea48721683cbebedc6e17bc",
            "0x000000000000000000000000feec000000000000000000000000000000000000"
          ],
          "data": "0x0000000000000000000000000000000000000000000000000000000000003e64",
          "blockHash": "0xbf95f622d42ae1dc2ef2210116faecc006573b3ff88bf5987ba6efcb75ac43a2",
          "blockNumber": "0x950383",
          "blockTimestamp": "0x69b8e1c8",
          "transactionHash": "0x305b5db4e7b2958407de519c2ecd880476d283c96960ca9afd2ca94494d621c4",
          "transactionIndex": "0x0",
          "logIndex": "0x1",
          "removed": false
        }
      ],
      "logsBloom": "0x000000044000000000000000000000000000000000000000000000000000000000000000000000000000000001000000000000000000000000000000000000000000040000000000000000080000000000000000000000000100000004000000000000000000200000000000000000000000000000000000000000100008000000000000000000000008000000a0008000000000800010000000000000000000000020000000000000000040000000000000000000000000001000000000000000000002000000000000000000000000000000000000000100002000000000000000000000000000000000000000000000000400800000000000000000000000",
      "transactionHash": "0x305b5db4e7b2958407de519c2ecd880476d283c96960ca9afd2ca94494d621c4",
      "transactionIndex": "0x0",
      "blockHash": "0xbf95f622d42ae1dc2ef2210116faecc006573b3ff88bf5987ba6efcb75ac43a2",
      "blockNumber": "0x950383",
      "gasUsed": "0xc2f59",
      "effectiveGasPrice": "0x4a817c801",
      "from": "0x54f9b12743a7deec0ea48721683cbebedc6e17bc",
      "to": "0x0000006d38568b00b457580b734e0076c62de659",
      "contractAddress": null,
      "feeToken": "0x20c0000000000000000000000000000000000000",
      "feePayer": "0x54f9b12743a7deec0ea48721683cbebedc6e17bc"
    },
    {
      "type": "0x2",
      "status": "0x1",
      "cumulativeGasUsed": "0xc2f59",
      "logs": [
        {
          "address": "0x0000006d38568b00b457580b734e0076c62de659",
          "topics": [
            "0x2f8788117e7eff1d82e926ec794901d17c78024a50270940304540a733656f0d",
            "0x65d7a28e3265b37a6474929f336521b332c1681b933f6cb9f3376673440d862a",
            "0x000000000000000000000000c6ef452b0de9e95ccb153c2a5a7a90154aab3419",
            "0x00000000000000000000000054f9b12743a7deec0ea48721683cbebedc6e17bc"
          ],
          "data": "0x",
          "blockHash": "0x957722a78adf4bfa68e4de7ec7e9ce4a001810873e4361edbb8a492562a5af90",
          "blockNumber": "0x950387",
          "blockTimestamp": "0x69b8e1ca",
          "transactionHash": "0x8587d6a818c8576cdf7e0469edde46a97dd89a322aa4dc3683df60c2854b9c0d",
          "transactionIndex": "0x0",
          "logIndex": "0x0",
          "removed": false
        },
        {
          "address": "0x20c0000000000000000000000000000000000000",
          "topics": [
            "0xddf252ad1be2c89b69c2b068fc378daa952ba7f163c4a11628f55a4df523b3ef",
            "0x00000000000000000000000054f9b12743a7deec0ea48721683cbebedc6e17bc",
            "0x000000000000000000000000feec000000000000000000000000000000000000"
          ],
          "data": "0x0000000000000000000000000000000000000000000000000000000000003e64",
          "blockHash": "0x957722a78adf4bfa68e4de7ec7e9ce4a001810873e4361edbb8a492562a5af90",
          "blockNumber": "0x950387",
          "blockTimestamp": "0x69b8e1ca",
          "transactionHash": "0x8587d6a818c8576cdf7e0469edde46a97dd89a322aa4dc3683df60c2854b9c0d",
          "transactionIndex": "0x0",
          "logIndex": "0x1",
          "removed": false
        }
      ],
      "logsBloom": "0x000000044000000000000000000000000000000000000000000000000000000000000000000000000000000001000000000000000000000000000000000000000000040000001000000000080000000000000000000000000100000004000000000000000000000080000000000000000000000000000000000000100008000000000000000000000008000000a0008000000000800000000000000000000000000020000000000000000040000000000000000000000000001000000000000000000002000000000000000000000000000000000000000100002000000000000000000000000080000000000000000000000400000000000000000000000000",
      "transactionHash": "0x8587d6a818c8576cdf7e0469edde46a97dd89a322aa4dc3683df60c2854b9c0d",
      "transactionIndex": "0x0",
      "blockHash": "0x957722a78adf4bfa68e4de7ec7e9ce4a001810873e4361edbb8a492562a5af90",
      "blockNumber": "0x950387",
      "gasUsed": "0xc2f59",
      "effectiveGasPrice": "0x4a817c801",
      "from": "0x54f9b12743a7deec0ea48721683cbebedc6e17bc",
      "to": "0x0000006d38568b00b457580b734e0076c62de659",
      "contractAddress": null,
      "feeToken": "0x20c0000000000000000000000000000000000000",
      "feePayer": "0x54f9b12743a7deec0ea48721683cbebedc6e17bc"
    },
    {
      "type": "0x2",
      "status": "0x1",
      "cumulativeGasUsed": "0xc2dd9",
      "logs": [
        {
          "address": "0x0000006d38568b00b457580b734e0076c62de659",
          "topics": [
            "0x2f8788117e7eff1d82e926ec794901d17c78024a50270940304540a733656f0d",
            "0x0000000000000000000000000000000000000000000000000000000000000000",
            "0x0000000000000000000000001ba19a54a01ae967f5e3895764caaa6919fd2bee",
            "0x00000000000000000000000054f9b12743a7deec0ea48721683cbebedc6e17bc"
          ],
          "data": "0x",
          "blockHash": "0xf12f68ef497ae1e8d14a3fbd878edaa4b4b768f5982f4d6c8e14ab6cb7b2caa8",
          "blockNumber": "0x95038b",
          "blockTimestamp": "0x69b8e1cc",
          "transactionHash": "0xb3740793b9eadef206df491cc33398d9881c627914eb3cacfd03a14b440673af",
          "transactionIndex": "0x0",
          "logIndex": "0x0",
          "removed": false
        },
        {
          "address": "0x20c0000000000000000000000000000000000000",
          "topics": [
            "0xddf252ad1be2c89b69c2b068fc378daa952ba7f163c4a11628f55a4df523b3ef",
            "0x00000000000000000000000054f9b12743a7deec0ea48721683cbebedc6e17bc",
            "0x000000000000000000000000feec000000000000000000000000000000000000"
          ],
          "data": "0x0000000000000000000000000000000000000000000000000000000000003e5c",
          "blockHash": "0xf12f68ef497ae1e8d14a3fbd878edaa4b4b768f5982f4d6c8e14ab6cb7b2caa8",
          "blockNumber": "0x95038b",
          "blockTimestamp": "0x69b8e1cc",
          "transactionHash": "0xb3740793b9eadef206df491cc33398d9881c627914eb3cacfd03a14b440673af",
          "transactionIndex": "0x0",
          "logIndex": "0x1",
          "removed": false
        }
      ],
      "logsBloom": "0x000000044000000000000000000000000000000000000000000000000000000000000000000000000000000001000000000000000000000000000100000000000000040000000000000000080000000000400000000000000100000004000000000000000200000000000000000008000000000000000000000000100008000000000000000000000008000000a00000000000008000000000000000000000000000200000000000000000c0000000000000000000000000001000000000000000000002000000000000000000000000000000000000000100000000000020000000000000000000000000000000000000000000000000000000000000000000",
      "transactionHash": "0xb3740793b9eadef206df491cc33398d9881c627914eb3cacfd03a14b440673af",
      "transactionIndex": "0x0",
      "blockHash": "0xf12f68ef497ae1e8d14a3fbd878edaa4b4b768f5982f4d6c8e14ab6cb7b2caa8",
      "blockNumber": "0x95038b",
      "gasUsed": "0xc2dd9",
      "effectiveGasPrice": "0x4a817c801",
      "from": "0x54f9b12743a7deec0ea48721683cbebedc6e17bc",
      "to": "0x0000006d38568b00b457580b734e0076c62de659",
      "contractAddress": null,
      "feeToken": "0x20c0000000000000000000000000000000000000",
      "feePayer": "0x54f9b12743a7deec0ea48721683cbebedc6e17bc"
    },
    {
      "type": "0x2",
      "status": "0x1",
      "cumulativeGasUsed": "0xc2dd9",
      "logs": [
        {
          "address": "0x0000006d38568b00b457580b734e0076c62de659",
          "topics": [
            "0x2f8788117e7eff1d82e926ec794901d17c78024a50270940304540a733656f0d",
            "0x0000000000000000000000000000000000000000000000000000000000000000",
            "0x000000000000000000000000f866bb647cb051f17c2cd1fbe71edf17df5c5d50",
            "0x00000000000000000000000054f9b12743a7deec0ea48721683cbebedc6e17bc"
          ],
          "data": "0x",
          "blockHash": "0x4314f65d85ab069479a3d82fa085023a4406cf6af127e1f718ce24e0264f9ac1",
          "blockNumber": "0x95038f",
          "blockTimestamp": "0x69b8e1ce",
          "transactionHash": "0x99309edf7ced8d9ed761fee96064d13f738dec0b713aaa8a194aa8966443cf08",
          "transactionIndex": "0x0",
          "logIndex": "0x0",
          "removed": false
        },
        {
          "address": "0x20c0000000000000000000000000000000000000",
          "topics": [
            "0xddf252ad1be2c89b69c2b068fc378daa952ba7f163c4a11628f55a4df523b3ef",
            "0x00000000000000000000000054f9b12743a7deec0ea48721683cbebedc6e17bc",
            "0x000000000000000000000000feec000000000000000000000000000000000000"
          ],
          "data": "0x0000000000000000000000000000000000000000000000000000000000003e5c",
          "blockHash": "0x4314f65d85ab069479a3d82fa085023a4406cf6af127e1f718ce24e0264f9ac1",
          "blockNumber": "0x95038f",
          "blockTimestamp": "0x69b8e1ce",
          "transactionHash": "0x99309edf7ced8d9ed761fee96064d13f738dec0b713aaa8a194aa8966443cf08",
          "transactionIndex": "0x0",
          "logIndex": "0x1",
          "removed": false
        }
      ],
      "logsBloom": "0x000000044000000000000000000000000000000000000000000000000000000000000000000000000000000001000000000000000000000000100000000000000000040000000000000000080000000000000000000000000100000004000000000000000200800000000000000008000000000000000000000000100008000000000000000000000008000000a0000000000000800000000000000000000000000020000000000000000040000000000000000010000000001000000000000000000002000000000000000000000000000000000000000100000000000020000000000000000000000000000000000000000000000000000000000000000000",
      "transactionHash": "0x99309edf7ced8d9ed761fee96064d13f738dec0b713aaa8a194aa8966443cf08",
      "transactionIndex": "0x0",
      "blockHash": "0x4314f65d85ab069479a3d82fa085023a4406cf6af127e1f718ce24e0264f9ac1",
      "blockNumber": "0x95038f",
      "gasUsed": "0xc2dd9",
      "effectiveGasPrice": "0x4a817c801",
      "from": "0x54f9b12743a7deec0ea48721683cbebedc6e17bc",
      "to": "0x0000006d38568b00b457580b734e0076c62de659",
      "contractAddress": null,
      "feeToken": "0x20c0000000000000000000000000000000000000",
      "feePayer": "0x54f9b12743a7deec0ea48721683cbebedc6e17bc"
    },
    {
      "type": "0x2",
      "status": "0x1",
      "cumulativeGasUsed": "0xc4f6",
      "logs": [
        {
          "address": "0x0000006d38568b00b457580b734e0076c62de659",
          "topics": [
            "0xf6391f5c32d9c69d2a47ea670b442974b53935d1edc7fd64eb21e047a839171b",
            "0x0000000000000000000000000000000000000000000000000000000000000000",
            "0x00000000000000000000000054f9b12743a7deec0ea48721683cbebedc6e17bc",
            "0x00000000000000000000000054f9b12743a7deec0ea48721683cbebedc6e17bc"
          ],
          "data": "0x",
          "blockHash": "0x5185f244cd1eee9ba8738c14c32b2c26fa8c75ffb4b5126d183e24f9fb46bb10",
          "blockNumber": "0x950392",
          "blockTimestamp": "0x69b8e1d0",
          "transactionHash": "0x44cb98f9d5d1cc2bfab5ef1df0c9b51ac305601224cb2a6762c0591bda9892fb",
          "transactionIndex": "0x0",
          "logIndex": "0x0",
          "removed": false
        },
        {
          "address": "0x20c0000000000000000000000000000000000000",
          "topics": [
            "0xddf252ad1be2c89b69c2b068fc378daa952ba7f163c4a11628f55a4df523b3ef",
            "0x00000000000000000000000054f9b12743a7deec0ea48721683cbebedc6e17bc",
            "0x000000000000000000000000feec000000000000000000000000000000000000"
          ],
          "data": "0x00000000000000000000000000000000000000000000000000000000000003f1",
          "blockHash": "0x5185f244cd1eee9ba8738c14c32b2c26fa8c75ffb4b5126d183e24f9fb46bb10",
          "blockNumber": "0x950392",
          "blockTimestamp": "0x69b8e1d0",
          "transactionHash": "0x44cb98f9d5d1cc2bfab5ef1df0c9b51ac305601224cb2a6762c0591bda9892fb",
          "transactionIndex": "0x0",
          "logIndex": "0x1",
          "removed": false
        }
      ],
      "logsBloom": "0x000000004000000000000000000000000000000000000000000000000000000000000000000000000000000001000000002000000000000000000000000000000000040000000000000000080000000000000000000000000100000004000000400000000200000000000000000008000000000000000000000000100008000000000000400000000008000000a0000000000000800000000000000000000000000020000000000000000040000000000000000000000000000000000000000000000002000000000000000000000000000000000000000000000000000020000000000000000000000000000000000000000000000000000000000000000000",
      "transactionHash": "0x44cb98f9d5d1cc2bfab5ef1df0c9b51ac305601224cb2a6762c0591bda9892fb",
      "transactionIndex": "0x0",
      "blockHash": "0x5185f244cd1eee9ba8738c14c32b2c26fa8c75ffb4b5126d183e24f9fb46bb10",
      "blockNumber": "0x950392",
      "gasUsed": "0xc4f6",
      "effectiveGasPrice": "0x4a817c801",
      "from": "0x54f9b12743a7deec0ea48721683cbebedc6e17bc",
      "to": "0x0000006d38568b00b457580b734e0076c62de659",
      "contractAddress": null,
      "feeToken": "0x20c0000000000000000000000000000000000000",
      "feePayer": "0x54f9b12743a7deec0ea48721683cbebedc6e17bc"
    }
  ],
  "libraries": [],
  "pending": [],
  "returns": {},
  "timestamp": 1773724161723,
  "chain": 4217,
  "commit": "4a244e3"
}