{
  "transactions": [
    {
      "hash": "0x4cec194150dbf0a6ce91dcaba9aeb1974dba320e05dfb4dccd25c513600ac67f",
      "transactionType": "CALL",
      "contractName": null,
      "contractAddress": "0x0000006d38568b00b457580b734e0076c62de659",
      "function": "upgradeToAndCall(address,bytes)",
      "arguments": [
        "0x0000000087ED0dD8b999aE6C7c30f95e9707a3C6",
        "0xdf1cf4a100000000000000000000000000000000000000000000000000000000000076480000000000000000000000001a44076050125825900e736c501f859c50fe728c00000000000000000000000000000000e18afc20afe54d4b2c8688bb60c06b360000000000000000000000000000000000000000000000000000000000000003000000000000000000000000c097ab8cd7b053326dfe9fb3e3a31a0cce3b526f0000000000000000000000006788f52439aca6bff597d3eec2dc9a44b8fee8420000000000000000000000004514fc667a944752ee8a29f544c1b20b1a315f250000000000000000000000000000000000000000000000000000000000000100000000000000000000000000000000000000000000000000000000000000000600000000000000000000000080eede496655fb9047dd39d9f418d5483ed600df0000000000000000000000005bff88ca1442c2496f7e475e9e7786383bc070c000000000000000000000000043edd7f3831b08fe70b7555ddd373c8bf65a90500000000000000000000000003ec3849c33291a9ef4c5db86de593eb4a37fde4500000000000000000000000064445f0aecc51e94ad52d8ac56b7190e764e561a00000000000000000000000090581eca9469d8d7f5d3b60f4715027adfcf7927"
      ],
      "transaction": {
        "from": "0x54f9b12743a7deec0ea48721683cbebedc6e17bc",
        "to": "0x0000006d38568b00b457580b734e0076c62de659",
        "gas": "0x1cdc08",
        "value": "0x0",
        "input": "0x4f1ef2860000000000000000000000000000000087ed0dd8b999ae6c7c30f95e9707a3c6000000000000000000000000000000000000000000000000000000000000004000000000000000000000000000000000000000000000000000000000000001e4df1cf4a100000000000000000000000000000000000000000000000000000000000076480000000000000000000000001a44076050125825900e736c501f859c50fe728c00000000000000000000000000000000e18afc20afe54d4b2c8688bb60c06b360000000000000000000000000000000000000000000000000000000000000003000000000000000000000000c097ab8cd7b053326dfe9fb3e3a31a0cce3b526f0000000000000000000000006788f52439aca6bff597d3eec2dc9a44b8fee8420000000000000000000000004514fc667a944752ee8a29f544c1b20b1a315f250000000000000000000000000000000000000000000000000000000000000100000000000000000000000000000000000000000000000000000000000000000600000000000000000000000080eede496655fb9047dd39d9f418d5483ed600df0000000000000000000000005bff88ca1442c2496f7e475e9e7786383bc070c000000000000000000000000043edd7f3831b08fe70b7555ddd373c8bf65a90500000000000000000000000003ec3849c33291a9ef4c5db86de593eb4a37fde4500000000000000000000000064445f0aecc51e94ad52d8ac56b7190e764e561a00000000000000000000000090581eca9469d8d7f5d3b60f4715027adfcf792700000000000000000000000000000000000000000000000000000000",
        "nonce": "0x12",
        "chainId": "0x531"
      },
      "additionalContracts": [],
      "isFixedGasLimit": false
    },
    {
      "hash": "0x6abbde82ef523012ff36fb09865dcf13ae7795ad428e56a7c099678a7b984b14",
      "transactionType": "CALL",
      "contractName": null,
      "contractAddress": "0x0000006d38568b00b457580b734e0076c62de659",
      "function": "changeAdmin(address)",
      "arguments": [
        "0x223a681fc5c5522c85C96157c0efA18cd6c5405c"
      ],
      "transaction": {
        "from": "0x54f9b12743a7deec0ea48721683cbebedc6e17bc",
        "to": "0x0000006d38568b00b457580b734e0076c62de659",
        "gas": "0x1d370",
        "value": "0x0",
        "input": "0x8f283970000000000000000000000000223a681fc5c5522c85c96157c0efa18cd6c5405c",
        "nonce": "0x13",
        "chainId": "0x531"
      },
      "additionalContracts": [],
      "isFixedGasLimit": false
    },
    {
      "hash": "0x943bfb9a4fa176923cbd2231315d53abeaf49b31d5e76c23603db76f4ab1a286",
      "transactionType": "CALL",
      "contractName": null,
      "contractAddress": "0x0000006d38568b00b457580b734e0076c62de659",
      "function": "setExecutorOptions(uint32,bytes)",
      "arguments": [
        "30168",
        "0x0100210100000000000000000000000000030d40000000000000000000000000002dc6c0"
      ],
      "transaction": {
        "from": "0x54f9b12743a7deec0ea48721683cbebedc6e17bc",
        "to": "0x0000006d38568b00b457580b734e0076c62de659",
        "gas": "0x668dc",
        "value": "0x0",
        "input": "0x5135db4600000000000000000000000000000000000000000000000000000000000075d8000000000000000000000000000000000000000000000000000000000000004000000000000000000000000000000000000000000000000000000000000000240100210100000000000000000000000000030d40000000000000000000000000002dc6c000000000000000000000000000000000000000000000000000000000",
        "nonce": "0x14",
        "chainId": "0x531"
      },
      "additionalContracts": [],
      "isFixedGasLimit": false
    },
    {
      "hash": "0xe0f067205e37425aa6c9c8e8a11e8d1a0600be34c72b90317a1ae1d40a6f9e48",
      "transactionType": "CALL",
      "contractName": null,
      "contractAddress": "0x0000006d38568b00b457580b734e0076c62de659",
      "function": "grantRole(bytes32,address)",
      "arguments": [
        "0x65d7a28e3265b37a6474929f336521b332c1681b933f6cb9f3376673440d862a",
        "0x54C5Ef136D02b95C4Ff217aF93FA63F9E4119919"
      ],
      "transaction": {
        "from": "0x54f9b12743a7deec0ea48721683cbebedc6e17bc",
        "to": "0x0000006d38568b00b457580b734e0076c62de659",
        "gas": "0x8981c",
        "value": "0x0",
        "input": "0x2f2ff15d65d7a28e3265b37a6474929f336521b332c1681b933f6cb9f3376673440d862a00000000000000000000000054c5ef136d02b95c4ff217af93fa63f9e4119919",
        "nonce": "0x15",
        "chainId": "0x531"
      },
      "additionalContracts": [],
      "isFixedGasLimit": false
    },
    {
      "hash": "0x384586002c84b66df38b20d1e7433e1b6aeaf882cfa713a073228b5fc92e1ff2",
      "transactionType": "CALL",
      "contractName": null,
      "contractAddress": "0x0000006d38568b00b457580b734e0076c62de659",
      "function": "grantRole(bytes32,address)",
      "arguments": [
        "0x65d7a28e3265b37a6474929f336521b332c1681b933f6cb9f3376673440d862a",
        "0x17e06ce6914E3969f7BD37D8b2a563890cA1c96e"
      ],
      "transaction": {
        "from": "0x54f9b12743a7deec0ea48721683cbebedc6e17bc",
        "to": "0x0000006d38568b00b457580b734e0076c62de659",
        "gas": "0x701fc",
        "value": "0x0",
        "input": "0x2f2ff15d65d7a28e3265b37a6474929f336521b332c1681b933f6cb9f3376673440d862a00000000000000000000000017e06ce6914e3969f7bd37d8b2a563890ca1c96e",
        "nonce": "0x16",
        "chainId": "0x531"
      },
      "additionalContracts": [],
      "isFixedGasLimit": false
    },
    {
      "hash": "0xc91bf8121e3d028285004842fbc3f41270a4230a9795f785994b4d28e0d45e6f",
      "transactionType": "CALL",
      "contractName": null,
      "contractAddress": "0x0000006d38568b00b457580b734e0076c62de659",
      "function": "grantRole(bytes32,address)",
      "arguments": [
        "0x65d7a28e3265b37a6474929f336521b332c1681b933f6cb9f3376673440d862a",
        "0x8d8290d49e88D16d81C6aDf6C8774eD88762274A"
      ],
      "transaction": {
        "from": "0x54f9b12743a7deec0ea48721683cbebedc6e17bc",
        "to": "0x0000006d38568b00b457580b734e0076c62de659",
        "gas": "0x701fc",
        "value": "0x0",
        "input": "0x2f2ff15d65d7a28e3265b37a6474929f336521b332c1681b933f6cb9f3376673440d862a0000000000000000000000008d8290d49e88d16d81c6adf6c8774ed88762274a",
        "nonce": "0x17",
        "chainId": "0x531"
      },
      "additionalContracts": [],
      "isFixedGasLimit": false
    },
    {
      "hash": "0x5eb095c567ebbe6f22118b89ce6b80b9d671355f8db696af6e52eac4cbc73200",
      "transactionType": "CALL",
      "contractName": null,
      "contractAddress": "0x0000006d38568b00b457580b734e0076c62de659",
      "function": "grantRole(bytes32,address)",
      "arguments": [
        "0x65d7a28e3265b37a6474929f336521b332c1681b933f6cb9f3376673440d862a",
        "0xcbc616D595D38483e6AdC45C7E426f44bF230928"
      ],
      "transaction": {
        "from": "0x54f9b12743a7deec0ea48721683cbebedc6e17bc",
        "to": "0x0000006d38568b00b457580b734e0076c62de659",
        "gas": "0x701fc",
        "value": "0x0",
        "input": "0x2f2ff15d65d7a28e3265b37a6474929f336521b332c1681b933f6cb9f3376673440d862a000000000000000000000000cbc616d595d38483e6adc45c7e426f44bf230928",
        "nonce": "0x18",
        "chainId": "0x531"
      },
      "additionalContracts": [],
      "isFixedGasLimit": false
    },
    {
      "hash": "0xa0743b35b830cb626f5d29e585d4277aee6b47f0311f5e11ee90282a962be573",
      "transactionType": "CALL",
      "contractName": null,
      "contractAddress": "0x0000006d38568b00b457580b734e0076c62de659",
      "function": "grantRole(bytes32,address)",
      "arguments": [
        "0x65d7a28e3265b37a6474929f336521b332c1681b933f6cb9f3376673440d862a",
        "0x381e2495e683868F693AA5B1414F712f21d34b40"
      ],
      "transaction": {
        "from": "0x54f9b12743a7deec0ea48721683cbebedc6e17bc",
        "to": "0x0000006d38568b00b457580b734e0076c62de659",
        "gas": "0x701fc",
        "value": "0x0",
        "input": "0x2f2ff15d65d7a28e3265b37a6474929f336521b332c1681b933f6cb9f3376673440d862a000000000000000000000000381e2495e683868f693aa5b1414f712f21d34b40",
        "nonce": "0x19",
        "chainId": "0x531"
      },
      "additionalContracts": [],
      "isFixedGasLimit": false
    },
    {
      "hash": "0xbef5261ddba16c17a6c482b6a4f32eacd3c65ebd1cd238c02026d1d698421782",
      "transactionType": "CALL",
      "contractName": null,
      "contractAddress": "0x0000006d38568b00b457580b734e0076c62de659",
      "function": "grantRole(bytes32,address)",
      "arguments": [
        "0x65d7a28e3265b37a6474929f336521b332c1681b933f6cb9f3376673440d862a",
        "0x6e74053a3798e0fC9a9775F7995316b27f21c4D2"
      ],
      "transaction": {
        "from": "0x54f9b12743a7deec0ea48721683cbebedc6e17bc",
        "to": "0x0000006d38568b00b457580b734e0076c62de659",
        "gas": "0x701fc",
        "value": "0x0",
        "input": "0x2f2ff15d65d7a28e3265b37a6474929f336521b332c1681b933f6cb9f3376673440d862a0000000000000000000000006e74053a3798e0fc9a9775f7995316b27f21c4d2",
        "nonce": "0x1a",
        "chainId": "0x531"
      },
      "additionalContracts": [],
      "isFixedGasLimit": false
    },
    {
      "hash": "0x56e44dbc15bdce9c962fd79693f0d4583d394f54e09f56d0a6d2549119116df1",
      "transactionType": "CALL",
      "contractName": null,
      "contractAddress": "0x0000006d38568b00b457580b734e0076c62de659",
      "function": "grantRole(bytes32,address)",
      "arguments": [
        "0x65d7a28e3265b37a6474929f336521b332c1681b933f6cb9f3376673440d862a",
        "0xC6EF452b0de9E95Ccb153c2A5A7a90154aab3419"
      ],
      "transaction": {
        "from": "0x54f9b12743a7deec0ea48721683cbebedc6e17bc",
        "to": "0x0000006d38568b00b457580b734e0076c62de659",
        "gas": "0x701fc",
        "value": "0x0",
        "input": "0x2f2ff15d65d7a28e3265b37a6474929f336521b332c1681b933f6cb9f3376673440d862a000000000000000000000000c6ef452b0de9e95ccb153c2a5a7a90154aab3419",
        "nonce": "0x1b",
        "chainId": "0x531"
      },
      "additionalContracts": [],
      "isFixedGasLimit": false
    },
    {
      "hash": "0x41ce30520fd3829d788bcb81c3f91bb5bd1a30b070665b359142d2b17d68f141",
      "transactionType": "CALL",
      "contractName": null,
      "contractAddress": "0x0000006d38568b00b457580b734e0076c62de659",
      "function": "grantRole(bytes32,address)",
      "arguments": [
        "0x0000000000000000000000000000000000000000000000000000000000000000",
        "0x0357D02fc95320b990322d3ff69204c3D251171b"
      ],
      "transaction": {
        "from": "0x54f9b12743a7deec0ea48721683cbebedc6e17bc",
        "to": "0x0000006d38568b00b457580b734e0076c62de659",
        "gas": "0x6fb9c",
        "value": "0x0",
        "input": "0x2f2ff15d00000000000000000000000000000000000000000000000000000000000000000000000000000000000000000357d02fc95320b990322d3ff69204c3d251171b",
        "nonce": "0x1c",
        "chainId": "0x531"
      },
      "additionalContracts": [],
      "isFixedGasLimit": false
    },
    {
      "hash": "0x07c1d2f3ace6da354f5482e33d04e855bb172dbfa8356452ccff7cf4b667bab7",
      "transactionType": "CALL",
      "contractName": null,
      "contractAddress": "0x0000006d38568b00b457580b734e0076c62de659",
      "function": "grantRole(bytes32,address)",
      "arguments": [
        "0x0000000000000000000000000000000000000000000000000000000000000000",
        "0x954286118E93df807aB6f99aE0454f8710f0a8B9"
      ],
      "transaction": {
        "from": "0x54f9b12743a7deec0ea48721683cbebedc6e17bc",
        "to": "0x0000006d38568b00b457580b734e0076c62de659",
        "gas": "0x6fb9c",
        "value": "0x0",
        "input": "0x2f2ff15d0000000000000000000000000000000000000000000000000000000000000000000000000000000000000000954286118e93df807ab6f99ae0454f8710f0a8b9",
        "nonce": "0x1d",
        "chainId": "0x531"
      },
      "additionalContracts": [],
      "isFixedGasLimit": false
    },
    {
      "hash": "0x2e79813669cc8ab8d2bb361e459b65eaafc54f5d82f41597e37a77784c5f19e4",
      "transactionType": "CALL",
      "contractName": null,
      "contractAddress": "0x0000006d38568b00b457580b734e0076c62de659",
      "function": "renounceRole(bytes32,address)",
      "arguments": [
        "0x0000000000000000000000000000000000000000000000000000000000000000",
        "0x54F9b12743A7DeeC0ea48721683cbebedC6E17bC"
      ],
      "transaction": {
        "from": "0x54f9b12743a7deec0ea48721683cbebedc6e17bc",
        "to": "0x0000006d38568b00b457580b734e0076c62de659",
        "gas": "0x37444",
        "value": "0x0",
        "input": "0x36568abe000000000000000000000000000000000000000000000000000000000000000000000000000000000000000054f9b12743a7deec0ea48721683cbebedc6e17bc",
        "nonce": "0x1e",
        "chainId": "0x531"
      },
      "additionalContracts": [],
      "isFixedGasLimit": false
    }
  ],
  "receipts": [
    {
      "status": "0x1",
      "cumulativeGasUsed": "0x1d3fe7",
      "logs": [
        {
          "address": "0x0000006d38568b00b457580b734e0076c62de659",
          "topics": [
            "0xbc7cd75a20ee27fd9adebab32041f755214dbc6bffa90cc0225b39da2e5c2d3b",
            "0x0000000000000000000000000000000087ed0dd8b999ae6c7c30f95e9707a3c6"
          ],
          "data": "0x",
          "blockHash": "0xddc77d7a672c618586b97f352e4293546c556e9d0977a62ac8b1669d95fb96e3",
          "blockNumber": "0xbb79fb7",
          "transactionHash": "0x4cec194150dbf0a6ce91dcaba9aeb1974dba320e05dfb4dccd25c513600ac67f",
          "transactionIndex": "0x3",
          "logIndex": "0x8",
          "removed": false
        },
        {
          "address": "0x0000006d38568b00b457580b734e0076c62de659",
          "topics": [
            "0x2f8788117e7eff1d82e926ec794901d17c78024a50270940304540a733656f0d",
            "0x0000000000000000000000000000000000000000000000000000000000000000",
            "0x00000000000000000000000054f9b12743a7deec0ea48721683cbebedc6e17bc",
            "0x00000000000000000000000054f9b12743a7deec0ea48721683cbebedc6e17bc"
          ],
          "data": "0x",
          "blockHash": "0xddc77d7a672c618586b97f352e4293546c556e9d0977a62ac8b1669d95fb96e3",
          "blockNumber": "0xbb79fb7",
          "transactionHash": "0x4cec194150dbf0a6ce91dcaba9aeb1974dba320e05dfb4dccd25c513600ac67f",
          "transactionIndex": "0x3",
          "logIndex": "0x9",
          "removed": false
        },
        {
          "address": "0x0000006d38568b00b457580b734e0076c62de659",
          "topics": [
            "0xc7f505b2f371ae2175ee4913f4499e1f2633a7b5936321eed1cdaeb6115181d2"
          ],
          "data": "0x0000000000000000000000000000000000000000000000000000000000000001",
          "blockHash": "0xddc77d7a672c618586b97f352e4293546c556e9d0977a62ac8b1669d95fb96e3",
          "blockNumber": "0xbb79fb7",
          "transactionHash": "0x4cec194150dbf0a6ce91dcaba9aeb1974dba320e05dfb4dccd25c513600ac67f",
          "transactionIndex": "0x3",
          "logIndex": "0xa",
          "removed": false
        }
      ],
      "logsBloom": "0x00000004400000000000000000000000400000000000000000000000000000000000000000000000000000000000000000000000000000000000000100000000000000000000000000000000000002000000100000000000010000000000000000000000020000000000000000000800000000000000000000000000000800000000000000000000000800000080000000000000000080000000000000000400000000000000000000000040000000000000000000000000001000000000000000000020000000000000000000000000000000000004000100000000000020000000000000000000000000000000000000000000000000000000000000000000",
      "type": "0x2",
      "transactionHash": "0x4cec194150dbf0a6ce91dcaba9aeb1974dba320e05dfb4dccd25c513600ac67f",
      "transactionIndex": "0x3",
      "blockHash": "0xddc77d7a672c618586b97f352e4293546c556e9d0977a62ac8b1669d95fb96e3",
      "blockNumber": "0xbb79fb7",
      "gasUsed": "0x13e6e9",
      "effectiveGasPrice": "0x28fa6ae00",
      "from": "0x54f9b12743a7deec0ea48721683cbebedc6e17bc",
      "to": "0x0000006d38568b00b457580b734e0076c62de659",
      "contractAddress": null
    },
    {
      "status": "0x1",
      "cumulativeGasUsed": "0x56865",
      "logs": [
        {
          "address": "0x0000006d38568b00b457580b734e0076c62de659",
          "topics": [
            "0x7e644d79422f17c01e4894b5f4f588d331ebfa28653d42ae832dc59e38c9798f"
          ],
          "data": "0x00000000000000000000000054f9b12743a7deec0ea48721683cbebedc6e17bc000000000000000000000000223a681fc5c5522c85c96157c0efa18cd6c5405c",
          "blockHash": "0xb533d8f9faf1464febc64a0582c1b236991670158d2e9a4650044b0e42a2d745",
          "blockNumber": "0xbb79fba",
          "transactionHash": "0x6abbde82ef523012ff36fb09865dcf13ae7795ad428e56a7c099678a7b984b14",
          "transactionIndex": "0x5",
          "logIndex": "0x6",
          "removed": false
        }
      ],
      "logsBloom": "0x00000000000000000000000000000000000000000000000000000000000000000000000000000000000000000000000000000000000000000000000000000000000000000000000000000000000000000000000000000000010000000000000000000000000000000000000000000000000000800000000000000000000000000000000000000000000800000000000000000000000000000000000000800000000000000000000000000040000000000000000000000000000000000000000000000000000000000000000000000000000000000400000000000000000000000000000000000000000000000000000000000000000000000000000000000000",
      "type": "0x2",
      "transactionHash": "0x6abbde82ef523012ff36fb09865dcf13ae7795ad428e56a7c099678a7b984b14",
      "transactionIndex": "0x5",
      "blockHash": "0xb533d8f9faf1464febc64a0582c1b236991670158d2e9a4650044b0e42a2d745",
      "blockNumber": "0xbb79fba",
      "gasUsed": "0x6dfd",
      "effectiveGasPrice": "0x28fa6ae00",
      "from": "0x54f9b12743a7deec0ea48721683cbebedc6e17bc",
      "to": "0x0000006d38568b00b457580b734e0076c62de659",
      "contractAddress": null
    },
    {
      "status": "0x1",
      "cumulativeGasUsed": "0x181ac3",
      "logs": [],
      "logsBloom": "0x00000000000000000000000000000000000000000000000000000000000000000000000000000000000000000000000000000000000000000000000000000000000000000000000000000000000000000000000000000000000000000000000000000000000000000000000000000000000000000000000000000000000000000000000000000000000000000000000000000000000000000000000000000000000000000000000000000000000000000000000000000000000000000000000000000000000000000000000000000000000000000000000000000000000000000000000000000000000000000000000000000000000000000000000000000000",
      "type": "0x2",
      "transactionHash": "0x943bfb9a4fa176923cbd2231315d53abeaf49b31d5e76c23603db76f4ab1a286",
      "transactionIndex": "0x6",
      "blockHash": "0x71e7b76e3072541d93fafcbe9dbf4cd81ea2a7e20b0826e33e2369825017f497",
      "blockNumber": "0xbb79fbe",
      "gasUsed": "0x3e376",
      "effectiveGasPrice": "0x28fa6ae00",
      "from": "0x54f9b12743a7deec0ea48721683cbebedc6e17bc",
      "to": "0x0000006d38568b00b457580b734e0076c62de659",
      "contractAddress": null
    },
    {
      "status": "0x1",
      "cumulativeGasUsed": "0xf0810",
      "logs": [
        {
          "address": "0x0000006d38568b00b457580b734e0076c62de659",
          "topics": [
            "0x2f8788117e7eff1d82e926ec794901d17c78024a50270940304540a733656f0d",
            "0x65d7a28e3265b37a6474929f336521b332c1681b933f6cb9f3376673440d862a",
            "0x00000000000000000000000054c5ef136d02b95c4ff217af93fa63f9e4119919",
            "0x00000000000000000000000054f9b12743a7deec0ea48721683cbebedc6e17bc"
          ],
          "data": "0x",
          "blockHash": "0xb00ae43207b59f1a37e9b7c3bd4cc9c9e54289c8e414423e42839eb45f353bc7",
          "blockNumber": "0xbb79fc2",
          "transactionHash": "0xe0f067205e37425aa6c9c8e8a11e8d1a0600be34c72b90317a1ae1d40a6f9e48",
          "transactionIndex": "0xa",
          "logIndex": "0xa",
          "removed": false
        }
      ],
      "logsBloom": "0x00000004400000000000000000000000000000000000000000000000000000000000000000000000000000000000000000000000000000000000000000000000000000000000000000000000000000000000000000000000010000000000000000000000000000000000000000000000000004000000000000000000000800000000000000000000000800000080008000000000000000000000000000000000000000000000000000000040000000000000000000000000001000000000000000010000000000000000000000000000000000000000000100002000000000000000000000000000000000000000000000000400000002000000000000000000",
      "type": "0x2",
      "transactionHash": "0xe0f067205e37425aa6c9c8e8a11e8d1a0600be34c72b90317a1ae1d40a6f9e48",
      "transactionIndex": "0xa",
      "blockHash": "0xb00ae43207b59f1a37e9b7c3bd4cc9c9e54289c8e414423e42839eb45f353bc7",
      "blockNumber": "0xbb79fc2",
      "gasUsed": "0x5156a",
      "effectiveGasPrice": "0x28fa6ae00",
      "from": "0x54f9b12743a7deec0ea48721683cbebedc6e17bc",
      "to": "0x0000006d38568b00b457580b734e0076c62de659",
      "contractAddress": null
    },
    {
      "status": "0x1",
      "cumulativeGasUsed": "0x324b2f",
      "logs": [
        {
          "address": "0x0000006d38568b00b457580b734e0076c62de659",
          "topics": [
            "0x2f8788117e7eff1d82e926ec794901d17c78024a50270940304540a733656f0d",
            "0x65d7a28e3265b37a6474929f336521b332c1681b933f6cb9f3376673440d862a",
            "0x00000000000000000000000017e06ce6914e3969f7bd37d8b2a563890ca1c96e",
            "0x00000000000000000000000054f9b12743a7deec0ea48721683cbebedc6e17bc"
          ],
          "data": "0x",
          "blockHash": "0xe6b63181d7be94146b9377de9c94aea87f0c0a260d74f4ac4835abbb68d68d9c",
          "blockNumber": "0xbb79fc6",
          "transactionHash": "0x384586002c84b66df38b20d1e7433e1b6aeaf882cfa713a073228b5fc92e1ff2",
          "transactionIndex": "0x13",
          "logIndex": "0x36",
          "removed": false
        }
      ],
      "logsBloom": "0x00000004400000000000000000000000000000000000000000000000000000000000004000000000000000000000000000000000000000000000000000000000000000000000000000000000000000000000000000000000010000000000000000000000000000000000000000000000000000000000000000000000000800000000000000000000000800000080008000000000000000000000000000000000000000000000040000000040000000000000000000000000081000000000000000000000000000000000000000000000000000000000000100002000000000000000000000000000000000000000000000000400000000000000000000000000",
      "type": "0x2",
      "transactionHash": "0x384586002c84b66df38b20d1e7433e1b6aeaf882cfa713a073228b5fc92e1ff2",
      "transactionIndex": "0x13",
      "blockHash": "0xe6b63181d7be94146b9377de9c94aea87f0c0a260d74f4ac4835abbb68d68d9c",
      "blockNumber": "0xbb79fc6",
      "gasUsed": "0x4077e",
      "effectiveGasPrice": "0x28fa6ae00",
      "from": "0x54f9b12743a7deec0ea48721683cbebedc6e17bc",
      "to": "0x0000006d38568b00b457580b734e0076c62de659",
      "contractAddress": null
    },
    {
      "status": "0x1",
      "cumulativeGasUsed": "0x2c6686",
      "logs": [
        {
          "address": "0x0000006d38568b00b457580b734e0076c62de659",
          "topics": [
            "0x2f8788117e7eff1d82e926ec794901d17c78024a50270940304540a733656f0d",
            "0x65d7a28e3265b37a6474929f336521b332c1681b933f6cb9f3376673440d862a",
            "0x0000000000000000000000008d8290d49e88d16d81c6adf6c8774ed88762274a",
            "0x00000000000000000000000054f9b12743a7deec0ea48721683cbebedc6e17bc"
          ],
          "data": "0x",
          "blockHash": "0xc5f72405f16587107374899fc6dcf6f1e2c885aab415c572a4f70a091f2b46e6",
          "blockNumber": "0xbb79fc9",
          "transactionHash": "0xc91bf8121e3d028285004842fbc3f41270a4230a9795f785994b4d28e0d45e6f",
          "transactionIndex": "0x13",
          "logIndex": "0x1a",
          "removed": false
        }
      ],
      "logsBloom": "0x00020004400000000000000000000000000000400000000000000000000000000000000000000000000000000000000000000000000000000000000000000000000000000000000000000000000000000000000000000000010000000000000000000000000000000000000000000000000000000000000000000000000800000000000000000000000800000080008000000000000000000000000000000000000000000000000000000040000000000000000000000000001000000000000000000000000000000000000000000000000000000800000100002000000000000000000000000000000000000000000000000400000000000000000000000000",
      "type": "0x2",
      "transactionHash": "0xc91bf8121e3d028285004842fbc3f41270a4230a9795f785994b4d28e0d45e6f",
      "transactionIndex": "0x13",
      "blockHash": "0xc5f72405f16587107374899fc6dcf6f1e2c885aab415c572a4f70a091f2b46e6",
      "blockNumber": "0xbb79fc9",
      "gasUsed": "0x4077e",
      "effectiveGasPrice": "0x28fa6ae00",
      "from": "0x54f9b12743a7deec0ea48721683cbebedc6e17bc",
      "to": "0x0000006d38568b00b457580b734e0076c62de659",
      "contractAddress": null
    },
    {
      "status": "0x1",
      "cumulativeGasUsed": "0x1936a3",
      "logs": [
        {
          "address": "0x0000006d38568b00b457580b734e0076c62de659",
          "topics": [
            "0x2f8788117e7eff1d82e926ec794901d17c78024a50270940304540a733656f0d",
            "0x65d7a28e3265b37a6474929f336521b332c1681b933f6cb9f3376673440d862a",
            "0x000000000000000000000000cbc616d595d38483e6adc45c7e426f44bf230928",
            "0x00000000000000000000000054f9b12743a7deec0ea48721683cbebedc6e17bc"
          ],
          "data": "0x",
          "blockHash": "0x8d79b8ba4b93265badc1769fdb5e415119cf299214648309b68374aed20d9e04",
          "blockNumber": "0xbb79fcd",
          "transactionHash": "0x5eb095c567ebbe6f22118b89ce6b80b9d671355f8db696af6e52eac4cbc73200",
          "transactionIndex": "0x8",
          "logIndex": "0x4",
          "removed": false
        }
      ],
      "logsBloom": "0x00000004400000000000000000000000000000000000000000000000000000000000000000000000000000000000000000000000000000000000000000000000800000000000000000000000000000000000000000000000010000000000000080000000000000000000000000000000000000000000000000000000000800000000000000000000000800008080008000000000000000000000000000000000000000000000000000000040000000000000000000000000001000000000000000000000000000000000000000000000000000000000000100002000000000000000000000000000000000000000000000000400000000000000000000000000",
      "type": "0x2",
      "transactionHash": "0x5eb095c567ebbe6f22118b89ce6b80b9d671355f8db696af6e52eac4cbc73200",
      "transactionIndex": "0x8",
      "blockHash": "0x8d79b8ba4b93265badc1769fdb5e415119cf299214648309b68374aed20d9e04",
      "blockNumber": "0xbb79fcd",
      "gasUsed": "0x4077e",
      "effectiveGasPrice": "0x28fa6ae00",
      "from": "0x54f9b12743a7deec0ea48721683cbebedc6e17bc",
      "to": "0x0000006d38568b00b457580b734e0076c62de659",
      "contractAddress": null
    },
    {
      "status": "0x1",
      "cumulativeGasUsed": "0xb96a0",
      "logs": [
        {
          "address": "0x0000006d38568b00b457580b734e0076c62de659",
          "topics": [
            "0x2f8788117e7eff1d82e926ec794901d17c78024a50270940304540a733656f0d",
            "0x65d7a28e3265b37a6474929f336521b332c1681b933f6cb9f3376673440d862a",
            "0x000000000000000000000000381e2495e683868f693aa5b1414f712f21d34b40",
            "0x00000000000000000000000054f9b12743a7deec0ea48721683cbebedc6e17bc"
          ],
          "data": "0x",
          "blockHash": "0x498f6c1cac8e39828a936f3fe154e79f60185c286e2c950eb1c02e64538169ea",
          "blockNumber": "0xbb79fd2",
          "transactionHash": "0xa0743b35b830cb626f5d29e585d4277aee6b47f0311f5e11ee90282a962be573",
          "transactionIndex": "0x6",
          "logIndex": "0x8",
          "removed": false
        }
      ],
      "logsBloom": "0x00000004420000000000000000000000000000000000000000000000000000000000000000000000000000000000000000000000000000000000000000000000000010000000000000000000000000000000000000000000010000000000000000000000000000000000000000000000000000000000000000000000000800000000000000000000000800000080008080000000000000000000000000000000000000000000000000000040000000000000000000000000001000000000000000000000000000000000000000000000000000000000000100002000000000000000000000000000000000000000000000000400000000000000000000000000",
      "type": "0x2",
      "transactionHash": "0xa0743b35b830cb626f5d29e585d4277aee6b47f0311f5e11ee90282a962be573",
      "transactionIndex": "0x6",
      "blockHash": "0x498f6c1cac8e39828a936f3fe154e79f60185c286e2c950eb1c02e64538169ea",
      "blockNumber": "0xbb79fd2",
      "gasUsed": "0x4077e",
      "effectiveGasPrice": "0x28fa6ae00",
      "from": "0x54f9b12743a7deec0ea48721683cbebedc6e17bc",
      "to": "0x0000006d38568b00b457580b734e0076c62de659",
      "contractAddress": null
    },
    {
      "status": "0x1",
      "cumulativeGasUsed": "0x20f4e1",
      "logs": [
        {
          "address": "0x0000006d38568b00b457580b734e0076c62de659",
          "topics": [
            "0x2f8788117e7eff1d82e926ec794901d17c78024a50270940304540a733656f0d",
            "0x65d7a28e3265b37a6474929f336521b332c1681b933f6cb9f3376673440d862a",
            "0x0000000000000000000000006e74053a3798e0fc9a9775f7995316b27f21c4d2",
            "0x00000000000000000000000054f9b12743a7deec0ea48721683cbebedc6e17bc"
          ],
          "data": "0x",
          "blockHash": "0x17f244c72c80cafacc863c580c5f766bf92b80e821e70e5944f52763b580a219",
          "blockNumber": "0xbb79fd4",
          "transactionHash": "0xbef5261ddba16c17a6c482b6a4f32eacd3c65ebd1cd238c02026d1d698421782",
          "transactionIndex": "0x1f",
          "logIndex": "0x1b",
          "removed": false
        }
      ],
      "logsBloom": "0x00000004400000000000000000000000000000000000000000000000000000000000000000000000000000000000000000000000000000000000000000000000000000000000000000000000000000000000000000000000010000000000000000000000000020000000000000000000000000000000000000000000000800000000000000000000000800000080008000000000000010000000000000000000000000000000000000000040000000000000000000000000001000000000000000000000000000000000000000000000000000000000000100002000000000000000000000000000000000000000000000000400800000000000000000000000",
      "type": "0x2",
      "transactionHash": "0xbef5261ddba16c17a6c482b6a4f32eacd3c65ebd1cd238c02026d1d698421782",
      "transactionIndex": "0x1f",
      "blockHash": "0x17f244c72c80cafacc863c580c5f766bf92b80e821e70e5944f52763b580a219",
      "blockNumber": "0xbb79fd4",
      "gasUsed": "0x4077e",
      "effectiveGasPrice": "0x28fa6ae00",
      "from": "0x54f9b12743a7deec0ea48721683cbebedc6e17bc",
      "to": "0x0000006d38568b00b457580b734e0076c62de659",
      "contractAddress": null
    },
    {
      "status": "0x1",
      "cumulativeGasUsed": "0x1e1bc5",
      "logs": [
        {
          "address": "0x0000006d38568b00b457580b734e0076c62de659",
          "topics": [
            "0x2f8788117e7eff1d82e926ec794901d17c78024a50270940304540a733656f0d",
            "0x65d7a28e3265b37a6474929f336521b332c1681b933f6cb9f3376673440d862a",
            "0x000000000000000000000000c6ef452b0de9e95ccb153c2a5a7a90154aab3419",
            "0x00000000000000000000000054f9b12743a7deec0ea48721683cbebedc6e17bc"
          ],
          "data": "0x",
          "blockHash": "0x2ad85ba53b9491d05a29ff8eb82c8c85cea0ec67b52ef0e7bc79b9776532ef5a",
          "blockNumber": "0xbb79fd8",
          "transactionHash": "0x56e44dbc15bdce9c962fd79693f0d4583d394f54e09f56d0a6d2549119116df1",
          "transactionIndex": "0xf",
          "logIndex": "0x16",
          "removed": false
        }
      ],
      "logsBloom": "0x00000004400000000000000000000000000000000000000000000000000000000000000000000000000000000000000000000000000000000000000000000000000000000000100000000000000000000000000000000000010000000000000000000000000000008000000000000000000000000000000000000000000800000000000000000000000800000080008000000000000000000000000000000000000000000000000000000040000000000000000000000000001000000000000000000000000000000000000000000000000000000000000100002000000000000000000000000080000000000000000000000400000000000000000000000000",
      "type": "0x2",
      "transactionHash": "0x56e44dbc15bdce9c962fd79693f0d4583d394f54e09f56d0a6d2549119116df1",
      "transactionIndex": "0xf",
      "blockHash": "0x2ad85ba53b9491d05a29ff8eb82c8c85cea0ec67b52ef0e7bc79b9776532ef5a",
      "blockNumber": "0xbb79fd8",
      "gasUsed": "0x4077e",
      "effectiveGasPrice": "0x28fa6ae00",
      "from": "0x54f9b12743a7deec0ea48721683cbebedc6e17bc",
      "to": "0x0000006d38568b00b457580b734e0076c62de659",
      "contractAddress": null
    },
    {
      "status": "0x1",
      "cumulativeGasUsed": "0x5c26d",
      "logs": [
        {
          "address": "0x0000006d38568b00b457580b734e0076c62de659",
          "topics": [
            "0x2f8788117e7eff1d82e926ec794901d17c78024a50270940304540a733656f0d",
            "0x0000000000000000000000000000000000000000000000000000000000000000",
            "0x0000000000000000000000000357d02fc95320b990322d3ff69204c3d251171b",
            "0x00000000000000000000000054f9b12743a7deec0ea48721683cbebedc6e17bc"
          ],
          "data": "0x",
          "blockHash": "0xa06fce38aa9932a1cfcae970ad2fb57b639ac810f996d4e551b2f8546e94cbde",
          "blockNumber": "0xbb79fdd",
          "transactionHash": "0x41ce30520fd3829d788bcb81c3f91bb5bd1a30b070665b359142d2b17d68f141",
          "transactionIndex": "0x5",
          "logIndex": "0x5",
          "removed": false
        }
      ],
      "logsBloom": "0x00000004400000000200000000000000000000001000000000000000000000000000000000000000000000000000000000000000000000000000000000000000000000000000000000000000000000000000000000000000010000000000000000000000020000000000000000000800000000000000000000000000000800000000000000000000000800000080000000000000000000000000000000000000000000000000000000000040000000000000000000000000001000000000000000000000000000000000000000000020000000000000000100000000000020000000000000000000000000000000000000000000000000000000000000000000",
      "type": "0x2",
      "transactionHash": "0x41ce30520fd3829d788bcb81c3f91bb5bd1a30b070665b359142d2b17d68f141",
      "transactionIndex": "0x5",
      "blockHash": "0xa06fce38aa9932a1cfcae970ad2fb57b639ac810f996d4e551b2f8546e94cbde",
      "blockNumber": "0xbb79fdd",
      "gasUsed": "0x405fe",
      "effectiveGasPrice": "0x28fa6ae00",
      "from": "0x54f9b12743a7deec0ea48721683cbebedc6e17bc",
      "to": "0x0000006d38568b00b457580b734e0076c62de659",
      "contractAddress": null
    },
    {
      "status": "0x1",
      "cumulativeGasUsed": "0xbe7b3",
      "logs": [
        {
          "address": "0x0000006d38568b00b457580b734e0076c62de659",
          "topics": [
            "0x2f8788117e7eff1d82e926ec794901d17c78024a50270940304540a733656f0d",
            "0x0000000000000000000000000000000000000000000000000000000000000000",
            "0x000000000000000000000000954286118e93df807ab6f99ae0454f8710f0a8b9",
            "0x00000000000000000000000054f9b12743a7deec0ea48721683cbebedc6e17bc"
          ],
          "data": "0x",
          "blockHash": "0x6c628f82d4efb5e4a1101f7c15f2de5b92b473c36b1e230de2f32d6635aa9628",
          "blockNumber": "0xbb79fe1",
          "transactionHash": "0x07c1d2f3ace6da354f5482e33d04e855bb172dbfa8356452ccff7cf4b667bab7",
          "transactionIndex": "0x7",
          "logIndex": "0x5",
          "removed": false
        }
      ],
      "logsBloom": "0x00000004400000000000000000000000000000000000000000000000000000000000000000000000000000000000000000000000000000020000000000000000000000000000000000000000000000000000000000000000010000000000000000000000020000000000000000000800000000000000000000000000000800000000000000000000000840000080000000000000000000000000000000000000020000000000000000000040000000000000000000000000001000000000000000000000000000000000000000000000000000000000000100000000000020000000000000000000000000000000000000000000000000000000000000000000",
      "type": "0x2",
      "transactionHash": "0x07c1d2f3ace6da354f5482e33d04e855bb172dbfa8356452ccff7cf4b667bab7",
      "transactionIndex": "0x7",
      "blockHash": "0x6c628f82d4efb5e4a1101f7c15f2de5b92b473c36b1e230de2f32d6635aa9628",
      "blockNumber": "0xbb79fe1",
      "gasUsed": "0x405fe",
      "effectiveGasPrice": "0x28fa6ae00",
      "from": "0x54f9b12743a7deec0ea48721683cbebedc6e17bc",
      "to": "0x0000006d38568b00b457580b734e0076c62de659",
      "contractAddress": null
    },
    {
      "status": "0x1",
      "cumulativeGasUsed": "0x135c80",
      "logs": [
        {
          "address": "0x0000006d38568b00b457580b734e0076c62de659",
          "topics": [
            "0xf6391f5c32d9c69d2a47ea670b442974b53935d1edc7fd64eb21e047a839171b",
            "0x0000000000000000000000000000000000000000000000000000000000000000",
            "0x00000000000000000000000054f9b12743a7deec0ea48721683cbebedc6e17bc",
            "0x00000000000000000000000054f9b12743a7deec0ea48721683cbebedc6e17bc"
          ],
          "data": "0x",
          "blockHash": "0x1d492a9f68e6e01d2007e256a675718a2dbed7bc95ad92ba5fc0994f2ae1cf1a",
          "blockNumber": "0xbb79fe3",
          "transactionHash": "0x2e79813669cc8ab8d2bb361e459b65eaafc54f5d82f41597e37a77784c5f19e4",
          "transactionIndex": "0xe",
          "logIndex": "0x8",
          "removed": false
        }
      ],
      "logsBloom": "0x00000000400000000000000000000000000000000000000000000000000000000000000000000000000000000000000000200000000000000000000000000000000000000000000000000000000000000000000000000000010000000000000040000000020000000000000000000800000000000000000000000000000800000000000040000000000800000080000000000000000000000000000000000000000000000000000000000040000000000000000000000000000000000000000000000000000000000000000000000000000000000000000000000000000020000000000000000000000000000000000000000000000000000000000000000000",
      "type": "0x2",
      "transactionHash": "0x2e79813669cc8ab8d2bb361e459b65eaafc54f5d82f41597e37a77784c5f19e4",
      "transactionIndex": "0xe",
      "blockHash": "0x1d492a9f68e6e01d2007e256a675718a2dbed7bc95ad92ba5fc0994f2ae1cf1a",
      "blockNumber": "0xbb79fe3",
      "gasUsed": "0xc481",
      "effectiveGasPrice": "0x28fa6ae00",
      "from": "0x54f9b12743a7deec0ea48721683cbebedc6e17bc",
      "to": "0x0000006d38568b00b457580b734e0076c62de659",
      "contractAddress": null
    }
  ],
  "libraries": [],
  "pending": [],
  "returns": {},
  "timestamp": 1772646767991,
  "chain": 1329,
  "commit": "e750309"
}