{
  "transactions": [
    {
      "hash": "0x96b67f1f1a023fbc1d6bb6f98131328691e85cae4ebaab48e8afa3e7b80cdb14",
      "transactionType": "CALL",
      "contractName": null,
      "contractAddress": "0x0000006d38568b00b457580b734e0076c62de659",
      "function": "upgradeToAndCall(address,bytes)",
      "arguments": [
        "0x0000000087ED0dD8b999aE6C7c30f95e9707a3C6",
        "0xdf1cf4a100000000000000000000000000000000000000000000000000000000000076480000000000000000000000001a44076050125825900e736c501f859c50fe728c00000000000000000000000000000000e18afc20afe54d4b2c8688bb60c06b360000000000000000000000000000000000000000000000000000000000000003000000000000000000000000c097ab8cd7b053326dfe9fb3e3a31a0cce3b526f0000000000000000000000006788f52439aca6bff597d3eec2dc9a44b8fee8420000000000000000000000004514fc667a944752ee8a29f544c1b20b1a315f250000000000000000000000000000000000000000000000000000000000000100000000000000000000000000000000000000000000000000000000000000000600000000000000000000000080eede496655fb9047dd39d9f418d5483ed600df0000000000000000000000005bff88ca1442c2496f7e475e9e7786383bc070c000000000000000000000000043edd7f3831b08fe70b7555ddd373c8bf65a90500000000000000000000000003ec3849c33291a9ef4c5db86de593eb4a37fde4500000000000000000000000064445f0aecc51e94ad52d8ac56b7190e764e561a00000000000000000000000090581eca9469d8d7f5d3b60f4715027adfcf7927"
      ],
      "transaction": {
        "from": "0x54f9b12743a7deec0ea48721683cbebedc6e17bc",
        "to": "0x0000006d38568b00b457580b734e0076c62de659",
        "gas": "0xe6e04",
        "value": "0x0",
        "input": "0x4f1ef2860000000000000000000000000000000087ed0dd8b999ae6c7c30f95e9707a3c6000000000000000000000000000000000000000000000000000000000000004000000000000000000000000000000000000000000000000000000000000001e4df1cf4a100000000000000000000000000000000000000000000000000000000000076480000000000000000000000001a44076050125825900e736c501f859c50fe728c00000000000000000000000000000000e18afc20afe54d4b2c8688bb60c06b360000000000000000000000000000000000000000000000000000000000000003000000000000000000000000c097ab8cd7b053326dfe9fb3e3a31a0cce3b526f0000000000000000000000006788f52439aca6bff597d3eec2dc9a44b8fee8420000000000000000000000004514fc667a944752ee8a29f544c1b20b1a315f250000000000000000000000000000000000000000000000000000000000000100000000000000000000000000000000000000000000000000000000000000000600000000000000000000000080eede496655fb9047dd39d9f418d5483ed600df0000000000000000000000005bff88ca1442c2496f7e475e9e7786383bc070c000000000000000000000000043edd7f3831b08fe70b7555ddd373c8bf65a90500000000000000000000000003ec3849c33291a9ef4c5db86de593eb4a37fde4500000000000000000000000064445f0aecc51e94ad52d8ac56b7190e764e561a00000000000000000000000090581eca9469d8d7f5d3b60f4715027adfcf792700000000000000000000000000000000000000000000000000000000",
        "nonce": "0x11",
        "chainId": "0x531"
      },
      "additionalContracts": [],
      "isFixedGasLimit": false
    },
    {
      "hash": null,
      "transactionType": "CALL",
      "contractName": null,
      "contractAddress": "0x0000006d38568b00b457580b734e0076c62de659",
      "function": "changeAdmin(address)",
      "arguments": [
        "0x223a681fc5c5522c85C96157c0efA18cd6c5405c"
      ],
      "transaction": {
        "from": "0x54f9b12743a7deec0ea48721683cbebedc6e17bc",
        "to": "0x0000006d38568b00b457580b734e0076c62de659",
        "gas": "0xe9b8",
        "value": "0x0",
        "input": "0x8f283970000000000000000000000000223a681fc5c5522c85c96157c0efa18cd6c5405c",
        "nonce": "0x12",
        "chainId": "0x531"
      },
      "additionalContracts": [],
      "isFixedGasLimit": false
    },
    {
      "hash": null,
      "transactionType": "CALL",
      "contractName": null,
      "contractAddress": "0x0000006d38568b00b457580b734e0076c62de659",
      "function": "setExecutorOptions(uint32,bytes)",
      "arguments": [
        "30168",
        "0x0100210100000000000000000000000000030d40000000000000000000000000002dc6c0"
      ],
      "transaction": {
        "from": "0x54f9b12743a7deec0ea48721683cbebedc6e17bc",
        "to": "0x0000006d38568b00b457580b734e0076c62de659",
        "gas": "0x3346e",
        "value": "0x0",
        "input": "0x5135db4600000000000000000000000000000000000000000000000000000000000075d8000000000000000000000000000000000000000000000000000000000000004000000000000000000000000000000000000000000000000000000000000000240100210100000000000000000000000000030d40000000000000000000000000002dc6c000000000000000000000000000000000000000000000000000000000",
        "nonce": "0x13",
        "chainId": "0x531"
      },
      "additionalContracts": [],
      "isFixedGasLimit": false
    },
    {
      "hash": null,
      "transactionType": "CALL",
      "contractName": null,
      "contractAddress": "0x0000006d38568b00b457580b734e0076c62de659",
      "function": "grantRole(bytes32,address)",
      "arguments": [
        "0x65d7a28e3265b37a6474929f336521b332c1681b933f6cb9f3376673440d862a",
        "0x54C5Ef136D02b95C4Ff217aF93FA63F9E4119919"
      ],
      "transaction": {
        "from": "0x54f9b12743a7deec0ea48721683cbebedc6e17bc",
        "to": "0x0000006d38568b00b457580b734e0076c62de659",
        "gas": "0x44c0e",
        "value": "0x0",
        "input": "0x2f2ff15d65d7a28e3265b37a6474929f336521b332c1681b933f6cb9f3376673440d862a00000000000000000000000054c5ef136d02b95c4ff217af93fa63f9e4119919",
        "nonce": "0x14",
        "chainId": "0x531"
      },
      "additionalContracts": [],
      "isFixedGasLimit": false
    },
    {
      "hash": null,
      "transactionType": "CALL",
      "contractName": null,
      "contractAddress": "0x0000006d38568b00b457580b734e0076c62de659",
      "function": "grantRole(bytes32,address)",
      "arguments": [
        "0x65d7a28e3265b37a6474929f336521b332c1681b933f6cb9f3376673440d862a",
        "0x17e06ce6914E3969f7BD37D8b2a563890cA1c96e"
      ],
      "transaction": {
        "from": "0x54f9b12743a7deec0ea48721683cbebedc6e17bc",
        "to": "0x0000006d38568b00b457580b734e0076c62de659",
        "gas": "0x380fe",
        "value": "0x0",
        "input": "0x2f2ff15d65d7a28e3265b37a6474929f336521b332c1681b933f6cb9f3376673440d862a00000000000000000000000017e06ce6914e3969f7bd37d8b2a563890ca1c96e",
        "nonce": "0x15",
        "chainId": "0x531"
      },
      "additionalContracts": [],
      "isFixedGasLimit": false
    },
    {
      "hash": null,
      "transactionType": "CALL",
      "contractName": null,
      "contractAddress": "0x0000006d38568b00b457580b734e0076c62de659",
      "function": "grantRole(bytes32,address)",
      "arguments": [
        "0x65d7a28e3265b37a6474929f336521b332c1681b933f6cb9f3376673440d862a",
        "0x8d8290d49e88D16d81C6aDf6C8774eD88762274A"
      ],
      "transaction": {
        "from": "0x54f9b12743a7deec0ea48721683cbebedc6e17bc",
        "to": "0x0000006d38568b00b457580b734e0076c62de659",
        "gas": "0x380fe",
        "value": "0x0",
        "input": "0x2f2ff15d65d7a28e3265b37a6474929f336521b332c1681b933f6cb9f3376673440d862a0000000000000000000000008d8290d49e88d16d81c6adf6c8774ed88762274a",
        "nonce": "0x16",
        "chainId": "0x531"
      },
      "additionalContracts": [],
      "isFixedGasLimit": false
    },
    {
      "hash": null,
      "transactionType": "CALL",
      "contractName": null,
      "contractAddress": "0x0000006d38568b00b457580b734e0076c62de659",
      "function": "grantRole(bytes32,address)",
      "arguments": [
        "0x65d7a28e3265b37a6474929f336521b332c1681b933f6cb9f3376673440d862a",
        "0xcbc616D595D38483e6AdC45C7E426f44bF230928"
      ],
      "transaction": {
        "from": "0x54f9b12743a7deec0ea48721683cbebedc6e17bc",
        "to": "0x0000006d38568b00b457580b734e0076c62de659",
        "gas": "0x380fe",
        "value": "0x0",
        "input": "0x2f2ff15d65d7a28e3265b37a6474929f336521b332c1681b933f6cb9f3376673440d862a000000000000000000000000cbc616d595d38483e6adc45c7e426f44bf230928",
        "nonce": "0x17",
        "chainId": "0x531"
      },
      "additionalContracts": [],
      "isFixedGasLimit": false
    },
    {
      "hash": null,
      "transactionType": "CALL",
      "contractName": null,
      "contractAddress": "0x0000006d38568b00b457580b734e0076c62de659",
      "function": "grantRole(bytes32,address)",
      "arguments": [
        "0x65d7a28e3265b37a6474929f336521b332c1681b933f6cb9f3376673440d862a",
        "0x381e2495e683868F693AA5B1414F712f21d34b40"
      ],
      "transaction": {
        "from": "0x54f9b12743a7deec0ea48721683cbebedc6e17bc",
        "to": "0x0000006d38568b00b457580b734e0076c62de659",
        "gas": "0x380fe",
        "value": "0x0",
        "input": "0x2f2ff15d65d7a28e3265b37a6474929f336521b332c1681b933f6cb9f3376673440d862a000000000000000000000000381e2495e683868f693aa5b1414f712f21d34b40",
        "nonce": "0x18",
        "chainId": "0x531"
      },
      "additionalContracts": [],
      "isFixedGasLimit": false
    },
    {
      "hash": null,
      "transactionType": "CALL",
      "contractName": null,
      "contractAddress": "0x0000006d38568b00b457580b734e0076c62de659",
      "function": "grantRole(bytes32,address)",
      "arguments": [
        "0x65d7a28e3265b37a6474929f336521b332c1681b933f6cb9f3376673440d862a",
        "0x6e74053a3798e0fC9a9775F7995316b27f21c4D2"
      ],
      "transaction": {
        "from": "0x54f9b12743a7deec0ea48721683cbebedc6e17bc",
        "to": "0x0000006d38568b00b457580b734e0076c62de659",
        "gas": "0x380fe",
        "value": "0x0",
        "input": "0x2f2ff15d65d7a28e3265b37a6474929f336521b332c1681b933f6cb9f3376673440d862a0000000000000000000000006e74053a3798e0fc9a9775f7995316b27f21c4d2",
        "nonce": "0x19",
        "chainId": "0x531"
      },
      "additionalContracts": [],
      "isFixedGasLimit": false
    },
    {
      "hash": null,
      "transactionType": "CALL",
      "contractName": null,
      "contractAddress": "0x0000006d38568b00b457580b734e0076c62de659",
      "function": "grantRole(bytes32,address)",
      "arguments": [
        "0x65d7a28e3265b37a6474929f336521b332c1681b933f6cb9f3376673440d862a",
        "0xC6EF452b0de9E95Ccb153c2A5A7a90154aab3419"
      ],
      "transaction": {
        "from": "0x54f9b12743a7deec0ea48721683cbebedc6e17bc",
        "to": "0x0000006d38568b00b457580b734e0076c62de659",
        "gas": "0x380fe",
        "value": "0x0",
        "input": "0x2f2ff15d65d7a28e3265b37a6474929f336521b332c1681b933f6cb9f3376673440d862a000000000000000000000000c6ef452b0de9e95ccb153c2a5a7a90154aab3419",
        "nonce": "0x1a",
        "chainId": "0x531"
      },
      "additionalContracts": [],
      "isFixedGasLimit": false
    },
    {
      "hash": null,
      "transactionType": "CALL",
      "contractName": null,
      "contractAddress": "0x0000006d38568b00b457580b734e0076c62de659",
      "function": "grantRole(bytes32,address)",
      "arguments": [
        "0x0000000000000000000000000000000000000000000000000000000000000000",
        "0x0357D02fc95320b990322d3ff69204c3D251171b"
      ],
      "transaction": {
        "from": "0x54f9b12743a7deec0ea48721683cbebedc6e17bc",
        "to": "0x0000006d38568b00b457580b734e0076c62de659",
        "gas": "0x37dce",
        "value": "0x0",
        "input": "0x2f2ff15d00000000000000000000000000000000000000000000000000000000000000000000000000000000000000000357d02fc95320b990322d3ff69204c3d251171b",
        "nonce": "0x1b",
        "chainId": "0x531"
      },
      "additionalContracts": [],
      "isFixedGasLimit": false
    },
    {
      "hash": null,
      "transactionType": "CALL",
      "contractName": null,
      "contractAddress": "0x0000006d38568b00b457580b734e0076c62de659",
      "function": "grantRole(bytes32,address)",
      "arguments": [
        "0x0000000000000000000000000000000000000000000000000000000000000000",
        "0x954286118E93df807aB6f99aE0454f8710f0a8B9"
      ],
      "transaction": {
        "from": "0x54f9b12743a7deec0ea48721683cbebedc6e17bc",
        "to": "0x0000006d38568b00b457580b734e0076c62de659",
        "gas": "0x37dce",
        "value": "0x0",
        "input": "0x2f2ff15d0000000000000000000000000000000000000000000000000000000000000000000000000000000000000000954286118e93df807ab6f99ae0454f8710f0a8b9",
        "nonce": "0x1c",
        "chainId": "0x531"
      },
      "additionalContracts": [],
      "isFixedGasLimit": false
    },
    {
      "hash": null,
      "transactionType": "CALL",
      "contractName": null,
      "contractAddress": "0x0000006d38568b00b457580b734e0076c62de659",
      "function": "renounceRole(bytes32,address)",
      "arguments": [
        "0x0000000000000000000000000000000000000000000000000000000000000000",
        "0x54F9b12743A7DeeC0ea48721683cbebedC6E17bC"
      ],
      "transaction": {
        "from": "0x54f9b12743a7deec0ea48721683cbebedc6e17bc",
        "to": "0x0000006d38568b00b457580b734e0076c62de659",
        "gas": "0x1ba22",
        "value": "0x0",
        "input": "0x36568abe000000000000000000000000000000000000000000000000000000000000000000000000000000000000000054f9b12743a7deec0ea48721683cbebedc6e17bc",
        "nonce": "0x1d",
        "chainId": "0x531"
      },
      "additionalContracts": [],
      "isFixedGasLimit": false
    }
  ],
  "receipts": [],
  "libraries": [],
  "pending": [],
  "returns": {},
  "timestamp": 1772646038104,
  "chain": 1329,
  "commit": "e750309"
}