{
  "transactions": [
    {
      "hash": "0xef5c86555682f1611caaaf86e63c8ff6f53e962526e4e45d6c4e24955b7b5ea8",
      "transactionType": "CALL",
      "contractName": null,
      "contractAddress": "0x0000006d38568b00b457580b734e0076c62de659",
      "function": "grantRole(bytes32,address)",
      "arguments": [
        "0x65d7a28e3265b37a6474929f336521b332c1681b933f6cb9f3376673440d862a",
        "0x8d8290d49e88D16d81C6aDf6C8774eD88762274A"
      ],
      "transaction": {
        "from": "0x54f9b12743a7deec0ea48721683cbebedc6e17bc",
        "to": "0x0000006d38568b00b457580b734e0076c62de659",
        "gas": "0x2470b",
        "value": "0x0",
        "input": "0x2f2ff15d65d7a28e3265b37a6474929f336521b332c1681b933f6cb9f3376673440d862a0000000000000000000000008d8290d49e88d16d81c6adf6c8774ed88762274a",
        "nonce": "0x8",
        "chainId": "0x3e7"
      },
      "additionalContracts": [],
      "isFixedGasLimit": false
    },
    {
      "hash": "0x9634de139e9ab76a9d1f87be8b93e0e9f8fe781ab84ce8a23e25c764d31732b9",
      "transactionType": "CALL",
      "contractName": null,
      "contractAddress": "0x0000006d38568b00b457580b734e0076c62de659",
      "function": "grantRole(bytes32,address)",
      "arguments": [
        "0x65d7a28e3265b37a6474929f336521b332c1681b933f6cb9f3376673440d862a",
        "0xcbc616D595D38483e6AdC45C7E426f44bF230928"
      ],
      "transaction": {
        "from": "0x54f9b12743a7deec0ea48721683cbebedc6e17bc",
        "to": "0x0000006d38568b00b457580b734e0076c62de659",
        "gas": "0x2470b",
        "value": "0x0",
        "input": "0x2f2ff15d65d7a28e3265b37a6474929f336521b332c1681b933f6cb9f3376673440d862a000000000000000000000000cbc616d595d38483e6adc45c7e426f44bf230928",
        "nonce": "0x9",
        "chainId": "0x3e7"
      },
      "additionalContracts": [],
      "isFixedGasLimit": false
    },
    {
      "hash": "0x01c102108dc8a04d180d68cd421e57af54c5539f8d63ccde2880e2da9417fa15",
      "transactionType": "CALL",
      "contractName": null,
      "contractAddress": "0x0000006d38568b00b457580b734e0076c62de659",
      "function": "grantRole(bytes32,address)",
      "arguments": [
        "0x65d7a28e3265b37a6474929f336521b332c1681b933f6cb9f3376673440d862a",
        "0x381e2495e683868F693AA5B1414F712f21d34b40"
      ],
      "transaction": {
        "from": "0x54f9b12743a7deec0ea48721683cbebedc6e17bc",
        "to": "0x0000006d38568b00b457580b734e0076c62de659",
        "gas": "0x2470b",
        "value": "0x0",
        "input": "0x2f2ff15d65d7a28e3265b37a6474929f336521b332c1681b933f6cb9f3376673440d862a000000000000000000000000381e2495e683868f693aa5b1414f712f21d34b40",
        "nonce": "0xa",
        "chainId": "0x3e7"
      },
      "additionalContracts": [],
      "isFixedGasLimit": false
    },
    {
      "hash": "0x830fe1bcdff027aecae3986ced671b34ba69a24b109edd73a3a5578ecdbc6ece",
      "transactionType": "CALL",
      "contractName": null,
      "contractAddress": "0x0000006d38568b00b457580b734e0076c62de659",
      "function": "grantRole(bytes32,address)",
      "arguments": [
        "0x65d7a28e3265b37a6474929f336521b332c1681b933f6cb9f3376673440d862a",
        "0x6e74053a3798e0fC9a9775F7995316b27f21c4D2"
      ],
      "transaction": {
        "from": "0x54f9b12743a7deec0ea48721683cbebedc6e17bc",
        "to": "0x0000006d38568b00b457580b734e0076c62de659",
        "gas": "0x2470b",
        "value": "0x0",
        "input": "0x2f2ff15d65d7a28e3265b37a6474929f336521b332c1681b933f6cb9f3376673440d862a0000000000000000000000006e74053a3798e0fc9a9775f7995316b27f21c4d2",
        "nonce": "0xb",
        "chainId": "0x3e7"
      },
      "additionalContracts": [],
      "isFixedGasLimit": false
    },
    {
      "hash": "0x1834ff5f8b598396b057fdfe94f8c37f275bf8eae8e8c9491b83fe30a96e2326",
      "transactionType": "CALL",
      "contractName": null,
      "contractAddress": "0x0000006d38568b00b457580b734e0076c62de659",
      "function": "grantRole(bytes32,address)",
      "arguments": [
        "0x65d7a28e3265b37a6474929f336521b332c1681b933f6cb9f3376673440d862a",
        "0xC6EF452b0de9E95Ccb153c2A5A7a90154aab3419"
      ],
      "transaction": {
        "from": "0x54f9b12743a7deec0ea48721683cbebedc6e17bc",
        "to": "0x0000006d38568b00b457580b734e0076c62de659",
        "gas": "0x2470b",
        "value": "0x0",
        "input": "0x2f2ff15d65d7a28e3265b37a6474929f336521b332c1681b933f6cb9f3376673440d862a000000000000000000000000c6ef452b0de9e95ccb153c2a5a7a90154aab3419",
        "nonce": "0xc",
        "chainId": "0x3e7"
      },
      "additionalContracts": [],
      "isFixedGasLimit": false
    },
    {
      "hash": "0x8aa85336dfd8bcdf5a27bd918d8755eb7531b74b2564eb36ddcdcde53a74ebef",
      "transactionType": "CALL",
      "contractName": null,
      "contractAddress": "0x0000006d38568b00b457580b734e0076c62de659",
      "function": "grantRole(bytes32,address)",
      "arguments": [
        "0x0000000000000000000000000000000000000000000000000000000000000000",
        "0x738ee62157f127C879Ff5c4B7102Eb0d166C7a6d"
      ],
      "transaction": {
        "from": "0x54f9b12743a7deec0ea48721683cbebedc6e17bc",
        "to": "0x0000006d38568b00b457580b734e0076c62de659",
        "gas": "0x244f9",
        "value": "0x0",
        "input": "0x2f2ff15d0000000000000000000000000000000000000000000000000000000000000000000000000000000000000000738ee62157f127c879ff5c4b7102eb0d166c7a6d",
        "nonce": "0xd",
        "chainId": "0x3e7"
      },
      "additionalContracts": [],
      "isFixedGasLimit": false
    },
    {
      "hash": "0x1b57c69ad51e9877bc1af274035b6828feb9dacaeafc1c09303f654aa2ca9083",
      "transactionType": "CALL",
      "contractName": null,
      "contractAddress": "0x0000006d38568b00b457580b734e0076c62de659",
      "function": "grantRole(bytes32,address)",
      "arguments": [
        "0x0000000000000000000000000000000000000000000000000000000000000000",
        "0x954286118E93df807aB6f99aE0454f8710f0a8B9"
      ],
      "transaction": {
        "from": "0x54f9b12743a7deec0ea48721683cbebedc6e17bc",
        "to": "0x0000006d38568b00b457580b734e0076c62de659",
        "gas": "0x244f9",
        "value": "0x0",
        "input": "0x2f2ff15d0000000000000000000000000000000000000000000000000000000000000000000000000000000000000000954286118e93df807ab6f99ae0454f8710f0a8b9",
        "nonce": "0xe",
        "chainId": "0x3e7"
      },
      "additionalContracts": [],
      "isFixedGasLimit": false
    },
    {
      "hash": "0xf3215ee5dbab58a44b8864b73f190a2fdc24c62172bc2dcb92248cbb8c53d4fc",
      "transactionType": "CALL",
      "contractName": null,
      "contractAddress": "0x0000006d38568b00b457580b734e0076c62de659",
      "function": "renounceRole(bytes32,address)",
      "arguments": [
        "0x0000000000000000000000000000000000000000000000000000000000000000",
        "0x54F9b12743A7DeeC0ea48721683cbebedC6E17bC"
      ],
      "transaction": {
        "from": "0x54f9b12743a7deec0ea48721683cbebedc6e17bc",
        "to": "0x0000006d38568b00b457580b734e0076c62de659",
        "gas": "0x11f62",
        "value": "0x0",
        "input": "0x36568abe000000000000000000000000000000000000000000000000000000000000000000000000000000000000000054f9b12743a7deec0ea48721683cbebedc6e17bc",
        "nonce": "0xf",
        "chainId": "0x3e7"
      },
      "additionalContracts": [],
      "isFixedGasLimit": false
    }
  ],
  "receipts": [
    {
      "status": "0x1",
      "cumulativeGasUsed": "0x43e42",
      "logs": [
        {
          "address": "0x0000006d38568b00b457580b734e0076c62de659",
          "topics": [
            "0x2f8788117e7eff1d82e926ec794901d17c78024a50270940304540a733656f0d",
            "0x65d7a28e3265b37a6474929f336521b332c1681b933f6cb9f3376673440d862a",
            "0x0000000000000000000000008d8290d49e88d16d81c6adf6c8774ed88762274a",
            "0x00000000000000000000000054f9b12743a7deec0ea48721683cbebedc6e17bc"
          ],
          "data": "0x",
          "blockHash": "0x003abe9bd25cd7a69a09ea9ac5189df0807169de51379ac5adacfc118f7f74d7",
          "blockNumber": "0x1b66e86",
          "blockTimestamp": "0x69a67430",
          "transactionHash": "0xef5c86555682f1611caaaf86e63c8ff6f53e962526e4e45d6c4e24955b7b5ea8",
          "transactionIndex": "0x2",
          "logIndex": "0x2",
          "removed": false
        }
      ],
      "logsBloom": "0x00020004400000000000000000000000000000400000000000000000000000000000000000000000000000000000000000000000000000000000000000000000000000000000000000000000000000000000000000000000010000000000000000000000000000000000000000000000000000000000000000000000000800000000000000000000000800000080008000000000000000000000000000000000000000000000000000000040000000000000000000000000001000000000000000000000000000000000000000000000000000000800000100002000000000000000000000000000000000000000000000000400000000000000000000000000",
      "type": "0x2",
      "transactionHash": "0xef5c86555682f1611caaaf86e63c8ff6f53e962526e4e45d6c4e24955b7b5ea8",
      "transactionIndex": "0x2",
      "blockHash": "0x003abe9bd25cd7a69a09ea9ac5189df0807169de51379ac5adacfc118f7f74d7",
      "blockNumber": "0x1b66e86",
      "gasUsed": "0x1a61e",
      "effectiveGasPrice": "0x16a43bbf",
      "from": "0x54f9b12743a7deec0ea48721683cbebedc6e17bc",
      "to": "0x0000006d38568b00b457580b734e0076c62de659",
      "contractAddress": null
    },
    {
      "status": "0x1",
      "cumulativeGasUsed": "0x2c768",
      "logs": [
        {
          "address": "0x0000006d38568b00b457580b734e0076c62de659",
          "topics": [
            "0x2f8788117e7eff1d82e926ec794901d17c78024a50270940304540a733656f0d",
            "0x65d7a28e3265b37a6474929f336521b332c1681b933f6cb9f3376673440d862a",
            "0x000000000000000000000000cbc616d595d38483e6adc45c7e426f44bf230928",
            "0x00000000000000000000000054f9b12743a7deec0ea48721683cbebedc6e17bc"
          ],
          "data": "0x",
          "blockHash": "0xd6398b0e111853ab13ca9298bd252e837e168a264147b27be7315a4554083f31",
          "blockNumber": "0x1b66ec3",
          "blockTimestamp": "0x69a6746c",
          "transactionHash": "0x9634de139e9ab76a9d1f87be8b93e0e9f8fe781ab84ce8a23e25c764d31732b9",
          "transactionIndex": "0x1",
          "logIndex": "0x1",
          "removed": false
        }
      ],
      "logsBloom": "0x00000004400000000000000000000000000000000000000000000000000000000000000000000000000000000000000000000000000000000000000000000000800000000000000000000000000000000000000000000000010000000000000080000000000000000000000000000000000000000000000000000000000800000000000000000000000800008080008000000000000000000000000000000000000000000000000000000040000000000000000000000000001000000000000000000000000000000000000000000000000000000000000100002000000000000000000000000000000000000000000000000400000000000000000000000000",
      "type": "0x2",
      "transactionHash": "0x9634de139e9ab76a9d1f87be8b93e0e9f8fe781ab84ce8a23e25c764d31732b9",
      "transactionIndex": "0x1",
      "blockHash": "0xd6398b0e111853ab13ca9298bd252e837e168a264147b27be7315a4554083f31",
      "blockNumber": "0x1b66ec3",
      "gasUsed": "0x1a61e",
      "effectiveGasPrice": "0x16a43bbf",
      "from": "0x54f9b12743a7deec0ea48721683cbebedc6e17bc",
      "to": "0x0000006d38568b00b457580b734e0076c62de659",
      "contractAddress": null
    },
    {
      "status": "0x1",
      "cumulativeGasUsed": "0x2c794",
      "logs": [
        {
          "address": "0x0000006d38568b00b457580b734e0076c62de659",
          "topics": [
            "0x2f8788117e7eff1d82e926ec794901d17c78024a50270940304540a733656f0d",
            "0x65d7a28e3265b37a6474929f336521b332c1681b933f6cb9f3376673440d862a",
            "0x000000000000000000000000381e2495e683868f693aa5b1414f712f21d34b40",
            "0x00000000000000000000000054f9b12743a7deec0ea48721683cbebedc6e17bc"
          ],
          "data": "0x",
          "blockHash": "0xf319672cadd12b53d68f7ad00091b1fbb564f782202571fc60dca933e5833043",
          "blockNumber": "0x1b66f00",
          "blockTimestamp": "0x69a674a8",
          "transactionHash": "0x01c102108dc8a04d180d68cd421e57af54c5539f8d63ccde2880e2da9417fa15",
          "transactionIndex": "0x1",
          "logIndex": "0x1",
          "removed": false
        }
      ],
      "logsBloom": "0x00000004420000000000000000000000000000000000000000000000000000000000000000000000000000000000000000000000000000000000000000000000000010000000000000000000000000000000000000000000010000000000000000000000000000000000000000000000000000000000000000000000000800000000000000000000000800000080008080000000000000000000000000000000000000000000000000000040000000000000000000000000001000000000000000000000000000000000000000000000000000000000000100002000000000000000000000000000000000000000000000000400000000000000000000000000",
      "type": "0x2",
      "transactionHash": "0x01c102108dc8a04d180d68cd421e57af54c5539f8d63ccde2880e2da9417fa15",
      "transactionIndex": "0x1",
      "blockHash": "0xf319672cadd12b53d68f7ad00091b1fbb564f782202571fc60dca933e5833043",
      "blockNumber": "0x1b66f00",
      "gasUsed": "0x1a61e",
      "effectiveGasPrice": "0x16a43bbf",
      "from": "0x54f9b12743a7deec0ea48721683cbebedc6e17bc",
      "to": "0x0000006d38568b00b457580b734e0076c62de659",
      "contractAddress": null
    },
    {
      "status": "0x1",
      "cumulativeGasUsed": "0x126e07",
      "logs": [
        {
          "address": "0x0000006d38568b00b457580b734e0076c62de659",
          "topics": [
            "0x2f8788117e7eff1d82e926ec794901d17c78024a50270940304540a733656f0d",
            "0x65d7a28e3265b37a6474929f336521b332c1681b933f6cb9f3376673440d862a",
            "0x0000000000000000000000006e74053a3798e0fc9a9775f7995316b27f21c4d2",
            "0x00000000000000000000000054f9b12743a7deec0ea48721683cbebedc6e17bc"
          ],
          "data": "0x",
          "blockHash": "0x8f270232efaebaab3014d1efe7160ca6febc1729700a9e70268cf5002d42b118",
          "blockNumber": "0x1b66f3d",
          "blockTimestamp": "0x69a674e4",
          "transactionHash": "0x830fe1bcdff027aecae3986ced671b34ba69a24b109edd73a3a5578ecdbc6ece",
          "transactionIndex": "0x4",
          "logIndex": "0x13",
          "removed": false
        }
      ],
      "logsBloom": "0x00000004400000000000000000000000000000000000000000000000000000000000000000000000000000000000000000000000000000000000000000000000000000000000000000000000000000000000000000000000010000000000000000000000000020000000000000000000000000000000000000000000000800000000000000000000000800000080008000000000000010000000000000000000000000000000000000000040000000000000000000000000001000000000000000000000000000000000000000000000000000000000000100002000000000000000000000000000000000000000000000000400800000000000000000000000",
      "type": "0x2",
      "transactionHash": "0x830fe1bcdff027aecae3986ced671b34ba69a24b109edd73a3a5578ecdbc6ece",
      "transactionIndex": "0x4",
      "blockHash": "0x8f270232efaebaab3014d1efe7160ca6febc1729700a9e70268cf5002d42b118",
      "blockNumber": "0x1b66f3d",
      "gasUsed": "0x1a61e",
      "effectiveGasPrice": "0x16a43bbf",
      "from": "0x54f9b12743a7deec0ea48721683cbebedc6e17bc",
      "to": "0x0000006d38568b00b457580b734e0076c62de659",
      "contractAddress": null
    },
    {
      "status": "0x1",
      "cumulativeGasUsed": "0x105d75",
      "logs": [
        {
          "address": "0x0000006d38568b00b457580b734e0076c62de659",
          "topics": [
            "0x2f8788117e7eff1d82e926ec794901d17c78024a50270940304540a733656f0d",
            "0x65d7a28e3265b37a6474929f336521b332c1681b933f6cb9f3376673440d862a",
            "0x000000000000000000000000c6ef452b0de9e95ccb153c2a5a7a90154aab3419",
            "0x00000000000000000000000054f9b12743a7deec0ea48721683cbebedc6e17bc"
          ],
          "data": "0x",
          "blockHash": "0xc44125bfebe74b0453695843797ec27ecee7d1e7c9b0dd6b6026afb16a347ad4",
          "blockNumber": "0x1b66f7a",
          "blockTimestamp": "0x69a67520",
          "transactionHash": "0x1834ff5f8b598396b057fdfe94f8c37f275bf8eae8e8c9491b83fe30a96e2326",
          "transactionIndex": "0x3",
          "logIndex": "0x12",
          "removed": false
        }
      ],
      "logsBloom": "0x00000004400000000000000000000000000000000000000000000000000000000000000000000000000000000000000000000000000000000000000000000000000000000000100000000000000000000000000000000000010000000000000000000000000000008000000000000000000000000000000000000000000800000000000000000000000800000080008000000000000000000000000000000000000000000000000000000040000000000000000000000000001000000000000000000000000000000000000000000000000000000000000100002000000000000000000000000080000000000000000000000400000000000000000000000000",
      "type": "0x2",
      "transactionHash": "0x1834ff5f8b598396b057fdfe94f8c37f275bf8eae8e8c9491b83fe30a96e2326",
      "transactionIndex": "0x3",
      "blockHash": "0xc44125bfebe74b0453695843797ec27ecee7d1e7c9b0dd6b6026afb16a347ad4",
      "blockNumber": "0x1b66f7a",
      "gasUsed": "0x1a61e",
      "effectiveGasPrice": "0x16a43bbf",
      "from": "0x54f9b12743a7deec0ea48721683cbebedc6e17bc",
      "to": "0x0000006d38568b00b457580b734e0076c62de659",
      "contractAddress": null
    },
    {
      "status": "0x1",
      "cumulativeGasUsed": "0xf6f14",
      "logs": [
        {
          "address": "0x0000006d38568b00b457580b734e0076c62de659",
          "topics": [
            "0x2f8788117e7eff1d82e926ec794901d17c78024a50270940304540a733656f0d",
            "0x0000000000000000000000000000000000000000000000000000000000000000",
            "0x000000000000000000000000738ee62157f127c879ff5c4b7102eb0d166c7a6d",
            "0x00000000000000000000000054f9b12743a7deec0ea48721683cbebedc6e17bc"
          ],
          "data": "0x",
          "blockHash": "0xa73c8f4f25e62835161bc52dadee3a381d5c2d730ac1074ff6b191d83faf18d8",
          "blockNumber": "0x1b66fb7",
          "blockTimestamp": "0x69a6755c",
          "transactionHash": "0x8aa85336dfd8bcdf5a27bd918d8755eb7531b74b2564eb36ddcdcde53a74ebef",
          "transactionIndex": "0x2",
          "logIndex": "0x10",
          "removed": false
        }
      ],
      "logsBloom": "0x00000004400000000000000000040000000000000000000000000000000000000000000000000000000000000000000000000200000000000000000000000000000000000000000000000000000000000000000000000000010000000000000000000000020000000000000000000800000000000000000000000000000800000000000000000000000800000080000000000000000000000000000000000000000000000000000000000040000000000000000000000000001000000000000000000000000000000000000000000000000000000000000900000000000020000000000000000000000000000000000000000000000000000000000000000000",
      "type": "0x2",
      "transactionHash": "0x8aa85336dfd8bcdf5a27bd918d8755eb7531b74b2564eb36ddcdcde53a74ebef",
      "transactionIndex": "0x2",
      "blockHash": "0xa73c8f4f25e62835161bc52dadee3a381d5c2d730ac1074ff6b191d83faf18d8",
      "blockNumber": "0x1b66fb7",
      "gasUsed": "0x1a49e",
      "effectiveGasPrice": "0x16a43bbf",
      "from": "0x54f9b12743a7deec0ea48721683cbebedc6e17bc",
      "to": "0x0000006d38568b00b457580b734e0076c62de659",
      "contractAddress": null
    },
    {
      "status": "0x1",
      "cumulativeGasUsed": "0xf61d4",
      "logs": [
        {
          "address": "0x0000006d38568b00b457580b734e0076c62de659",
          "topics": [
            "0x2f8788117e7eff1d82e926ec794901d17c78024a50270940304540a733656f0d",
            "0x0000000000000000000000000000000000000000000000000000000000000000",
            "0x000000000000000000000000954286118e93df807ab6f99ae0454f8710f0a8b9",
            "0x00000000000000000000000054f9b12743a7deec0ea48721683cbebedc6e17bc"
          ],
          "data": "0x",
          "blockHash": "0x687b6b50000c061045031983798125982986bfc99d4f1fc8adf1159e981568eb",
          "blockNumber": "0x1b66ff4",
          "blockTimestamp": "0x69a67598",
          "transactionHash": "0x1b57c69ad51e9877bc1af274035b6828feb9dacaeafc1c09303f654aa2ca9083",
          "transactionIndex": "0x2",
          "logIndex": "0x11",
          "removed": false
        }
      ],
      "logsBloom": "0x00000004400000000000000000000000000000000000000000000000000000000000000000000000000000000000000000000000000000020000000000000000000000000000000000000000000000000000000000000000010000000000000000000000020000000000000000000800000000000000000000000000000800000000000000000000000840000080000000000000000000000000000000000000020000000000000000000040000000000000000000000000001000000000000000000000000000000000000000000000000000000000000100000000000020000000000000000000000000000000000000000000000000000000000000000000",
      "type": "0x2",
      "transactionHash": "0x1b57c69ad51e9877bc1af274035b6828feb9dacaeafc1c09303f654aa2ca9083",
      "transactionIndex": "0x2",
      "blockHash": "0x687b6b50000c061045031983798125982986bfc99d4f1fc8adf1159e981568eb",
      "blockNumber": "0x1b66ff4",
      "gasUsed": "0x1a49e",
      "effectiveGasPrice": "0x16a43bbf",
      "from": "0x54f9b12743a7deec0ea48721683cbebedc6e17bc",
      "to": "0x0000006d38568b00b457580b734e0076c62de659",
      "contractAddress": null
    },
    {
      "status": "0x1",
      "cumulativeGasUsed": "0x41a0f",
      "logs": [
        {
          "address": "0x0000006d38568b00b457580b734e0076c62de659",
          "topics": [
            "0xf6391f5c32d9c69d2a47ea670b442974b53935d1edc7fd64eb21e047a839171b",
            "0x0000000000000000000000000000000000000000000000000000000000000000",
            "0x00000000000000000000000054f9b12743a7deec0ea48721683cbebedc6e17bc",
            "0x00000000000000000000000054f9b12743a7deec0ea48721683cbebedc6e17bc"
          ],
          "data": "0x",
          "blockHash": "0x55ef86624973af85725c5a05d6bde6d0dd2a7670aa8afe2a1d998d722574509e",
          "blockNumber": "0x1b67031",
          "blockTimestamp": "0x69a675d4",
          "transactionHash": "0xf3215ee5dbab58a44b8864b73f190a2fdc24c62172bc2dcb92248cbb8c53d4fc",
          "transactionIndex": "0x2",
          "logIndex": "0x3",
          "removed": false
        }
      ],
      "logsBloom": "0x00000000400000000000000000000000000000000000000000000000000000000000000000000000000000000000000000200000000000000000000000000000000000000000000000000000000000000000000000000000010000000000000040000000020000000000000000000800000000000000000000000000000800000000000040000000000800000080000000000000000000000000000000000000000000000000000000000040000000000000000000000000000000000000000000000000000000000000000000000000000000000000000000000000000020000000000000000000000000000000000000000000000000000000000000000000",
      "type": "0x2",
      "transactionHash": "0xf3215ee5dbab58a44b8864b73f190a2fdc24c62172bc2dcb92248cbb8c53d4fc",
      "transactionIndex": "0x2",
      "blockHash": "0x55ef86624973af85725c5a05d6bde6d0dd2a7670aa8afe2a1d998d722574509e",
      "blockNumber": "0x1b67031",
      "gasUsed": "0xc481",
      "effectiveGasPrice": "0x16a43bbf",
      "from": "0x54f9b12743a7deec0ea48721683cbebedc6e17bc",
      "to": "0x0000006d38568b00b457580b734e0076c62de659",
      "contractAddress": null
    }
  ],
  "libraries": [],
  "pending": [],
  "returns": {},
  "timestamp": 1772516821560,
  "chain": 999,
  "commit": "eb5226c"
}