{
  "transactions": [
    {
      "hash": "0x919b4682b8b8ff3662612dbd70a4a98fd866f94caf6e50aad9aa3bf5cfd57713",
      "transactionType": "CALL",
      "contractName": null,
      "contractAddress": "0x0000006d38568b00b457580b734e0076c62de659",
      "function": "upgradeToAndCall(address,bytes)",
      "arguments": [
        "0x0000000087ED0dD8b999aE6C7c30f95e9707a3C6",
        "0xdf1cf4a100000000000000000000000000000000000000000000000000000000000076740000000000000000000000005c6cff4b7c49805f8295ff73c204ac83f3bc4ae700000000000000000000000000000000e18afc20afe54d4b2c8688bb60c06b360000000000000000000000000000000000000000000000000000000000000003000000000000000000000000643e1471f37c4680df30cf0c540cd379a0ff58a5000000000000000000000000f4da94b4ee9d8e209e3bf9f469221ce2731a711200000000000000000000000054f1deb345306f326096a2dce26c0dd05e7b595a00000000000000000000000000000000000000000000000000000000000001000000000000000000000000000000000000000000000000000000000000000006000000000000000000000000ea77c590bb36c43ef7139ce649cfbcfd6163170d0000000000000000000000009f87fbb47c33cd0614e43500b9511018116f79ee000000000000000000000000c7ab797019156b543b7a3fbf5a99ecdab9eb4440000000000000000000000000fd78fd3667def2f1097ed221ec503ae477155394000000000000000000000000af01ae13fb67ad2bb2d76f29a83961069a5f245f000000000000000000000000580f2ee1476edf4b1760bd68f6aabad57dec420e"
      ],
      "transaction": {
        "from": "0x54f9b12743a7deec0ea48721683cbebedc6e17bc",
        "to": "0x0000006d38568b00b457580b734e0076c62de659",
        "gas": "0x38b322",
        "value": "0x0",
        "input": "0x4f1ef2860000000000000000000000000000000087ed0dd8b999ae6c7c30f95e9707a3c6000000000000000000000000000000000000000000000000000000000000004000000000000000000000000000000000000000000000000000000000000001e4df1cf4a100000000000000000000000000000000000000000000000000000000000076740000000000000000000000005c6cff4b7c49805f8295ff73c204ac83f3bc4ae700000000000000000000000000000000e18afc20afe54d4b2c8688bb60c06b360000000000000000000000000000000000000000000000000000000000000003000000000000000000000000643e1471f37c4680df30cf0c540cd379a0ff58a5000000000000000000000000f4da94b4ee9d8e209e3bf9f469221ce2731a711200000000000000000000000054f1deb345306f326096a2dce26c0dd05e7b595a00000000000000000000000000000000000000000000000000000000000001000000000000000000000000000000000000000000000000000000000000000006000000000000000000000000ea77c590bb36c43ef7139ce649cfbcfd6163170d0000000000000000000000009f87fbb47c33cd0614e43500b9511018116f79ee000000000000000000000000c7ab797019156b543b7a3fbf5a99ecdab9eb4440000000000000000000000000fd78fd3667def2f1097ed221ec503ae477155394000000000000000000000000af01ae13fb67ad2bb2d76f29a83961069a5f245f000000000000000000000000580f2ee1476edf4b1760bd68f6aabad57dec420e00000000000000000000000000000000000000000000000000000000",
        "nonce": "0x2",
        "chainId": "0xab5",
        "zksync": {
          "factoryDeps": [],
          "paymasterData": null,
          "forceEvmInterpreter": null
        }
      },
      "additionalContracts": [],
      "isFixedGasLimit": false
    },
    {
      "hash": "0x4d5cfca41b7ada21b87805aaa82462764628c7d4ecb89698f7c9e01b4b86a4ac",
      "transactionType": "CALL",
      "contractName": null,
      "contractAddress": "0x0000006d38568b00b457580b734e0076c62de659",
      "function": "changeAdmin(address)",
      "arguments": [
        "0xE59Dcae52a4ffA39Be99588486C84Bc2dC1bA52f"
      ],
      "transaction": {
        "from": "0x54f9b12743a7deec0ea48721683cbebedc6e17bc",
        "to": "0x0000006d38568b00b457580b734e0076c62de659",
        "gas": "0x43bb1",
        "value": "0x0",
        "input": "0x8f283970000000000000000000000000e59dcae52a4ffa39be99588486c84bc2dc1ba52f",
        "nonce": "0x3",
        "chainId": "0xab5",
        "zksync": {
          "factoryDeps": [],
          "paymasterData": null,
          "forceEvmInterpreter": null
        }
      },
      "additionalContracts": [],
      "isFixedGasLimit": false
    },
    {
      "hash": "0x9a4ace8b6d8a929e1b3a37db2f8a3af950fb5a7a216888e6f163d3489c09f1de",
      "transactionType": "CALL",
      "contractName": null,
      "contractAddress": "0x0000006d38568b00b457580b734e0076c62de659",
      "function": "setExecutorOptions(uint32,bytes)",
      "arguments": [
        "30168",
        "0x0100210100000000000000000000000000030d40000000000000000000000000002dc6c0"
      ],
      "transaction": {
        "from": "0x54f9b12743a7deec0ea48721683cbebedc6e17bc",
        "to": "0x0000006d38568b00b457580b734e0076c62de659",
        "gas": "0x6bf80",
        "value": "0x0",
        "input": "0x5135db4600000000000000000000000000000000000000000000000000000000000075d8000000000000000000000000000000000000000000000000000000000000004000000000000000000000000000000000000000000000000000000000000000240100210100000000000000000000000000030d40000000000000000000000000002dc6c000000000000000000000000000000000000000000000000000000000",
        "nonce": "0x4",
        "chainId": "0xab5",
        "zksync": {
          "factoryDeps": [],
          "paymasterData": null,
          "forceEvmInterpreter": null
        }
      },
      "additionalContracts": [],
      "isFixedGasLimit": false
    },
    {
      "hash": "0x19158b12d2fba3dff2d40728e3bd3e6767a48da95073a41ec67c07c6304b61cc",
      "transactionType": "CALL",
      "contractName": null,
      "contractAddress": "0x0000000000000000000000000000000000010000",
      "function": null,
      "arguments": null,
      "transaction": {
        "from": "0x54f9b12743a7deec0ea48721683cbebedc6e17bc",
        "to": "0x0000000000000000000000000000000000010000",
        "gas": "0x619433",
        "value": "0x0",
        "input": "0x3cda3351ab7fd6176258a50512680a3874ed550f7dd1fc212481446a15583f637a1c00280100008bc5b4435f4bf1420fec25c30c5d5a001616032a936e255af46b1a2fd800000000000000000000000000000000000000000000000000000000000000600000000000000000000000000000000000000000000000000000000000000060000000000000000000000000ea77c590bb36c43ef7139ce649cfbcfd6163170d0000000000000000000000000000006d38568b00b457580b734e0076c62de6590000000000000000000000005f25218ed9474b721d6a38c115107428e832fa2e",
        "nonce": "0x5",
        "chainId": "0xab5",
        "zksync": {
          "factoryDeps": [
            [
              0,
              1,
              0,
              0,
              0,
              0,
              0,
              2,
              0,
              8,
              0,
              0,
              0,
              0,
              0,
              2,
              0,
              0,
              0,
              0,
              0,
              1,
              3,
              85,
              0,
              0,
              0,
              96,
              3,
              16,
              2,
              112,
              0,
              0,
              0,
              107,
              3,
              48,
              1,
              151,
              0,
              0,
              0,
              1,
              0,
              32,
              1,
              144,
              0,
              0,
              0,
              28,
              0,
              0,
              193,
              61,
              0,
              0,
              0,
              128,
              2,
              0,
              0,
              57,
              0,
              0,
              0,
              64,
              0,
              32,
              4,
              63,
              0,
              0,
              0,
              4,
              0,
              48,
              0,
              140,
              0,
              0,
              0,
              160,
              0,
              0,
              65,
              61,
              0,
              0,
              0,
              0,
              2,
              1,
              4,
              59,
              0,
              0,
              0,
              224,
              2,
              32,
              2,
              112,
              0,
              0,
              0,
              112,
              0,
              32,
              0,
              156,
              0,
              0,
              0,
              85,
              0,
              0,
              33,
              61,
              0,
              0,
              0,
              115,
              0,
              32,
              0,
              156,
              0,
              0,
              0,
              102,
              0,
              0,
              97,
              61,
              0,
              0,
              0,
              116,
              0,
              32,
              0,
              156,
              0,
              0,
              0,
              160,
              0,
              0,
              193,
              61,
              0,
              0,
              0,
              0,
              1,
              0,
              4,
              22,
              0,
              0,
              0,
              0,
              0,
              1,
              0,
              75,
              0,
              0,
              0,
              160,
              0,
              0,
              193,
              61,
              0,
              0,
              0,
              0,
              1,
              0,
              4,
              18,
              0,
              6,
              0,
              0,
              0,
              1,
              0,
              29,
              0,
              5,
              0,
              0,
              0,
              0,
              0,
              61,
              0,
              0,
              0,
              0,
              1,
              0,
              4,
              21,
              0,
              0,
              0,
              6,
              1,
              16,
              0,
              138,
              0,
              0,
              0,
              110,
              0,
              0,
              1,
              61,
              0,
              0,
              0,
              0,
              2,
              0,
              4,
              22,
              0,
              0,
              0,
              0,
              0,
              2,
              0,
              75,
              0,
              0,
              0,
              160,
              0,
              0,
              193,
              61,
              0,
              0,
              0,
              31,
              2,
              48,
              0,
              57,
              0,
              0,
              0,
              108,
              2,
              32,
              1,
              151,
              0,
              0,
              0,
              224,
              2,
              32,
              0,
              57,
              0,
              0,
              0,
              64,
              0,
              32,
              4,
              63,
              0,
              0,
              0,
              31,
              4,
              48,
              1,
              143,
              0,
              0,
              0,
              109,
              5,
              48,
              1,
              152,
              0,
              0,
              0,
              224,
              2,
              80,
              0,
              57,
              0,
              0,
              0,
              45,
              0,
              0,
              97,
              61,
              0,
              0,
              0,
              224,
              6,
              0,
              0,
              57,
              0,
              0,
              0,
              0,
              7,
              1,
              3,
              79,
              0,
              0,
              0,
              0,
              120,
              7,
              4,
              60,
              0,
              0,
              0,
              0,
              6,
              134,
              4,
              54,
              0,
              0,
              0,
              0,
              0,
              38,
              0,
              75,
              0,
              0,
              0,
              41,
              0,
              0,
              193,
              61,
              0,
              0,
              0,
              0,
              0,
              4,
              0,
              75,
              0,
              0,
              0,
              58,
              0,
              0,
              97,
              61,
              0,
              0,
              0,
              0,
              1,
              81,
              3,
              79,
              0,
              0,
              0,
              3,
              4,
              64,
              2,
              16,
              0,
              0,
              0,
              0,
              5,
              2,
              4,
              51,
              0,
              0,
              0,
              0,
              5,
              69,
              1,
              207,
              0,
              0,
              0,
              0,
              5,
              69,
              2,
              47,
              0,
              0,
              0,
              0,
              1,
              1,
              4,
              59,
              0,
              0,
              1,
              0,
              4,
              64,
              0,
              137,
              0,
              0,
              0,
              0,
              1,
              65,
              2,
              47,
              0,
              0,
              0,
              0,
              1,
              65,
              1,
              207,
              0,
              0,
              0,
              0,
              1,
              81,
              1,
              159,
              0,
              0,
              0,
              0,
              0,
              18,
              4,
              53,
              0,
              0,
              0,
              96,
              0,
              48,
              0,
              140,
              0,
              0,
              0,
              160,
              0,
              0,
              65,
              61,
              0,
              0,
              0,
              224,
              1,
              0,
              4,
              61,
              0,
              0,
              0,
              110,
              0,
              16,
              0,
              156,
              0,
              0,
              0,
              160,
              0,
              0,
              33,
              61,
              0,
              0,
              1,
              0,
              2,
              0,
              4,
              61,
              0,
              0,
              0,
              110,
              0,
              32,
              0,
              156,
              0,
              0,
              0,
              160,
              0,
              0,
              33,
              61,
              0,
              0,
              1,
              32,
              3,
              0,
              4,
              61,
              0,
              0,
              0,
              110,
              0,
              48,
              0,
              156,
              0,
              0,
              0,
              160,
              0,
              0,
              33,
              61,
              0,
              0,
              0,
              128,
              0,
              16,
              4,
              63,
              0,
              0,
              0,
              160,
              0,
              32,
              4,
              63,
              0,
              0,
              0,
              192,
              0,
              48,
              4,
              63,
              0,
              0,
              1,
              64,
              0,
              0,
              4,
              67,
              0,
              0,
              1,
              96,
              0,
              16,
              4,
              67,
              0,
              0,
              0,
              32,
              1,
              0,
              0,
              57,
              0,
              0,
              1,
              128,
              0,
              16,
              4,
              67,
              0,
              0,
              1,
              160,
              0,
              32,
              4,
              67,
              0,
              0,
              0,
              64,
              2,
              0,
              0,
              57,
              0,
              0,
              1,
              192,
              0,
              32,
              4,
              67,
              0,
              0,
              1,
              224,
              0,
              48,
              4,
              67,
              0,
              0,
              1,
              0,
              0,
              16,
              4,
              67,
              0,
              0,
              0,
              3,
              1,
              0,
              0,
              57,
              0,
              0,
              1,
              32,
              0,
              16,
              4,
              67,
              0,
              0,
              0,
              111,
              1,
              0,
              0,
              65,
              0,
              0,
              1,
              167,
              0,
              1,
              4,
              46,
              0,
              0,
              0,
              113,
              0,
              32,
              0,
              156,
              0,
              0,
              0,
              116,
              0,
              0,
              97,
              61,
              0,
              0,
              0,
              114,
              0,
              32,
              0,
              156,
              0,
              0,
              0,
              160,
              0,
              0,
              193,
              61,
              0,
              0,
              0,
              0,
              1,
              0,
              4,
              22,
              0,
              0,
              0,
              0,
              0,
              1,
              0,
              75,
              0,
              0,
              0,
              160,
              0,
              0,
              193,
              61,
              0,
              0,
              0,
              0,
              1,
              0,
              4,
              18,
              0,
              4,
              0,
              0,
              0,
              1,
              0,
              29,
              0,
              3,
              0,
              64,
              0,
              0,
              0,
              61,
              0,
              0,
              0,
              0,
              1,
              0,
              4,
              21,
              0,
              0,
              0,
              4,
              1,
              16,
              0,
              138,
              0,
              0,
              0,
              5,
              1,
              16,
              2,
              16,
              1,
              166,
              1,
              137,
              0,
              0,
              4,
              15,
              0,
              0,
              0,
              128,
              0,
              16,
              4,
              63,
              0,
              0,
              0,
              117,
              1,
              0,
              0,
              65,
              0,
              0,
              1,
              167,
              0,
              1,
              4,
              46,
              0,
              0,
              0,
              0,
              1,
              0,
              4,
              22,
              0,
              0,
              0,
              0,
              0,
              1,
              0,
              75,
              0,
              0,
              0,
              160,
              0,
              0,
              193,
              61,
              0,
              0,
              0,
              0,
              1,
              0,
              4,
              18,
              0,
              8,
              0,
              0,
              0,
              1,
              0,
              29,
              0,
              7,
              0,
              32,
              0,
              0,
              0,
              61,
              0,
              0,
              0,
              0,
              1,
              0,
              4,
              21,
              0,
              0,
              0,
              8,
              1,
              16,
              0,
              138,
              0,
              0,
              0,
              5,
              1,
              16,
              2,
              16,
              1,
              166,
              1,
              137,
              0,
              0,
              4,
              15,
              0,
              0,
              0,
              110,
              1,
              16,
              1,
              151,
              0,
              0,
              0,
              128,
              0,
              16,
              4,
              63,
              0,
              0,
              0,
              117,
              1,
              0,
              0,
              65,
              0,
              0,
              1,
              167,
              0,
              1,
              4,
              46,
              0,
              0,
              0,
              0,
              2,
              0,
              4,
              22,
              0,
              0,
              0,
              0,
              0,
              2,
              0,
              75,
              0,
              0,
              0,
              160,
              0,
              0,
              193,
              61,
              0,
              0,
              0,
              164,
              0,
              48,
              0,
              140,
              0,
              0,
              0,
              160,
              0,
              0,
              65,
              61,
              0,
              0,
              0,
              4,
              2,
              16,
              3,
              112,
              0,
              0,
              0,
              0,
              8,
              2,
              4,
              59,
              0,
              0,
              0,
              107,
              0,
              128,
              0,
              156,
              0,
              0,
              0,
              160,
              0,
              0,
              33,
              61,
              0,
              0,
              0,
              68,
              2,
              16,
              3,
              112,
              0,
              0,
              0,
              0,
              7,
              2,
              4,
              59,
              0,
              0,
              0,
              110,
              0,
              112,
              0,
              156,
              0,
              0,
              0,
              160,
              0,
              0,
              33,
              61,
              0,
              0,
              0,
              132,
              2,
              16,
              3,
              112,
              0,
              0,
              0,
              0,
              4,
              2,
              4,
              59,
              0,
              0,
              0,
              118,
              0,
              64,
              0,
              156,
              0,
              0,
              0,
              160,
              0,
              0,
              33,
              61,
              0,
              0,
              0,
              35,
              2,
              64,
              0,
              57,
              0,
              0,
              0,
              0,
              0,
              50,
              0,
              75,
              0,
              0,
              0,
              160,
              0,
              0,
              129,
              61,
              0,
              0,
              0,
              4,
              5,
              64,
              0,
              57,
              0,
              0,
              0,
              0,
              2,
              81,
              3,
              79,
              0,
              0,
              0,
              0,
              2,
              2,
              4,
              59,
              0,
              0,
              0,
              119,
              0,
              32,
              0,
              156,
              0,
              0,
              0,
              145,
              0,
              0,
              129,
              61,
              0,
              0,
              0,
              31,
              6,
              32,
              0,
              57,
              0,
              0,
              0,
              120,
              6,
              96,
              1,
              151,
              0,
              0,
              0,
              121,
              0,
              96,
              0,
              156,
              0,
              0,
              0,
              151,
              0,
              0,
              161,
              61,
              0,
              0,
              0,
              133,
              1,
              0,
              0,
              65,
              0,
              0,
              0,
              0,
              0,
              16,
              4,
              63,
              0,
              0,
              0,
              65,
              1,
              0,
              0,
              57,
              0,
              0,
              0,
              4,
              0,
              16,
              4,
              63,
              0,
              0,
              0,
              134,
              1,
              0,
              0,
              65,
              0,
              0,
              1,
              168,
              0,
              1,
              4,
              48,
              0,
              0,
              0,
              63,
              6,
              96,
              0,
              57,
              0,
              0,
              0,
              120,
              6,
              96,
              1,
              151,
              0,
              0,
              0,
              128,
              6,
              96,
              0,
              57,
              0,
              0,
              0,
              64,
              0,
              96,
              4,
              63,
              0,
              0,
              0,
              128,
              0,
              32,
              4,
              63,
              0,
              0,
              0,
              0,
              4,
              36,
              0,
              25,
              0,
              0,
              0,
              36,
              4,
              64,
              0,
              57,
              0,
              0,
              0,
              0,
              0,
              52,
              0,
              75,
              0,
              0,
              0,
              162,
              0,
              0,
              161,
              61,
              0,
              0,
              0,
              0,
              1,
              0,
              0,
              25,
              0,
              0,
              1,
              168,
              0,
              1,
              4,
              48,
              0,
              2,
              0,
              0,
              0,
              8,
              0,
              29,
              0,
              1,
              0,
              0,
              0,
              7,
              0,
              29,
              0,
              0,
              0,
              32,
              3,
              80,
              0,
              57,
              0,
              0,
              0,
              0,
              3,
              49,
              3,
              79,
              0,
              0,
              0,
              135,
              4,
              32,
              1,
              152,
              0,
              0,
              0,
              31,
              5,
              32,
              1,
              143,
              0,
              0,
              0,
              160,
              1,
              64,
              0,
              57,
              0,
              0,
              0,
              176,
              0,
              0,
              97,
              61,
              0,
              0,
              0,
              160,
              6,
              0,
              0,
              57,
              0,
              0,
              0,
              0,
              7,
              3,
              3,
              79,
              0,
              0,
              0,
              0,
              120,
              7,
              4,
              60,
              0,
              0,
              0,
              0,
              6,
              134,
              4,
              54,
              0,
              0,
              0,
              0,
              0,
              22,
              0,
              75,
              0,
              0,
              0,
              172,
              0,
              0,
              193,
              61,
              0,
              0,
              0,
              0,
              0,
              5,
              0,
              75,
              0,
              0,
              0,
              189,
              0,
              0,
              97,
              61,
              0,
              0,
              0,
              0,
              3,
              67,
              3,
              79,
              0,
              0,
              0,
              3,
              4,
              80,
              2,
              16,
              0,
              0,
              0,
              0,
              5,
              1,
              4,
              51,
              0,
              0,
              0,
              0,
              5,
              69,
              1,
              207,
              0,
              0,
              0,
              0,
              5,
              69,
              2,
              47,
              0,
              0,
              0,
              0,
              3,
              3,
              4,
              59,
              0,
              0,
              1,
              0,
              4,
              64,
              0,
              137,
              0,
              0,
              0,
              0,
              3,
              67,
              2,
              47,
              0,
              0,
              0,
              0,
              3,
              67,
              1,
              207,
              0,
              0,
              0,
              0,
              3,
              83,
              1,
              159,
              0,
              0,
              0,
              0,
              0,
              49,
              4,
              53,
              0,
              0,
              0,
              160,
              1,
              32,
              0,
              57,
              0,
              0,
              0,
              0,
              0,
              1,
              4,
              53,
              0,
              0,
              0,
              122,
              1,
              0,
              0,
              65,
              0,
              0,
              0,
              0,
              0,
              16,
              4,
              67,
              0,
              0,
              0,
              0,
              1,
              0,
              4,
              18,
              0,
              0,
              0,
              4,
              0,
              16,
              4,
              67,
              0,
              0,
              0,
              32,
              1,
              0,
              0,
              57,
              0,
              0,
              0,
              36,
              0,
              16,
              4,
              67,
              0,
              0,
              0,
              0,
              1,
              0,
              4,
              20,
              0,
              0,
              0,
              107,
              0,
              16,
              0,
              156,
              0,
              0,
              0,
              107,
              1,
              0,
              128,
              65,
              0,
              0,
              0,
              192,
              1,
              16,
              2,
              16,
              0,
              0,
              0,
              123,
              1,
              16,
              1,
              199,
              0,
              0,
              128,
              5,
              2,
              0,
              0,
              57,
              1,
              166,
              1,
              161,
              0,
              0,
              4,
              15,
              0,
              0,
              0,
              1,
              0,
              32,
              1,
              144,
              0,
              0,
              1,
              118,
              0,
              0,
              97,
              61,
              0,
              0,
              0,
              0,
              1,
              1,
              4,
              59,
              0,
              0,
              0,
              110,
              1,
              16,
              1,
              151,
              0,
              0,
              0,
              0,
              2,
              0,
              4,
              17,
              0,
              0,
              0,
              0,
              0,
              18,
              0,
              75,
              0,
              0,
              1,
              119,
              0,
              0,
              193,
              61,
              0,
              0,
              0,
              122,
              1,
              0,
              0,
              65,
              0,
              0,
              0,
              0,
              0,
              16,
              4,
              67,
              0,
              0,
              0,
              0,
              1,
              0,
              4,
              18,
              0,
              0,
              0,
              4,
              0,
              16,
              4,
              67,
              0,
              0,
              0,
              64,
              1,
              0,
              0,
              57,
              0,
              0,
              0,
              36,
              0,
              16,
              4,
              67,
              0,
              0,
              0,
              0,
              1,
              0,
              4,
              20,
              0,
              0,
              0,
              107,
              0,
              16,
              0,
              156,
              0,
              0,
              0,
              107,
              1,
              0,
              128,
              65,
              0,
              0,
              0,
              192,
              1,
              16,
              2,
              16,
              0,
              0,
              0,
              123,
              1,
              16,
              1,
              199,
              0,
              0,
              128,
              5,
              2,
              0,
              0,
              57,
              1,
              166,
              1,
              161,
              0,
              0,
              4,
              15,
              0,
              0,
              0,
              1,
              0,
              32,
              1,
              144,
              0,
              0,
              1,
              118,
              0,
              0,
              97,
              61,
              0,
              0,
              0,
              0,
              1,
              1,
              4,
              59,
              0,
              0,
              0,
              36,
              2,
              0,
              0,
              57,
              0,
              0,
              0,
              0,
              2,
              32,
              3,
              103,
              0,
              0,
              0,
              0,
              2,
              2,
              4,
              59,
              0,
              0,
              0,
              0,
              0,
              18,
              0,
              75,
              0,
              0,
              1,
              119,
              0,
              0,
              193,
              61,
              0,
              0,
              0,
              2,
              1,
              0,
              0,
              41,
              0,
              0,
              0,
              107,
              1,
              16,
              1,
              151,
              0,
              0,
              118,
              47,
              0,
              16,
              0,
              140,
              0,
              0,
              1,
              127,
              0,
              0,
              193,
              61,
              0,
              0,
              0,
              122,
              1,
              0,
              0,
              65,
              0,
              0,
              0,
              0,
              0,
              16,
              4,
              67,
              0,
              0,
              0,
              0,
              1,
              0,
              4,
              18,
              0,
              0,
              0,
              4,
              0,
              16,
              4,
              67,
              0,
              0,
              0,
              36,
              0,
              0,
              4,
              67,
              0,
              0,
              0,
              0,
              1,
              0,
              4,
              20,
              0,
              0,
              0,
              107,
              0,
              16,
              0,
              156,
              0,
              0,
              0,
              107,
              1,
              0,
              128,
              65,
              0,
              0,
              0,
              192,
              1,
              16,
              2,
              16,
              0,
              0,
              0,
              123,
              1,
              16,
              1,
              199,
              0,
              0,
              128,
              5,
              2,
              0,
              0,
              57,
              1,
              166,
              1,
              161,
              0,
              0,
              4,
              15,
              0,
              0,
              0,
              1,
              0,
              32,
              1,
              144,
              0,
              0,
              1,
              118,
              0,
              0,
              97,
              61,
              0,
              0,
              0,
              0,
              1,
              1,
              4,
              59,
              0,
              0,
              0,
              110,
              1,
              16,
              1,
              151,
              0,
              0,
              0,
              1,
              0,
              16,
              0,
              107,
              0,
              0,
              1,
              130,
              0,
              0,
              193,
              61,
              0,
              0,
              0,
              128,
              3,
              0,
              4,
              61,
              0,
              0,
              0,
              128,
              0,
              48,
              0,
              156,
              0,
              0,
              0,
              160,
              0,
              0,
              33,
              61,
              0,
              0,
              0,
              64,
              0,
              48,
              0,
              140,
              0,
              0,
              0,
              160,
              0,
              0,
              65,
              61,
              0,
              0,
              0,
              160,
              1,
              0,
              4,
              61,
              0,
              0,
              0,
              110,
              0,
              16,
              0,
              156,
              0,
              0,
              0,
              160,
              0,
              0,
              33,
              61,
              0,
              0,
              0,
              192,
              2,
              0,
              4,
              61,
              0,
              0,
              0,
              118,
              0,
              32,
              0,
              156,
              0,
              0,
              0,
              160,
              0,
              0,
              33,
              61,
              0,
              0,
              0,
              160,
              5,
              48,
              0,
              57,
              0,
              0,
              0,
              191,
              3,
              32,
              0,
              57,
              0,
              0,
              0,
              0,
              0,
              83,
              0,
              75,
              0,
              0,
              0,
              0,
              4,
              0,
              0,
              25,
              0,
              0,
              0,
              129,
              4,
              0,
              128,
              65,
              0,
              0,
              0,
              129,
              6,
              80,
              1,
              151,
              0,
              0,
              0,
              129,
              3,
              48,
              1,
              151,
              0,
              0,
              0,
              0,
              7,
              99,
              1,
              63,
              0,
              0,
              0,
              0,
              0,
              99,
              0,
              75,
              0,
              0,
              0,
              0,
              3,
              0,
              0,
              25,
              0,
              0,
              0,
              129,
              3,
              0,
              64,
              65,
              0,
              0,
              0,
              129,
              0,
              112,
              0,
              156,
              0,
              0,
              0,
              0,
              3,
              4,
              192,
              25,
              0,
              0,
              0,
              0,
              0,
              3,
              0,
              75,
              0,
              0,
              0,
              160,
              0,
              0,
              193,
              61,
              0,
              0,
              0,
              160,
              3,
              32,
              0,
              57,
              0,
              0,
              0,
              0,
              3,
              3,
              4,
              51,
              0,
              0,
              0,
              118,
              0,
              48,
              0,
              156,
              0,
              0,
              0,
              145,
              0,
              0,
              33,
              61,
              0,
              0,
              0,
              31,
              4,
              48,
              0,
              57,
              0,
              0,
              0,
              120,
              4,
              64,
              1,
              151,
              0,
              0,
              0,
              63,
              4,
              64,
              0,
              57,
              0,
              0,
              0,
              130,
              6,
              64,
              1,
              151,
              0,
              0,
              0,
              64,
              4,
              0,
              4,
              61,
              0,
              0,
              0,
              0,
              6,
              100,
              0,
              25,
              0,
              0,
              0,
              0,
              0,
              70,
              0,
              75,
              0,
              0,
              0,
              0,
              7,
              0,
              0,
              57,
              0,
              0,
              0,
              1,
              7,
              0,
              64,
              57,
              0,
              0,
              0,
              118,
              0,
              96,
              0,
              156,
              0,
              0,
              0,
              145,
              0,
              0,
              33,
              61,
              0,
              0,
              0,
              1,
              0,
              112,
              1,
              144,
              0,
              0,
              0,
              145,
              0,
              0,
              193,
              61,
              0,
              0,
              0,
              64,
              0,
              96,
              4,
              63,
              0,
              0,
              0,
              0,
              6,
              52,
              4,
              54,
              0,
              0,
              0,
              192,
              7,
              32,
              0,
              57,
              0,
              0,
              0,
              0,
              2,
              55,
              0,
              25,
              0,
              0,
              0,
              0,
              0,
              82,
              0,
              75,
              0,
              0,
              0,
              160,
              0,
              0,
              33,
              61,
              0,
              0,
              0,
              110,
              2,
              16,
              1,
              151,
              0,
              0,
              0,
              0,
              0,
              3,
              0,
              75,
              0,
              0,
              1,
              58,
              0,
              0,
              97,
              61,
              0,
              0,
              0,
              0,
              1,
              0,
              0,
              25,
              0,
              0,
              0,
              0,
              5,
              22,
              0,
              25,
              0,
              0,
              0,
              0,
              8,
              23,
              0,
              25,
              0,
              0,
              0,
              0,
              8,
              8,
              4,
              51,
              0,
              0,
              0,
              0,
              0,
              133,
              4,
              53,
              0,
              0,
              0,
              32,
              1,
              16,
              0,
              57,
              0,
              0,
              0,
              0,
              0,
              49,
              0,
              75,
              0,
              0,
              1,
              51,
              0,
              0,
              65,
              61,
              0,
              0,
              0,
              0,
              1,
              54,
              0,
              25,
              0,
              0,
              0,
              0,
              0,
              1,
              4,
              53,
              0,
              0,
              0,
              107,
              0,
              96,
              0,
              156,
              0,
              0,
              0,
              107,
              6,
              0,
              128,
              65,
              0,
              0,
              0,
              64,
              1,
              96,
              2,
              16,
              0,
              0,
              0,
              0,
              3,
              4,
              4,
              51,
              0,
              0,
              0,
              107,
              0,
              48,
              0,
              156,
              0,
              0,
              0,
              107,
              3,
              0,
              128,
              65,
              0,
              0,
              0,
              96,
              3,
              48,
              2,
              16,
              0,
              0,
              0,
              0,
              1,
              19,
              1,
              159,
              0,
              0,
              0,
              0,
              3,
              0,
              4,
              20,
              0,
              0,
              0,
              107,
              0,
              48,
              0,
              156,
              0,
              0,
              0,
              107,
              3,
              0,
              128,
              65,
              0,
              0,
              0,
              192,
              3,
              48,
              2,
              16,
              0,
              0,
              0,
              0,
              1,
              49,
              1,
              159,
              1,
              166,
              1,
              156,
              0,
              0,
              4,
              15,
              0,
              0,
              0,
              96,
              3,
              16,
              2,
              112,
              0,
              0,
              0,
              107,
              3,
              48,
              1,
              152,
              0,
              0,
              1,
              114,
              0,
              0,
              97,
              61,
              0,
              0,
              0,
              31,
              4,
              48,
              0,
              57,
              0,
              0,
              0,
              108,
              4,
              64,
              1,
              151,
              0,
              0,
              0,
              63,
              4,
              64,
              0,
              57,
              0,
              0,
              0,
              131,
              4,
              64,
              1,
              151,
              0,
              0,
              0,
              64,
              5,
              0,
              4,
              61,
              0,
              0,
              0,
              0,
              4,
              69,
              0,
              25,
              0,
              0,
              0,
              0,
              0,
              84,
              0,
              75,
              0,
              0,
              0,
              0,
              6,
              0,
              0,
              57,
              0,
              0,
              0,
              1,
              6,
              0,
              64,
              57,
              0,
              0,
              0,
              118,
              0,
              64,
              0,
              156,
              0,
              0,
              0,
              145,
              0,
              0,
              33,
              61,
              0,
              0,
              0,
              1,
              0,
              96,
              1,
              144,
              0,
              0,
              0,
              145,
              0,
              0,
              193,
              61,
              0,
              0,
              0,
              64,
              0,
              64,
              4,
              63,
              0,
              0,
              0,
              31,
              4,
              48,
              1,
              143,
              0,
              0,
              0,
              0,
              6,
              53,
              4,
              54,
              0,
              0,
              0,
              109,
              5,
              48,
              1,
              152,
              0,
              0,
              0,
              0,
              3,
              86,
              0,
              25,
              0,
              0,
              1,
              101,
              0,
              0,
              97,
              61,
              0,
              0,
              0,
              0,
              7,
              1,
              3,
              79,
              0,
              0,
              0,
              0,
              120,
              7,
              4,
              60,
              0,
              0,
              0,
              0,
              6,
              134,
              4,
              54,
              0,
              0,
              0,
              0,
              0,
              54,
              0,
              75,
              0,
              0,
              1,
              97,
              0,
              0,
              193,
              61,
              0,
              0,
              0,
              0,
              0,
              4,
              0,
              75,
              0,
              0,
              1,
              114,
              0,
              0,
              97,
              61,
              0,
              0,
              0,
              0,
              1,
              81,
              3,
              79,
              0,
              0,
              0,
              3,
              4,
              64,
              2,
              16,
              0,
              0,
              0,
              0,
              5,
              3,
              4,
              51,
              0,
              0,
              0,
              0,
              5,
              69,
              1,
              207,
              0,
              0,
              0,
              0,
              5,
              69,
              2,
              47,
              0,
              0,
              0,
              0,
              1,
              1,
              4,
              59,
              0,
              0,
              1,
              0,
              4,
              64,
              0,
              137,
              0,
              0,
              0,
              0,
              1,
              65,
              2,
              47,
              0,
              0,
              0,
              0,
              1,
              65,
              1,
              207,
              0,
              0,
              0,
              0,
              1,
              81,
              1,
              159,
              0,
              0,
              0,
              0,
              0,
              19,
              4,
              53,
              0,
              0,
              0,
              1,
              0,
              32,
              1,
              144,
              0,
              0,
              1,
              133,
              0,
              0,
              97,
              61,
              0,
              0,
              0,
              0,
              1,
              0,
              0,
              25,
              0,
              0,
              1,
              167,
              0,
              1,
              4,
              46,
              0,
              0,
              0,
              0,
              0,
              1,
              4,
              47,
              0,
              0,
              0,
              64,
              1,
              0,
              4,
              61,
              0,
              0,
              0,
              124,
              2,
              0,
              0,
              65,
              0,
              0,
              0,
              0,
              0,
              33,
              4,
              53,
              0,
              0,
              0,
              107,
              0,
              16,
              0,
              156,
              0,
              0,
              0,
              107,
              1,
              0,
              128,
              65,
              0,
              0,
              0,
              64,
              1,
              16,
              2,
              16,
              0,
              0,
              0,
              125,
              1,
              16,
              1,
              199,
              0,
              0,
              1,
              168,
              0,
              1,
              4,
              48,
              0,
              0,
              0,
              64,
              1,
              0,
              4,
              61,
              0,
              0,
              0,
              126,
              2,
              0,
              0,
              65,
              0,
              0,
              1,
              121,
              0,
              0,
              1,
              61,
              0,
              0,
              0,
              64,
              1,
              0,
              4,
              61,
              0,
              0,
              0,
              127,
              2,
              0,
              0,
              65,
              0,
              0,
              1,
              121,
              0,
              0,
              1,
              61,
              0,
              0,
              0,
              64,
              1,
              0,
              4,
              61,
              0,
              0,
              0,
              132,
              2,
              0,
              0,
              65,
              0,
              0,
              1,
              121,
              0,
              0,
              1,
              61,
              0,
              0,
              0,
              0,
              0,
              1,
              4,
              47,
              0,
              0,
              0,
              122,
              2,
              0,
              0,
              65,
              0,
              0,
              0,
              0,
              0,
              32,
              4,
              67,
              0,
              0,
              0,
              5,
              1,
              16,
              2,
              112,
              0,
              0,
              0,
              0,
              2,
              1,
              0,
              49,
              0,
              0,
              0,
              4,
              0,
              32,
              4,
              67,
              0,
              0,
              0,
              1,
              1,
              1,
              0,
              49,
              0,
              0,
              0,
              36,
              0,
              16,
              4,
              67,
              0,
              0,
              0,
              0,
              1,
              0,
              4,
              20,
              0,
              0,
              0,
              107,
              0,
              16,
              0,
              156,
              0,
              0,
              0,
              107,
              1,
              0,
              128,
              65,
              0,
              0,
              0,
              192,
              1,
              16,
              2,
              16,
              0,
              0,
              0,
              123,
              1,
              16,
              1,
              199,
              0,
              0,
              128,
              5,
              2,
              0,
              0,
              57,
              1,
              166,
              1,
              161,
              0,
              0,
              4,
              15,
              0,
              0,
              0,
              1,
              0,
              32,
              1,
              144,
              0,
              0,
              1,
              155,
              0,
              0,
              97,
              61,
              0,
              0,
              0,
              0,
              1,
              1,
              4,
              59,
              0,
              0,
              0,
              0,
              0,
              1,
              4,
              45,
              0,
              0,
              0,
              0,
              0,
              1,
              4,
              47,
              0,
              0,
              1,
              159,
              0,
              33,
              4,
              33,
              0,
              0,
              0,
              1,
              2,
              0,
              0,
              57,
              0,
              0,
              0,
              0,
              0,
              1,
              4,
              45,
              0,
              0,
              0,
              0,
              2,
              0,
              0,
              25,
              0,
              0,
              0,
              0,
              0,
              1,
              4,
              45,
              0,
              0,
              1,
              164,
              0,
              33,
              4,
              35,
              0,
              0,
              0,
              1,
              2,
              0,
              0,
              57,
              0,
              0,
              0,
              0,
              0,
              1,
              4,
              45,
              0,
              0,
              0,
              0,
              2,
              0,
              0,
              25,
              0,
              0,
              0,
              0,
              0,
              1,
              4,
              45,
              0,
              0,
              1,
              166,
              0,
              0,
              4,
              50,
              0,
              0,
              1,
              167,
              0,
              1,
              4,
              46,
              0,
              0,
              1,
              168,
              0,
              1,
              4,
              48,
              0,
              0,
              0,
              0,
              0,
              0,
              0,
              0,
              0,
              0,
              0,
              0,
              0,
              0,
              0,
              0,
              0,
              0,
              0,
              0,
              0,
              0,
              0,
              0,
              0,
              0,
              0,
              0,
              0,
              0,
              0,
              0,
              0,
              0,
              0,
              0,
              0,
              0,
              0,
              0,
              0,
              0,
              0,
              0,
              0,
              0,
              0,
              0,
              0,
              0,
              0,
              0,
              255,
              255,
              255,
              255,
              0,
              0,
              0,
              0,
              0,
              0,
              0,
              0,
              0,
              0,
              0,
              0,
              0,
              0,
              0,
              0,
              0,
              0,
              0,
              0,
              0,
              0,
              0,
              0,
              0,
              0,
              0,
              1,
              255,
              255,
              255,
              224,
              0,
              0,
              0,
              0,
              0,
              0,
              0,
              0,
              0,
              0,
              0,
              0,
              0,
              0,
              0,
              0,
              0,
              0,
              0,
              0,
              0,
              0,
              0,
              0,
              0,
              0,
              0,
              0,
              255,
              255,
              255,
              224,
              0,
              0,
              0,
              0,
              0,
              0,
              0,
              0,
              0,
              0,
              0,
              0,
              255,
              255,
              255,
              255,
              255,
              255,
              255,
              255,
              255,
              255,
              255,
              255,
              255,
              255,
              255,
              255,
              255,
              255,
              255,
              255,
              0,
              0,
              0,
              2,
              0,
              0,
              0,
              0,
              0,
              0,
              0,
              0,
              0,
              0,
              0,
              0,
              0,
              0,
              1,
              0,
              0,
              0,
              1,
              0,
              0,
              0,
              0,
              0,
              0,
              0,
              0,
              0,
              0,
              0,
              0,
              0,
              0,
              0,
              0,
              0,
              0,
              0,
              0,
              0,
              0,
              0,
              0,
              0,
              0,
              0,
              0,
              0,
              0,
              0,
              0,
              0,
              0,
              0,
              0,
              0,
              181,
              111,
              253,
              78,
              0,
              0,
              0,
              0,
              0,
              0,
              0,
              0,
              0,
              0,
              0,
              0,
              0,
              0,
              0,
              0,
              0,
              0,
              0,
              0,
              0,
              0,
              0,
              0,
              0,
              0,
              0,
              0,
              181,
              111,
              253,
              79,
              0,
              0,
              0,
              0,
              0,
              0,
              0,
              0,
              0,
              0,
              0,
              0,
              0,
              0,
              0,
              0,
              0,
              0,
              0,
              0,
              0,
              0,
              0,
              0,
              0,
              0,
              0,
              0,
              226,
              117,
              252,
              106,
              0,
              0,
              0,
              0,
              0,
              0,
              0,
              0,
              0,
              0,
              0,
              0,
              0,
              0,
              0,
              0,
              0,
              0,
              0,
              0,
              0,
              0,
              0,
              0,
              0,
              0,
              0,
              0,
              94,
              132,
              184,
              28,
              0,
              0,
              0,
              0,
              0,
              0,
              0,
              0,
              0,
              0,
              0,
              0,
              0,
              0,
              0,
              0,
              0,
              0,
              0,
              0,
              0,
              0,
              0,
              0,
              0,
              0,
              0,
              0,
              109,
              7,
              152,
              19,
              0,
              0,
              0,
              0,
              0,
              0,
              0,
              0,
              0,
              0,
              0,
              0,
              0,
              0,
              0,
              0,
              0,
              0,
              0,
              32,
              0,
              0,
              0,
              128,
              0,
              0,
              0,
              0,
              0,
              0,
              0,
              0,
              0,
              0,
              0,
              0,
              0,
              0,
              0,
              0,
              0,
              0,
              0,
              0,
              0,
              0,
              0,
              0,
              0,
              0,
              0,
              0,
              0,
              0,
              0,
              0,
              255,
              255,
              255,
              255,
              255,
              255,
              255,
              255,
              0,
              0,
              0,
              0,
              0,
              0,
              0,
              0,
              0,
              0,
              0,
              0,
              0,
              0,
              0,
              0,
              0,
              0,
              0,
              0,
              0,
              0,
              0,
              1,
              0,
              0,
              0,
              0,
              0,
              0,
              0,
              0,
              0,
              0,
              0,
              0,
              0,
              0,
              0,
              0,
              0,
              0,
              0,
              0,
              0,
              0,
              0,
              0,
              0,
              0,
              0,
              0,
              0,
              0,
              0,
              1,
              255,
              255,
              255,
              255,
              255,
              255,
              255,
              224,
              0,
              0,
              0,
              0,
              0,
              0,
              0,
              0,
              0,
              0,
              0,
              0,
              0,
              0,
              0,
              0,
              0,
              0,
              0,
              0,
              0,
              0,
              0,
              0,
              255,
              255,
              255,
              255,
              255,
              255,
              255,
              64,
              49,
              10,
              176,
              137,
              228,
              67,
              154,
              76,
              21,
              208,
              137,
              249,
              74,
              251,
              120,
              150,
              255,
              85,
              58,
              236,
              177,
              7,
              147,
              208,
              171,
              136,
              45,
              229,
              157,
              153,
              163,
              46,
              2,
              0,
              0,
              2,
              0,
              0,
              0,
              0,
              0,
              0,
              0,
              0,
              0,
              0,
              0,
              0,
              0,
              0,
              0,
              68,
              0,
              0,
              0,
              0,
              0,
              0,
              0,
              0,
              0,
              0,
              0,
              0,
              234,
              142,
              78,
              181,
              0,
              0,
              0,
              0,
              0,
              0,
              0,
              0,
              0,
              0,
              0,
              0,
              0,
              0,
              0,
              0,
              0,
              0,
              0,
              0,
              0,
              0,
              0,
              0,
              0,
              0,
              0,
              0,
              0,
              0,
              0,
              0,
              0,
              0,
              0,
              0,
              0,
              0,
              0,
              0,
              0,
              0,
              0,
              0,
              0,
              0,
              0,
              4,
              0,
              0,
              0,
              0,
              0,
              0,
              0,
              0,
              0,
              0,
              0,
              0,
              47,
              116,
              110,
              255,
              0,
              0,
              0,
              0,
              0,
              0,
              0,
              0,
              0,
              0,
              0,
              0,
              0,
              0,
              0,
              0,
              0,
              0,
              0,
              0,
              0,
              0,
              0,
              0,
              0,
              0,
              0,
              0,
              116,
              19,
              228,
              134,
              0,
              0,
              0,
              0,
              0,
              0,
              0,
              0,
              0,
              0,
              0,
              0,
              0,
              0,
              0,
              0,
              0,
              0,
              0,
              0,
              0,
              0,
              0,
              0,
              0,
              0,
              0,
              0,
              127,
              255,
              255,
              255,
              255,
              255,
              255,
              255,
              255,
              255,
              255,
              255,
              255,
              255,
              255,
              255,
              255,
              255,
              255,
              255,
              255,
              255,
              255,
              255,
              255,
              255,
              255,
              255,
              255,
              255,
              255,
              255,
              128,
              0,
              0,
              0,
              0,
              0,
              0,
              0,
              0,
              0,
              0,
              0,
              0,
              0,
              0,
              0,
              0,
              0,
              0,
              0,
              0,
              0,
              0,
              0,
              0,
              0,
              0,
              0,
              0,
              0,
              0,
              0,
              0,
              0,
              0,
              0,
              0,
              0,
              0,
              0,
              0,
              0,
              0,
              0,
              0,
              0,
              0,
              0,
              0,
              0,
              0,
              0,
              0,
              0,
              0,
              3,
              255,
              255,
              255,
              255,
              255,
              255,
              255,
              224,
              0,
              0,
              0,
              0,
              0,
              0,
              0,
              0,
              0,
              0,
              0,
              0,
              0,
              0,
              0,
              0,
              0,
              0,
              0,
              0,
              0,
              0,
              0,
              0,
              0,
              0,
              0,
              3,
              255,
              255,
              255,
              224,
              79,
              121,
              27,
              249,
              0,
              0,
              0,
              0,
              0,
              0,
              0,
              0,
              0,
              0,
              0,
              0,
              0,
              0,
              0,
              0,
              0,
              0,
              0,
              0,
              0,
              0,
              0,
              0,
              0,
              0,
              0,
              0,
              78,
              72,
              123,
              113,
              0,
              0,
              0,
              0,
              0,
              0,
              0,
              0,
              0,
              0,
              0,
              0,
              0,
              0,
              0,
              0,
              0,
              0,
              0,
              0,
              0,
              0,
              0,
              0,
              0,
              0,
              0,
              0,
              0,
              0,
              0,
              0,
              0,
              0,
              0,
              0,
              0,
              0,
              0,
              0,
              0,
              0,
              0,
              0,
              0,
              0,
              0,
              36,
              0,
              0,
              0,
              0,
              0,
              0,
              0,
              0,
              0,
              0,
              0,
              0,
              255,
              255,
              255,
              255,
              255,
              255,
              255,
              255,
              255,
              255,
              255,
              255,
              255,
              255,
              255,
              255,
              255,
              255,
              255,
              255,
              255,
              255,
              255,
              255,
              255,
              255,
              255,
              255,
              255,
              255,
              255,
              224,
              0,
              0,
              0,
              0,
              0,
              0,
              0,
              0,
              0,
              162,
              100,
              105,
              112,
              102,
              115,
              88,
              34,
              18,
              32,
              212,
              228,
              231,
              241,
              127,
              198,
              255,
              211,
              203,
              145,
              143,
              36,
              134,
              240,
              239,
              81,
              17,
              150,
              188,
              5,
              195,
              116,
              234,
              183,
              218,
              197,
              31,
              134,
              91,
              42,
              222,
              255,
              100,
              115,
              111,
              108,
              99,
              120,
              36,
              122,
              107,
              115,
              111,
              108,
              99,
              58,
              49,
              46,
              53,
              46,
              49,
              53,
              59,
              115,
              111,
              108,
              99,
              58,
              48,
              46,
              56,
              46,
              50,
              51,
              59,
              108,
              108,
              118,
              109,
              58,
              49,
              46,
              48,
              46,
              50,
              0,
              85
            ]
          ],
          "paymasterData": null,
          "forceEvmInterpreter": null
        }
      },
      "additionalContracts": [
        {
          "transactionType": "CREATE",
          "contractName": null,
          "address": "0x000000000e0e120fcac7b4d98e9e35e1de6fdadb",
          "initCode": "0x000000000000000000000000ea77c590bb36c43ef7139ce649cfbcfd6163170d0000000000000000000000000000006d38568b00b457580b734e0076c62de6590000000000000000000000005f25218ed9474b721d6a38c115107428e832fa2e"
        }
      ],
      "isFixedGasLimit": false
    },
    {
      "hash": "0x67a422baf2146ef44d0c33f4d0c2e60bf0b3229eac013d1f0dc27d32dc9824e1",
      "transactionType": "CALL",
      "contractName": null,
      "contractAddress": "0x0000006d38568b00b457580b734e0076c62de659",
      "function": "grantRole(bytes32,address)",
      "arguments": [
        "0x65d7a28e3265b37a6474929f336521b332c1681b933f6cb9f3376673440d862a",
        "0x54C5Ef136D02b95C4Ff217aF93FA63F9E4119919"
      ],
      "transaction": {
        "from": "0x54f9b12743a7deec0ea48721683cbebedc6e17bc",
        "to": "0x0000006d38568b00b457580b734e0076c62de659",
        "gas": "0x656d6",
        "value": "0x0",
        "input": "0x2f2ff15d65d7a28e3265b37a6474929f336521b332c1681b933f6cb9f3376673440d862a00000000000000000000000054c5ef136d02b95c4ff217af93fa63f9e4119919",
        "nonce": "0x6",
        "chainId": "0xab5",
        "zksync": {
          "factoryDeps": [],
          "paymasterData": null,
          "forceEvmInterpreter": null
        }
      },
      "additionalContracts": [],
      "isFixedGasLimit": false
    },
    {
      "hash": "0x046cea77850ce1572c1ea977ab42ddedcdaffae4de0561894bb97f0f91fcea0b",
      "transactionType": "CALL",
      "contractName": null,
      "contractAddress": "0x0000006d38568b00b457580b734e0076c62de659",
      "function": "grantRole(bytes32,address)",
      "arguments": [
        "0x65d7a28e3265b37a6474929f336521b332c1681b933f6cb9f3376673440d862a",
        "0x17e06ce6914E3969f7BD37D8b2a563890cA1c96e"
      ],
      "transaction": {
        "from": "0x54f9b12743a7deec0ea48721683cbebedc6e17bc",
        "to": "0x0000006d38568b00b457580b734e0076c62de659",
        "gas": "0x5fcb5",
        "value": "0x0",
        "input": "0x2f2ff15d65d7a28e3265b37a6474929f336521b332c1681b933f6cb9f3376673440d862a00000000000000000000000017e06ce6914e3969f7bd37d8b2a563890ca1c96e",
        "nonce": "0x7",
        "chainId": "0xab5",
        "zksync": {
          "factoryDeps": [],
          "paymasterData": null,
          "forceEvmInterpreter": null
        }
      },
      "additionalContracts": [],
      "isFixedGasLimit": false
    },
    {
      "hash": "0xc0ba9a692732998c4b337afef4dae6a49dfc0ad69c707d61e03f739833b62d75",
      "transactionType": "CALL",
      "contractName": null,
      "contractAddress": "0x0000006d38568b00b457580b734e0076c62de659",
      "function": "grantRole(bytes32,address)",
      "arguments": [
        "0x65d7a28e3265b37a6474929f336521b332c1681b933f6cb9f3376673440d862a",
        "0x8d8290d49e88D16d81C6aDf6C8774eD88762274A"
      ],
      "transaction": {
        "from": "0x54f9b12743a7deec0ea48721683cbebedc6e17bc",
        "to": "0x0000006d38568b00b457580b734e0076c62de659",
        "gas": "0x5fcb5",
        "value": "0x0",
        "input": "0x2f2ff15d65d7a28e3265b37a6474929f336521b332c1681b933f6cb9f3376673440d862a0000000000000000000000008d8290d49e88d16d81c6adf6c8774ed88762274a",
        "nonce": "0x8",
        "chainId": "0xab5",
        "zksync": {
          "factoryDeps": [],
          "paymasterData": null,
          "forceEvmInterpreter": null
        }
      },
      "additionalContracts": [],
      "isFixedGasLimit": false
    },
    {
      "hash": "0xfdbf50d5188bcc5e8340409f8b97ec93db6ea57670f063f21663ae2ccd45c029",
      "transactionType": "CALL",
      "contractName": null,
      "contractAddress": "0x0000006d38568b00b457580b734e0076c62de659",
      "function": "grantRole(bytes32,address)",
      "arguments": [
        "0x65d7a28e3265b37a6474929f336521b332c1681b933f6cb9f3376673440d862a",
        "0xcbc616D595D38483e6AdC45C7E426f44bF230928"
      ],
      "transaction": {
        "from": "0x54f9b12743a7deec0ea48721683cbebedc6e17bc",
        "to": "0x0000006d38568b00b457580b734e0076c62de659",
        "gas": "0x5fcb5",
        "value": "0x0",
        "input": "0x2f2ff15d65d7a28e3265b37a6474929f336521b332c1681b933f6cb9f3376673440d862a000000000000000000000000cbc616d595d38483e6adc45c7e426f44bf230928",
        "nonce": "0x9",
        "chainId": "0xab5",
        "zksync": {
          "factoryDeps": [],
          "paymasterData": null,
          "forceEvmInterpreter": null
        }
      },
      "additionalContracts": [],
      "isFixedGasLimit": false
    },
    {
      "hash": "0x80d87e89a3fcbca0e246806dd2a7384ef435a28b822ccdaae8ede9e1721b76b6",
      "transactionType": "CALL",
      "contractName": null,
      "contractAddress": "0x0000006d38568b00b457580b734e0076c62de659",
      "function": "grantRole(bytes32,address)",
      "arguments": [
        "0x65d7a28e3265b37a6474929f336521b332c1681b933f6cb9f3376673440d862a",
        "0x381e2495e683868F693AA5B1414F712f21d34b40"
      ],
      "transaction": {
        "from": "0x54f9b12743a7deec0ea48721683cbebedc6e17bc",
        "to": "0x0000006d38568b00b457580b734e0076c62de659",
        "gas": "0x5fcb5",
        "value": "0x0",
        "input": "0x2f2ff15d65d7a28e3265b37a6474929f336521b332c1681b933f6cb9f3376673440d862a000000000000000000000000381e2495e683868f693aa5b1414f712f21d34b40",
        "nonce": "0xa",
        "chainId": "0xab5",
        "zksync": {
          "factoryDeps": [],
          "paymasterData": null,
          "forceEvmInterpreter": null
        }
      },
      "additionalContracts": [],
      "isFixedGasLimit": false
    },
    {
      "hash": "0x5e19b32a39354303bf53dc6bd99fb8368d588a89e1845743a295e8002ed04e6c",
      "transactionType": "CALL",
      "contractName": null,
      "contractAddress": "0x0000006d38568b00b457580b734e0076c62de659",
      "function": "grantRole(bytes32,address)",
      "arguments": [
        "0x65d7a28e3265b37a6474929f336521b332c1681b933f6cb9f3376673440d862a",
        "0x6e74053a3798e0fC9a9775F7995316b27f21c4D2"
      ],
      "transaction": {
        "from": "0x54f9b12743a7deec0ea48721683cbebedc6e17bc",
        "to": "0x0000006d38568b00b457580b734e0076c62de659",
        "gas": "0x5fcb5",
        "value": "0x0",
        "input": "0x2f2ff15d65d7a28e3265b37a6474929f336521b332c1681b933f6cb9f3376673440d862a0000000000000000000000006e74053a3798e0fc9a9775f7995316b27f21c4d2",
        "nonce": "0xb",
        "chainId": "0xab5",
        "zksync": {
          "factoryDeps": [],
          "paymasterData": null,
          "forceEvmInterpreter": null
        }
      },
      "additionalContracts": [],
      "isFixedGasLimit": false
    },
    {
      "hash": "0x7de1c236d8698bb1bdfa2afbec286910824334b942f140b5514e825c7e796ef5",
      "transactionType": "CALL",
      "contractName": null,
      "contractAddress": "0x0000006d38568b00b457580b734e0076c62de659",
      "function": "grantRole(bytes32,address)",
      "arguments": [
        "0x65d7a28e3265b37a6474929f336521b332c1681b933f6cb9f3376673440d862a",
        "0xC6EF452b0de9E95Ccb153c2A5A7a90154aab3419"
      ],
      "transaction": {
        "from": "0x54f9b12743a7deec0ea48721683cbebedc6e17bc",
        "to": "0x0000006d38568b00b457580b734e0076c62de659",
        "gas": "0x5fcb5",
        "value": "0x0",
        "input": "0x2f2ff15d65d7a28e3265b37a6474929f336521b332c1681b933f6cb9f3376673440d862a000000000000000000000000c6ef452b0de9e95ccb153c2a5a7a90154aab3419",
        "nonce": "0xc",
        "chainId": "0xab5",
        "zksync": {
          "factoryDeps": [],
          "paymasterData": null,
          "forceEvmInterpreter": null
        }
      },
      "additionalContracts": [],
      "isFixedGasLimit": false
    },
    {
      "hash": "0xb10cd301983457357d48c86fe64b4dffaabfaf8134dbdba1a699be49c770f25f",
      "transactionType": "CALL",
      "contractName": null,
      "contractAddress": "0x0000006d38568b00b457580b734e0076c62de659",
      "function": "grantRole(bytes32,address)",
      "arguments": [
        "0x0000000000000000000000000000000000000000000000000000000000000000",
        "0xcC20eAE3CdC554E96291708B362dF349CC443808"
      ],
      "transaction": {
        "from": "0x54f9b12743a7deec0ea48721683cbebedc6e17bc",
        "to": "0x0000006d38568b00b457580b734e0076c62de659",
        "gas": "0x5fcb5",
        "value": "0x0",
        "input": "0x2f2ff15d0000000000000000000000000000000000000000000000000000000000000000000000000000000000000000cc20eae3cdc554e96291708b362df349cc443808",
        "nonce": "0xd",
        "chainId": "0xab5",
        "zksync": {
          "factoryDeps": [],
          "paymasterData": null,
          "forceEvmInterpreter": null
        }
      },
      "additionalContracts": [],
      "isFixedGasLimit": false
    },
    {
      "hash": "0x97ae3272bd27de1eb2fd4a3850087cbd6d494e932396f548ee939823791165d0",
      "transactionType": "CALL",
      "contractName": null,
      "contractAddress": "0x0000006d38568b00b457580b734e0076c62de659",
      "function": "grantRole(bytes32,address)",
      "arguments": [
        "0x0000000000000000000000000000000000000000000000000000000000000000",
        "0x000000000E0E120FCAc7b4d98e9E35E1DE6fdadb"
      ],
      "transaction": {
        "from": "0x54f9b12743a7deec0ea48721683cbebedc6e17bc",
        "to": "0x0000006d38568b00b457580b734e0076c62de659",
        "gas": "0x5e720",
        "value": "0x0",
        "input": "0x2f2ff15d0000000000000000000000000000000000000000000000000000000000000000000000000000000000000000000000000e0e120fcac7b4d98e9e35e1de6fdadb",
        "nonce": "0xe",
        "chainId": "0xab5",
        "zksync": {
          "factoryDeps": [],
          "paymasterData": null,
          "forceEvmInterpreter": null
        }
      },
      "additionalContracts": [],
      "isFixedGasLimit": false
    },
    {
      "hash": "0xe0750579e80dfb9ee05976ee64c62a63063931378537a76aae92094c7925233f",
      "transactionType": "CALL",
      "contractName": null,
      "contractAddress": "0x0000006d38568b00b457580b734e0076c62de659",
      "function": "renounceRole(bytes32,address)",
      "arguments": [
        "0x0000000000000000000000000000000000000000000000000000000000000000",
        "0x54F9b12743A7DeeC0ea48721683cbebedC6E17bC"
      ],
      "transaction": {
        "from": "0x54f9b12743a7deec0ea48721683cbebedc6e17bc",
        "to": "0x0000006d38568b00b457580b734e0076c62de659",
        "gas": "0x68618",
        "value": "0x0",
        "input": "0x36568abe000000000000000000000000000000000000000000000000000000000000000000000000000000000000000054f9b12743a7deec0ea48721683cbebedc6e17bc",
        "nonce": "0xf",
        "chainId": "0xab5",
        "zksync": {
          "factoryDeps": [],
          "paymasterData": null,
          "forceEvmInterpreter": null
        }
      },
      "additionalContracts": [],
      "isFixedGasLimit": false
    }
  ],
  "receipts": [
    {
      "status": "0x1",
      "cumulativeGasUsed": "0x0",
      "logs": [
        {
          "address": "0x000000000000000000000000000000000000800a",
          "topics": [
            "0xddf252ad1be2c89b69c2b068fc378daa952ba7f163c4a11628f55a4df523b3ef",
            "0x00000000000000000000000054f9b12743a7deec0ea48721683cbebedc6e17bc",
            "0x0000000000000000000000000000000000000000000000000000000000008001"
          ],
          "data": "0x00000000000000000000000000000000000000000000000000009895fbb8eeb0",
          "blockHash": "0xa0c58214a04066559e1d47c18b494856a17af41b1af536003957055ee299e3aa",
          "blockNumber": "0x293a9be",
          "blockTimestamp": "0x69a60431",
          "transactionHash": "0x919b4682b8b8ff3662612dbd70a4a98fd866f94caf6e50aad9aa3bf5cfd57713",
          "transactionIndex": "0x1",
          "logIndex": "0x5",
          "removed": false
        },
        {
          "address": "0x0000006d38568b00b457580b734e0076c62de659",
          "topics": [
            "0xbc7cd75a20ee27fd9adebab32041f755214dbc6bffa90cc0225b39da2e5c2d3b",
            "0x0000000000000000000000000000000087ed0dd8b999ae6c7c30f95e9707a3c6"
          ],
          "data": "0x",
          "blockHash": "0xa0c58214a04066559e1d47c18b494856a17af41b1af536003957055ee299e3aa",
          "blockNumber": "0x293a9be",
          "blockTimestamp": "0x69a60431",
          "transactionHash": "0x919b4682b8b8ff3662612dbd70a4a98fd866f94caf6e50aad9aa3bf5cfd57713",
          "transactionIndex": "0x1",
          "logIndex": "0x6",
          "removed": false
        },
        {
          "address": "0x0000006d38568b00b457580b734e0076c62de659",
          "topics": [
            "0x2f8788117e7eff1d82e926ec794901d17c78024a50270940304540a733656f0d",
            "0x0000000000000000000000000000000000000000000000000000000000000000",
            "0x00000000000000000000000054f9b12743a7deec0ea48721683cbebedc6e17bc",
            "0x00000000000000000000000054f9b12743a7deec0ea48721683cbebedc6e17bc"
          ],
          "data": "0x",
          "blockHash": "0xa0c58214a04066559e1d47c18b494856a17af41b1af536003957055ee299e3aa",
          "blockNumber": "0x293a9be",
          "blockTimestamp": "0x69a60431",
          "transactionHash": "0x919b4682b8b8ff3662612dbd70a4a98fd866f94caf6e50aad9aa3bf5cfd57713",
          "transactionIndex": "0x1",
          "logIndex": "0x7",
          "removed": false
        },
        {
          "address": "0x0000006d38568b00b457580b734e0076c62de659",
          "topics": [
            "0xc7f505b2f371ae2175ee4913f4499e1f2633a7b5936321eed1cdaeb6115181d2"
          ],
          "data": "0x0000000000000000000000000000000000000000000000000000000000000001",
          "blockHash": "0xa0c58214a04066559e1d47c18b494856a17af41b1af536003957055ee299e3aa",
          "blockNumber": "0x293a9be",
          "blockTimestamp": "0x69a60431",
          "transactionHash": "0x919b4682b8b8ff3662612dbd70a4a98fd866f94caf6e50aad9aa3bf5cfd57713",
          "transactionIndex": "0x1",
          "logIndex": "0x8",
          "removed": false
        },
        {
          "address": "0x000000000000000000000000000000000000800a",
          "topics": [
            "0xddf252ad1be2c89b69c2b068fc378daa952ba7f163c4a11628f55a4df523b3ef",
            "0x0000000000000000000000000000000000000000000000000000000000008001",
            "0x00000000000000000000000054f9b12743a7deec0ea48721683cbebedc6e17bc"
          ],
          "data": "0x0000000000000000000000000000000000000000000000000000867e3e91e4f0",
          "blockHash": "0xa0c58214a04066559e1d47c18b494856a17af41b1af536003957055ee299e3aa",
          "blockNumber": "0x293a9be",
          "blockTimestamp": "0x69a60431",
          "transactionHash": "0x919b4682b8b8ff3662612dbd70a4a98fd866f94caf6e50aad9aa3bf5cfd57713",
          "transactionIndex": "0x1",
          "logIndex": "0x9",
          "removed": false
        }
      ],
      "logsBloom": "0x00000004400400000000000000000000400000000000000000000000000000000000000000000000000000000000000000000000000000000000000100000000000000000000040000000008000002000000100000000000010000000000080000000000020000000000000000000800000000000000000000000010000800000000000000000000000804000080000000000000000080000000000000000400000000000000100000000040000000000000000000000000001000000000000000000022008000000000000000000000000000000004000100000000000020000000000000000000000000000000000000000000000000000000000000000000",
      "type": "0x71",
      "transactionHash": "0x919b4682b8b8ff3662612dbd70a4a98fd866f94caf6e50aad9aa3bf5cfd57713",
      "transactionIndex": "0x1",
      "blockHash": "0xa0c58214a04066559e1d47c18b494856a17af41b1af536003957055ee299e3aa",
      "blockNumber": "0x293a9be",
      "gasUsed": "0x6b54c",
      "effectiveGasPrice": "0x2b275d0",
      "from": "0x54f9b12743a7deec0ea48721683cbebedc6e17bc",
      "to": "0x0000006d38568b00b457580b734e0076c62de659",
      "contractAddress": null,
      "l1BatchNumber": null,
      "l1BatchTxIndex": null,
      "l2ToL1Logs": []
    },
    {
      "status": "0x1",
      "cumulativeGasUsed": "0x0",
      "logs": [
        {
          "address": "0x000000000000000000000000000000000000800a",
          "topics": [
            "0xddf252ad1be2c89b69c2b068fc378daa952ba7f163c4a11628f55a4df523b3ef",
            "0x00000000000000000000000054f9b12743a7deec0ea48721683cbebedc6e17bc",
            "0x0000000000000000000000000000000000000000000000000000000000008001"
          ],
          "data": "0x00000000000000000000000000000000000000000000000000000b13e7ef3de0",
          "blockHash": "0x5459a3dcbcb72fced8cbab54606d7000a0c66dc1dcf392f9f57a490460f746f0",
          "blockNumber": "0x293a9c1",
          "blockTimestamp": "0x69a60432",
          "transactionHash": "0x4d5cfca41b7ada21b87805aaa82462764628c7d4ecb89698f7c9e01b4b86a4ac",
          "transactionIndex": "0x0",
          "logIndex": "0x0",
          "removed": false
        },
        {
          "address": "0x0000006d38568b00b457580b734e0076c62de659",
          "topics": [
            "0x7e644d79422f17c01e4894b5f4f588d331ebfa28653d42ae832dc59e38c9798f"
          ],
          "data": "0x00000000000000000000000054f9b12743a7deec0ea48721683cbebedc6e17bc000000000000000000000000e59dcae52a4ffa39be99588486c84bc2dc1ba52f",
          "blockHash": "0x5459a3dcbcb72fced8cbab54606d7000a0c66dc1dcf392f9f57a490460f746f0",
          "blockNumber": "0x293a9c1",
          "blockTimestamp": "0x69a60432",
          "transactionHash": "0x4d5cfca41b7ada21b87805aaa82462764628c7d4ecb89698f7c9e01b4b86a4ac",
          "transactionIndex": "0x0",
          "logIndex": "0x1",
          "removed": false
        },
        {
          "address": "0x000000000000000000000000000000000000800a",
          "topics": [
            "0xddf252ad1be2c89b69c2b068fc378daa952ba7f163c4a11628f55a4df523b3ef",
            "0x0000000000000000000000000000000000000000000000000000000000008001",
            "0x00000000000000000000000054f9b12743a7deec0ea48721683cbebedc6e17bc"
          ],
          "data": "0x0000000000000000000000000000000000000000000000000000071adfcc43d0",
          "blockHash": "0x5459a3dcbcb72fced8cbab54606d7000a0c66dc1dcf392f9f57a490460f746f0",
          "blockNumber": "0x293a9c1",
          "blockTimestamp": "0x69a60432",
          "transactionHash": "0x4d5cfca41b7ada21b87805aaa82462764628c7d4ecb89698f7c9e01b4b86a4ac",
          "transactionIndex": "0x0",
          "logIndex": "0x2",
          "removed": false
        }
      ],
      "logsBloom": "0x00000000400400000000000000000000000000000000000000000000000000000000000000000000000000000000000000000000000000000000000000000000000000000000040000000008000000000000000000000000010000000000080000000000000000000000000000000000000000800000000000000010000800000000000000000000000804000080000000000000000000000000000000800000000000000000100000000040000000000000000000000000000000000000000000000002008000000000000000000000000000000400000000000000000000000000000000000000000000000000000000000000000000000000000000000000",
      "type": "0x71",
      "transactionHash": "0x4d5cfca41b7ada21b87805aaa82462764628c7d4ecb89698f7c9e01b4b86a4ac",
      "transactionIndex": "0x0",
      "blockHash": "0x5459a3dcbcb72fced8cbab54606d7000a0c66dc1dcf392f9f57a490460f746f0",
      "blockNumber": "0x293a9c1",
      "gasUsed": "0x17915",
      "effectiveGasPrice": "0x2b275d0",
      "from": "0x54f9b12743a7deec0ea48721683cbebedc6e17bc",
      "to": "0x0000006d38568b00b457580b734e0076c62de659",
      "contractAddress": null,
      "l1BatchNumber": null,
      "l1BatchTxIndex": null,
      "l2ToL1Logs": []
    },
    {
      "status": "0x1",
      "cumulativeGasUsed": "0x0",
      "logs": [
        {
          "address": "0x000000000000000000000000000000000000800a",
          "topics": [
            "0xddf252ad1be2c89b69c2b068fc378daa952ba7f163c4a11628f55a4df523b3ef",
            "0x00000000000000000000000054f9b12743a7deec0ea48721683cbebedc6e17bc",
            "0x0000000000000000000000000000000000000000000000000000000000008001"
          ],
          "data": "0x00000000000000000000000000000000000000000000000000002498b7bd1090",
          "blockHash": "0xe102fc306cfa1c84c4d2846a29704782a5f824a0e10732daa5df32fb1e9e2754",
          "blockNumber": "0x293a9c3",
          "blockTimestamp": "0x69a60433",
          "transactionHash": "0x9a4ace8b6d8a929e1b3a37db2f8a3af950fb5a7a216888e6f163d3489c09f1de",
          "transactionIndex": "0x0",
          "logIndex": "0x0",
          "removed": false
        },
        {
          "address": "0x000000000000000000000000000000000000800a",
          "topics": [
            "0xddf252ad1be2c89b69c2b068fc378daa952ba7f163c4a11628f55a4df523b3ef",
            "0x0000000000000000000000000000000000000000000000000000000000008001",
            "0x00000000000000000000000054f9b12743a7deec0ea48721683cbebedc6e17bc"
          ],
          "data": "0x00000000000000000000000000000000000000000000000000001e15504b2b10",
          "blockHash": "0xe102fc306cfa1c84c4d2846a29704782a5f824a0e10732daa5df32fb1e9e2754",
          "blockNumber": "0x293a9c3",
          "blockTimestamp": "0x69a60433",
          "transactionHash": "0x9a4ace8b6d8a929e1b3a37db2f8a3af950fb5a7a216888e6f163d3489c09f1de",
          "transactionIndex": "0x0",
          "logIndex": "0x1",
          "removed": false
        }
      ],
      "logsBloom": "0x00000000400400000000000000000000000000000000000000000000000000000000000000000000000000000000000000000000000000000000000000000000000000000000040000000008000000000000000000000000000000000000080000000000000000000000000000000000000000000000000000000010000800000000000000000000000004000080000000000000000000000000000000000000000000000000100000000000000000000000000000000000000000000000000000000002008000000000000000000000000000000000000000000000000000000000000000000000000000000000000000000000000000000000000000000000",
      "type": "0x71",
      "transactionHash": "0x9a4ace8b6d8a929e1b3a37db2f8a3af950fb5a7a216888e6f163d3489c09f1de",
      "transactionIndex": "0x0",
      "blockHash": "0xe102fc306cfa1c84c4d2846a29704782a5f824a0e10732daa5df32fb1e9e2754",
      "blockNumber": "0x293a9c3",
      "gasUsed": "0x26a38",
      "effectiveGasPrice": "0x2b275d0",
      "from": "0x54f9b12743a7deec0ea48721683cbebedc6e17bc",
      "to": "0x0000006d38568b00b457580b734e0076c62de659",
      "contractAddress": null,
      "l1BatchNumber": null,
      "l1BatchTxIndex": null,
      "l2ToL1Logs": []
    },
    {
      "status": "0x1",
      "cumulativeGasUsed": "0x0",
      "logs": [
        {
          "address": "0x000000000000000000000000000000000000800a",
          "topics": [
            "0xddf252ad1be2c89b69c2b068fc378daa952ba7f163c4a11628f55a4df523b3ef",
            "0x00000000000000000000000054f9b12743a7deec0ea48721683cbebedc6e17bc",
            "0x0000000000000000000000000000000000000000000000000000000000008001"
          ],
          "data": "0x00000000000000000000000000000000000000000000000000002ac60e7d8bc0",
          "blockHash": "0x6c16caaefd3bbcf70f0b4447a08bab4d51dd00a291a2c1a602168cf074bfb8b2",
          "blockNumber": "0x293a9c7",
          "blockTimestamp": "0x69a60434",
          "transactionHash": "0x19158b12d2fba3dff2d40728e3bd3e6767a48da95073a41ec67c07c6304b61cc",
          "transactionIndex": "0x0",
          "logIndex": "0x0",
          "removed": false
        },
        {
          "address": "0x0000000000000000000000000000000000008008",
          "topics": [
            "0x27fe8c0b49f49507b9d4fe5968c9f49edfe5c9df277d433a07a0717ede97638d"
          ],
          "data": "0x00000000000000000000000000000000000000000000000000000000000000000000000000000000000000000000000000000000000000000000000000000001000000000000000000000000000000000000000000000000000000000000093e0000000000000000000000000000000000000000000000000000000000008008000000000000000000000000000000000000000000000000000000000000800e68ed6da9496266702e1fcc415686c6e99e1900b73a2862ae48e8c37c7749f6e2",
          "blockHash": "0x6c16caaefd3bbcf70f0b4447a08bab4d51dd00a291a2c1a602168cf074bfb8b2",
          "blockNumber": "0x293a9c7",
          "blockTimestamp": "0x69a60434",
          "transactionHash": "0x19158b12d2fba3dff2d40728e3bd3e6767a48da95073a41ec67c07c6304b61cc",
          "transactionIndex": "0x0",
          "logIndex": "0x1",
          "removed": false
        },
        {
          "address": "0x0000000000000000000000000000000000008008",
          "topics": [
            "0x3a36e47291f4201faf137fab081d92295bce2d53be2c6ca68ba82c7faa9ce241",
            "0x000000000000000000000000000000000000000000000000000000000000800e",
            "0x68ed6da9496266702e1fcc415686c6e99e1900b73a2862ae48e8c37c7749f6e2"
          ],
          "data": "0x00000000000000000000000000000000000000000000000000000000000000200000000000000000000000000000000000000000000000000000000000000e8a01460000000000000000000000a00000213dffffffffffffffff000000a00000c13d000000000101043b00000000010004120000000100200190000000000001042d0000006b010080410000006b0010009c000001a70001042e000000400100043d01a601a10000040f00008005020000390000007b011001c7000000c0011002100000000001000414000001a800010430000000a00000413dffffffffffffffe0000001790000013d000000000001042f000000910000213d000001760000613d0000002400100443000000040010044300000000001004430000007a0100004100000000010000190000006e01100197000000800010043f0000010004400089000000000545022f00000000054501cf0000000006860436000000007807043c0000000001000415000000000001004b0000000001000416000000000000000100000000ffffffff00000000020000190000000102000039000001720000613d0000006b030080410000006b0030009c000000910000c13d0000003f044000390000001f04300039000000000003004b000001770000c13d000000000012004b0000000000010435000000400060043f0000007806600197000000000202043b000000760040009c000000750100004101a601890000040f000000050110021000000020010000390000006e0010009c000000000151019f00000000014101cf000000000141022f0000000304400210000000000151034f000000000004004b000000000701034f0000006d053001980000001f0430018f000000000002004b0000000002000416000000400020043f00000060031002703a312e302e3200552e32333b6c6c766d736f6c633a302e383a312e352e31353b78247a6b736f6c632adeff64736f6c6374eab7dac51f865bf0ef511196bc05c3c6ffd3cb918f2486221220d4e4e7f17f00a264697066735800000024000000004e487b71000000004f791bf90000000000000003ffffffe0000000000000000380000000000000007fffffffffffffff7413e486000000002f746eff000000000000000400000000ea8e4eb50000000000000044000000000200000200000000ab882de59d99a32eff553aecb10793d015d089f94afb7896310ab089e4439a4cffffffffffffff400000002000000080000000006d079813000000005e84b81c00000000e275fc6a00000000b56ffd4f00000000b56ffd4e0000010000000100000000020000000000000000ffffffe000000001ffffffe0000001a600000432000001a4002104230000019f002104210000019b0000613d000000010101003100000004002004430000000002010031000000050110027000000000002004430000007a0200004100000084020000410000007f020000410000007e020000410000007d011001c7000000400110021000000000002104350000007c02000041000001850000613d00000000001304350000000005030433000001610000c13d000000000036004b000001650000613d00000000035600190000000006350436000000400040043f000000010060019000000001060040390000000006000039000000000054004b0000000004450019000000400500043d00000083044001970000006c044001970000006b0330019801a6019c0000040f000000000131019f000000c0033002100000000003000414000000000113019f0000006003300210000000000304043300000040016002100000006b060080410000006b0060009c0000000001360019000001330000413d000000000031004b000000200110003900000000008504350000000008080433000000000817001900000000051600190000013a0000613d0000006e02100197000000000052004b0000000002370019000000c00720003900000000063404360000000100700190000000760060009c00000001070040390000000007000039000000000046004b0000000006640019000000400400043d00000082064001970000007804400197000000760030009c0000000003030433000000a003200039000000000304c019000000810070009c00000081030040410000000003000019000000000063004b000000000763013f0000008103300197000000810650019700000081040080410000000004000019000000000053004b000000bf03200039000000a005300039000000760020009c000000c00200043d000000a00100043d000000400030008c000000800030009c000000800300043d000001820000c13d000000010010006b00000024000004430000017f0000c13d0000762f0010008c0000006b0110019700000002010000290000000002200367000000240200003900000040010000390000000002000411000000a0012000390000000000310435000000000353019f00000000034301cf000000000343022f000000000303043b00000000050104330000000304500210000000000343034f000000bd0000613d000000000005004b000000ac0000c13d000000000016004b000000000703034f000000a006000039000000b00000613d000000a0014000390000001f0520018f0000008704200198000000000331034f0000002003500039000100000007001d000200000008001d000000a20000a13d000000000034004b00000024044000390000000004240019000000800020043f00000080066000390000003f066000390000008601000041000000040010043f0000004101000039000000000010043f0000008501000041000000970000a13d000000790060009c0000001f06200039000000910000813d000000770020009c000000000251034f0000000405400039000000a00000813d000000000032004b0000002302400039000000000402043b00000084021003700000006e0070009c000000000702043b00000044021003700000006b0080009c000000000802043b0000000402100370000000a40030008c000000080110008a000700200000003d000800000001001d000000040110008a000300400000003d000400000001001d000000720020009c000000740000613d000000710020009c0000006f01000041000001200010044300000003010000390000010000100443000001e000300443000001c0002004430000004002000039000001a000200443000001800010044300000160001004430000014000000443000000c00030043f000000a00020043f0000006e0030009c000001200300043d0000006e0020009c000001000200043d000000e00100043d000000600030008c000000000012043500000000050204330000003a0000613d000000290000c13d000000000026004b000000e0060000390000002d0000613d000000e002500039000000e0022000390000006c022001970000001f023000390000006e0000013d000000060110008a000500000000003d000600000001001d000000740020009c000000660000613d000000730020009c000000550000213d000000700020009c000000e002200270000000000201043b000000040030008c00000080020000390000001c0000c13d0000006b03300197000000000001035500080000000000020001000000000002014501440143004a01420006014101400049013f0012013e013d013c013b013a0139013800030026002500030005013701360024013501340048004700030133013201310049004600450130012f012e004400230022012d012c0043012b00420041012a002100200004001f0040003f003e0129012800120127003d0001012601250001012401230001001e012201210120011f003c011e011d011c011b011a0119011801170116000a011501140113000300260025000300050112011100240110003b003a001e0039000a0026002500030005010f010e0024010d003b003a001d001e0039000a004800470003010c0012010b010a0109000101080107010600010105010400380001010301020101010000ff003700fe00fd00fc003600fb00fa00f900f800f700f600f5001100f4003600f3003500f200f100f000ef00ee001c001100ed00ec00eb00ea00e900e800e700e600e500e40023002200e300e200e100e000df00de00dd0021002000dc001f00db00da00d900d800d70034001b001a00050019003c0018001000090008000f000e000d000c000600170004001d00d600330032001b001a0005001900d50018001000090008000f000e000d000c00060017000400d400d300370033003200d200d100d000cf001b001a0005001900ce001000090008000f000e000d000c000600170004001d00cd00cc00cb00ca000100c9001200c8003d000100c700c6000100c500c400c300c200c100c000bf00be00bd00bc00bb00ba00b90031000300b800b700b60016003000b5002f00b400b300b200b100b000af00ae001600ad002e003500ac00ab00aa00a9000100a8003100a7001c00a600a500a400a300a200a100a0009f0034009e009d009c009b002d002c009a00990098002d002c009700960095004a0094002b00300093002f009200910090008f008e008d00380016008c002e008b0046008a004500890088004400230022008700860043002b004200410085002100200004001f0040003f003e008400060083001c000a0015000b00820081000900080080007f0011000b007e0014000b007d0014000b007c00140015007b007a00790078007700760018001000090008000f000e000d000c000600750004000700150074002a0007002900070073002a0007002900070072000a00110000000000000000000000000028000000000000007100000000000000700000002800020002006f0000006e0000000000000000006d000000000000006c000000000000006b000000000000006a00000000000000690000000000680000000000000000000200000000002700000000000000270013000000000000006700660065006400630062000000610000006000000000000000000000005f0000005e000000000000005d000000000000005c000200020002005b00000000000000000000005a0013000000000000005900580000000000000057000000000000000000000056000000020002000200130000005500540053005200510050004f004e004d004c004b00000000000000000000000000000000000000000000",
          "blockHash": "0x6c16caaefd3bbcf70f0b4447a08bab4d51dd00a291a2c1a602168cf074bfb8b2",
          "blockNumber": "0x293a9c7",
          "blockTimestamp": "0x69a60434",
          "transactionHash": "0x19158b12d2fba3dff2d40728e3bd3e6767a48da95073a41ec67c07c6304b61cc",
          "transactionIndex": "0x0",
          "logIndex": "0x2",
          "removed": false
        },
        {
          "address": "0x0000000000000000000000000000000000008004",
          "topics": [
            "0xc94722ff13eacf53547c4741dab5228353a05938ffcdd5d4a2d533ae0e618287",
            "0x0100008bc5b4435f4bf1420fec25c30c5d5a001616032a936e255af46b1a2fd8",
            "0x0000000000000000000000000000000000000000000000000000000000000000"
          ],
          "data": "0x",
          "blockHash": "0x6c16caaefd3bbcf70f0b4447a08bab4d51dd00a291a2c1a602168cf074bfb8b2",
          "blockNumber": "0x293a9c7",
          "blockTimestamp": "0x69a60434",
          "transactionHash": "0x19158b12d2fba3dff2d40728e3bd3e6767a48da95073a41ec67c07c6304b61cc",
          "transactionIndex": "0x0",
          "logIndex": "0x3",
          "removed": false
        },
        {
          "address": "0x0000000000000000000000000000000000008006",
          "topics": [
            "0x290afdae231a3fc0bbae8b1af63698b0a1d79b21ad17df0342dfb952fe74f8e5",
            "0x0000000000000000000000000000000000000000000000000000000000010000",
            "0x0100008bc5b4435f4bf1420fec25c30c5d5a001616032a936e255af46b1a2fd8",
            "0x000000000000000000000000000000000e0e120fcac7b4d98e9e35e1de6fdadb"
          ],
          "data": "0x",
          "blockHash": "0x6c16caaefd3bbcf70f0b4447a08bab4d51dd00a291a2c1a602168cf074bfb8b2",
          "blockNumber": "0x293a9c7",
          "blockTimestamp": "0x69a60434",
          "transactionHash": "0x19158b12d2fba3dff2d40728e3bd3e6767a48da95073a41ec67c07c6304b61cc",
          "transactionIndex": "0x0",
          "logIndex": "0x4",
          "removed": false
        },
        {
          "address": "0x000000000000000000000000000000000000800a",
          "topics": [
            "0xddf252ad1be2c89b69c2b068fc378daa952ba7f163c4a11628f55a4df523b3ef",
            "0x0000000000000000000000000000000000000000000000000000000000008001",
            "0x00000000000000000000000054f9b12743a7deec0ea48721683cbebedc6e17bc"
          ],
          "data": "0x000000000000000000000000000000000000000000000000000012fc9262b140",
          "blockHash": "0x6c16caaefd3bbcf70f0b4447a08bab4d51dd00a291a2c1a602168cf074bfb8b2",
          "blockNumber": "0x293a9c7",
          "blockTimestamp": "0x69a60434",
          "transactionHash": "0x19158b12d2fba3dff2d40728e3bd3e6767a48da95073a41ec67c07c6304b61cc",
          "transactionIndex": "0x0",
          "logIndex": "0x5",
          "removed": false
        }
      ],
      "logsBloom": "0x00000000400400080000010000000000000000000000400000000000000010000000000000000000000000000101000000000000000000000000000000000000000100000000040000000028000040000400000000000000000000000000080000000000020100000000000000000800400000000000400000000010000800000000001000000000000004000180020000000100000040000000000000000080800000000000100000000000810100000000200000001000002000010000008000000002088000004100000000000000000010000100000000000000000020000000000000000000000000000000000000000040000000000000000080000000",
      "type": "0x71",
      "transactionHash": "0x19158b12d2fba3dff2d40728e3bd3e6767a48da95073a41ec67c07c6304b61cc",
      "transactionIndex": "0x0",
      "blockHash": "0x6c16caaefd3bbcf70f0b4447a08bab4d51dd00a291a2c1a602168cf074bfb8b2",
      "blockNumber": "0x293a9c7",
      "gasUsed": "0x8d1c8",
      "effectiveGasPrice": "0x2b275d0",
      "from": "0x54f9b12743a7deec0ea48721683cbebedc6e17bc",
      "to": "0x0000000000000000000000000000000000010000",
      "contractAddress": null,
      "l1BatchNumber": null,
      "l1BatchTxIndex": null,
      "l2ToL1Logs": [
        {
          "blockHash": "0x6c16caaefd3bbcf70f0b4447a08bab4d51dd00a291a2c1a602168cf074bfb8b2",
          "blockNumber": "0x293a9c7",
          "isService": true,
          "key": "0x000000000000000000000000000000000000000000000000000000000000800e",
          "l1BatchNumber": null,
          "logIndex": "0x0",
          "sender": "0x0000000000000000000000000000000000008008",
          "shardId": "0x0",
          "transactionHash": "0x19158b12d2fba3dff2d40728e3bd3e6767a48da95073a41ec67c07c6304b61cc",
          "transactionIndex": "0x0",
          "transactionLogIndex": "0x0",
          "txIndexInL1Batch": "0x93e",
          "value": "0x68ed6da9496266702e1fcc415686c6e99e1900b73a2862ae48e8c37c7749f6e2"
        }
      ]
    },
    {
      "status": "0x1",
      "cumulativeGasUsed": "0x0",
      "logs": [
        {
          "address": "0x000000000000000000000000000000000000800a",
          "topics": [
            "0xddf252ad1be2c89b69c2b068fc378daa952ba7f163c4a11628f55a4df523b3ef",
            "0x00000000000000000000000054f9b12743a7deec0ea48721683cbebedc6e17bc",
            "0x0000000000000000000000000000000000000000000000000000000000008001"
          ],
          "data": "0x00000000000000000000000000000000000000000000000000002e71281a62c0",
          "blockHash": "0xdd90e842b82c2a40d30b46cae2b841ba49c4b17b716f6a65ba6f6265dceaebc4",
          "blockNumber": "0x293a9ca",
          "blockTimestamp": "0x69a60435",
          "transactionHash": "0x67a422baf2146ef44d0c33f4d0c2e60bf0b3229eac013d1f0dc27d32dc9824e1",
          "transactionIndex": "0x0",
          "logIndex": "0x0",
          "removed": false
        },
        {
          "address": "0x0000006d38568b00b457580b734e0076c62de659",
          "topics": [
            "0x2f8788117e7eff1d82e926ec794901d17c78024a50270940304540a733656f0d",
            "0x65d7a28e3265b37a6474929f336521b332c1681b933f6cb9f3376673440d862a",
            "0x00000000000000000000000054c5ef136d02b95c4ff217af93fa63f9e4119919",
            "0x00000000000000000000000054f9b12743a7deec0ea48721683cbebedc6e17bc"
          ],
          "data": "0x",
          "blockHash": "0xdd90e842b82c2a40d30b46cae2b841ba49c4b17b716f6a65ba6f6265dceaebc4",
          "blockNumber": "0x293a9ca",
          "blockTimestamp": "0x69a60435",
          "transactionHash": "0x67a422baf2146ef44d0c33f4d0c2e60bf0b3229eac013d1f0dc27d32dc9824e1",
          "transactionIndex": "0x0",
          "logIndex": "0x1",
          "removed": false
        },
        {
          "address": "0x000000000000000000000000000000000000800a",
          "topics": [
            "0xddf252ad1be2c89b69c2b068fc378daa952ba7f163c4a11628f55a4df523b3ef",
            "0x0000000000000000000000000000000000000000000000000000000000008001",
            "0x00000000000000000000000054f9b12743a7deec0ea48721683cbebedc6e17bc"
          ],
          "data": "0x00000000000000000000000000000000000000000000000000002729592158a0",
          "blockHash": "0xdd90e842b82c2a40d30b46cae2b841ba49c4b17b716f6a65ba6f6265dceaebc4",
          "blockNumber": "0x293a9ca",
          "blockTimestamp": "0x69a60435",
          "transactionHash": "0x67a422baf2146ef44d0c33f4d0c2e60bf0b3229eac013d1f0dc27d32dc9824e1",
          "transactionIndex": "0x0",
          "logIndex": "0x2",
          "removed": false
        }
      ],
      "logsBloom": "0x00000004400400000000000000000000000000000000000000000000000000000000000000000000000000000000000000000000000000000000000000000000000000000000040000000008000000000000000000000000010000000000080000000000000000000000000000000000000004000000000000000010000800000000000000000000000804000080008000000000000000000000000000000000000000000000100000000040000000000000000000000000001000000000000000010002008000000000000000000000000000000000000100002000000000000000000000000000000000000000000000000400000002000000000000000000",
      "type": "0x71",
      "transactionHash": "0x67a422baf2146ef44d0c33f4d0c2e60bf0b3229eac013d1f0dc27d32dc9824e1",
      "transactionIndex": "0x0",
      "blockHash": "0xdd90e842b82c2a40d30b46cae2b841ba49c4b17b716f6a65ba6f6265dceaebc4",
      "blockNumber": "0x293a9ca",
      "gasUsed": "0x2b30a",
      "effectiveGasPrice": "0x2b275d0",
      "from": "0x54f9b12743a7deec0ea48721683cbebedc6e17bc",
      "to": "0x0000006d38568b00b457580b734e0076c62de659",
      "contractAddress": null,
      "l1BatchNumber": null,
      "l1BatchTxIndex": null,
      "l2ToL1Logs": []
    },
    {
      "status": "0x1",
      "cumulativeGasUsed": "0x0",
      "logs": [
        {
          "address": "0x000000000000000000000000000000000000800a",
          "topics": [
            "0xddf252ad1be2c89b69c2b068fc378daa952ba7f163c4a11628f55a4df523b3ef",
            "0x00000000000000000000000054f9b12743a7deec0ea48721683cbebedc6e17bc",
            "0x0000000000000000000000000000000000000000000000000000000000008001"
          ],
          "data": "0x000000000000000000000000000000000000000000000000000027fd4d97c080",
          "blockHash": "0x860dd2f007b9fc0a165236d5ec38e16ffb11822a633bb3fec6df8eba9c559a91",
          "blockNumber": "0x293a9cc",
          "blockTimestamp": "0x69a60436",
          "transactionHash": "0x046cea77850ce1572c1ea977ab42ddedcdaffae4de0561894bb97f0f91fcea0b",
          "transactionIndex": "0x1",
          "logIndex": "0x4",
          "removed": false
        },
        {
          "address": "0x0000006d38568b00b457580b734e0076c62de659",
          "topics": [
            "0x2f8788117e7eff1d82e926ec794901d17c78024a50270940304540a733656f0d",
            "0x65d7a28e3265b37a6474929f336521b332c1681b933f6cb9f3376673440d862a",
            "0x00000000000000000000000017e06ce6914e3969f7bd37d8b2a563890ca1c96e",
            "0x00000000000000000000000054f9b12743a7deec0ea48721683cbebedc6e17bc"
          ],
          "data": "0x",
          "blockHash": "0x860dd2f007b9fc0a165236d5ec38e16ffb11822a633bb3fec6df8eba9c559a91",
          "blockNumber": "0x293a9cc",
          "blockTimestamp": "0x69a60436",
          "transactionHash": "0x046cea77850ce1572c1ea977ab42ddedcdaffae4de0561894bb97f0f91fcea0b",
          "transactionIndex": "0x1",
          "logIndex": "0x5",
          "removed": false
        },
        {
          "address": "0x000000000000000000000000000000000000800a",
          "topics": [
            "0xddf252ad1be2c89b69c2b068fc378daa952ba7f163c4a11628f55a4df523b3ef",
            "0x0000000000000000000000000000000000000000000000000000000000008001",
            "0x00000000000000000000000054f9b12743a7deec0ea48721683cbebedc6e17bc"
          ],
          "data": "0x00000000000000000000000000000000000000000000000000002104ab672750",
          "blockHash": "0x860dd2f007b9fc0a165236d5ec38e16ffb11822a633bb3fec6df8eba9c559a91",
          "blockNumber": "0x293a9cc",
          "blockTimestamp": "0x69a60436",
          "transactionHash": "0x046cea77850ce1572c1ea977ab42ddedcdaffae4de0561894bb97f0f91fcea0b",
          "transactionIndex": "0x1",
          "logIndex": "0x6",
          "removed": false
        }
      ],
      "logsBloom": "0x00000004400400000000000000000000000000000000000000000000000000000000004000000000000000000000000000000000000000000000000000000000000000000000040000000008000000000000000000000000010000000000080000000000000000000000000000000000000000000000000000000010000800000000000000000000000804000080008000000000000000000000000000000000000000000000140000000040000000000000000000000000081000000000000000000002008000000000000000000000000000000000000100002000000000000000000000000000000000000000000000000400000000000000000000000000",
      "type": "0x71",
      "transactionHash": "0x046cea77850ce1572c1ea977ab42ddedcdaffae4de0561894bb97f0f91fcea0b",
      "transactionIndex": "0x1",
      "blockHash": "0x860dd2f007b9fc0a165236d5ec38e16ffb11822a633bb3fec6df8eba9c559a91",
      "blockNumber": "0x293a9cc",
      "gasUsed": "0x295af",
      "effectiveGasPrice": "0x2b275d0",
      "from": "0x54f9b12743a7deec0ea48721683cbebedc6e17bc",
      "to": "0x0000006d38568b00b457580b734e0076c62de659",
      "contractAddress": null,
      "l1BatchNumber": null,
      "l1BatchTxIndex": null,
      "l2ToL1Logs": []
    },
    {
      "status": "0x1",
      "cumulativeGasUsed": "0x0",
      "logs": [
        {
          "address": "0x000000000000000000000000000000000000800a",
          "topics": [
            "0xddf252ad1be2c89b69c2b068fc378daa952ba7f163c4a11628f55a4df523b3ef",
            "0x00000000000000000000000054f9b12743a7deec0ea48721683cbebedc6e17bc",
            "0x0000000000000000000000000000000000000000000000000000000000008001"
          ],
          "data": "0x000000000000000000000000000000000000000000000000000027fd4d97c080",
          "blockHash": "0x0d3f9f341830e165cd7f88b63b3c1750e92464bab5472493a9b49ec4a183f517",
          "blockNumber": "0x293a9d0",
          "blockTimestamp": "0x69a60438",
          "transactionHash": "0xc0ba9a692732998c4b337afef4dae6a49dfc0ad69c707d61e03f739833b62d75",
          "transactionIndex": "0x1",
          "logIndex": "0x6",
          "removed": false
        },
        {
          "address": "0x0000006d38568b00b457580b734e0076c62de659",
          "topics": [
            "0x2f8788117e7eff1d82e926ec794901d17c78024a50270940304540a733656f0d",
            "0x65d7a28e3265b37a6474929f336521b332c1681b933f6cb9f3376673440d862a",
            "0x0000000000000000000000008d8290d49e88d16d81c6adf6c8774ed88762274a",
            "0x00000000000000000000000054f9b12743a7deec0ea48721683cbebedc6e17bc"
          ],
          "data": "0x",
          "blockHash": "0x0d3f9f341830e165cd7f88b63b3c1750e92464bab5472493a9b49ec4a183f517",
          "blockNumber": "0x293a9d0",
          "blockTimestamp": "0x69a60438",
          "transactionHash": "0xc0ba9a692732998c4b337afef4dae6a49dfc0ad69c707d61e03f739833b62d75",
          "transactionIndex": "0x1",
          "logIndex": "0x7",
          "removed": false
        },
        {
          "address": "0x000000000000000000000000000000000000800a",
          "topics": [
            "0xddf252ad1be2c89b69c2b068fc378daa952ba7f163c4a11628f55a4df523b3ef",
            "0x0000000000000000000000000000000000000000000000000000000000008001",
            "0x00000000000000000000000054f9b12743a7deec0ea48721683cbebedc6e17bc"
          ],
          "data": "0x00000000000000000000000000000000000000000000000000002104ab672750",
          "blockHash": "0x0d3f9f341830e165cd7f88b63b3c1750e92464bab5472493a9b49ec4a183f517",
          "blockNumber": "0x293a9d0",
          "blockTimestamp": "0x69a60438",
          "transactionHash": "0xc0ba9a692732998c4b337afef4dae6a49dfc0ad69c707d61e03f739833b62d75",
          "transactionIndex": "0x1",
          "logIndex": "0x8",
          "removed": false
        }
      ],
      "logsBloom": "0x00020004400400000000000000000000000000400000000000000000000000000000000000000000000000000000000000000000000000000000000000000000000000000000040000000008000000000000000000000000010000000000080000000000000000000000000000000000000000000000000000000010000800000000000000000000000804000080008000000000000000000000000000000000000000000000100000000040000000000000000000000000001000000000000000000002008000000000000000000000000000000800000100002000000000000000000000000000000000000000000000000400000000000000000000000000",
      "type": "0x71",
      "transactionHash": "0xc0ba9a692732998c4b337afef4dae6a49dfc0ad69c707d61e03f739833b62d75",
      "transactionIndex": "0x1",
      "blockHash": "0x0d3f9f341830e165cd7f88b63b3c1750e92464bab5472493a9b49ec4a183f517",
      "blockNumber": "0x293a9d0",
      "gasUsed": "0x295af",
      "effectiveGasPrice": "0x2b275d0",
      "from": "0x54f9b12743a7deec0ea48721683cbebedc6e17bc",
      "to": "0x0000006d38568b00b457580b734e0076c62de659",
      "contractAddress": null,
      "l1BatchNumber": null,
      "l1BatchTxIndex": null,
      "l2ToL1Logs": []
    },
    {
      "status": "0x1",
      "cumulativeGasUsed": "0x0",
      "logs": [
        {
          "address": "0x000000000000000000000000000000000000800a",
          "topics": [
            "0xddf252ad1be2c89b69c2b068fc378daa952ba7f163c4a11628f55a4df523b3ef",
            "0x00000000000000000000000054f9b12743a7deec0ea48721683cbebedc6e17bc",
            "0x0000000000000000000000000000000000000000000000000000000000008001"
          ],
          "data": "0x000000000000000000000000000000000000000000000000000027fd4d97c080",
          "blockHash": "0x559d22318ef8bfebedb8e959adf5838a57e90c162c86fbb60ed5d0e1910ae9f3",
          "blockNumber": "0x293a9d4",
          "blockTimestamp": "0x69a60439",
          "transactionHash": "0xfdbf50d5188bcc5e8340409f8b97ec93db6ea57670f063f21663ae2ccd45c029",
          "transactionIndex": "0x0",
          "logIndex": "0x0",
          "removed": false
        },
        {
          "address": "0x0000006d38568b00b457580b734e0076c62de659",
          "topics": [
            "0x2f8788117e7eff1d82e926ec794901d17c78024a50270940304540a733656f0d",
            "0x65d7a28e3265b37a6474929f336521b332c1681b933f6cb9f3376673440d862a",
            "0x000000000000000000000000cbc616d595d38483e6adc45c7e426f44bf230928",
            "0x00000000000000000000000054f9b12743a7deec0ea48721683cbebedc6e17bc"
          ],
          "data": "0x",
          "blockHash": "0x559d22318ef8bfebedb8e959adf5838a57e90c162c86fbb60ed5d0e1910ae9f3",
          "blockNumber": "0x293a9d4",
          "blockTimestamp": "0x69a60439",
          "transactionHash": "0xfdbf50d5188bcc5e8340409f8b97ec93db6ea57670f063f21663ae2ccd45c029",
          "transactionIndex": "0x0",
          "logIndex": "0x1",
          "removed": false
        },
        {
          "address": "0x000000000000000000000000000000000000800a",
          "topics": [
            "0xddf252ad1be2c89b69c2b068fc378daa952ba7f163c4a11628f55a4df523b3ef",
            "0x0000000000000000000000000000000000000000000000000000000000008001",
            "0x00000000000000000000000054f9b12743a7deec0ea48721683cbebedc6e17bc"
          ],
          "data": "0x00000000000000000000000000000000000000000000000000002104ab672750",
          "blockHash": "0x559d22318ef8bfebedb8e959adf5838a57e90c162c86fbb60ed5d0e1910ae9f3",
          "blockNumber": "0x293a9d4",
          "blockTimestamp": "0x69a60439",
          "transactionHash": "0xfdbf50d5188bcc5e8340409f8b97ec93db6ea57670f063f21663ae2ccd45c029",
          "transactionIndex": "0x0",
          "logIndex": "0x2",
          "removed": false
        }
      ],
      "logsBloom": "0x00000004400400000000000000000000000000000000000000000000000000000000000000000000000000000000000000000000000000000000000000000000800000000000040000000008000000000000000000000000010000000000080080000000000000000000000000000000000000000000000000000010000800000000000000000000000804008080008000000000000000000000000000000000000000000000100000000040000000000000000000000000001000000000000000000002008000000000000000000000000000000000000100002000000000000000000000000000000000000000000000000400000000000000000000000000",
      "type": "0x71",
      "transactionHash": "0xfdbf50d5188bcc5e8340409f8b97ec93db6ea57670f063f21663ae2ccd45c029",
      "transactionIndex": "0x0",
      "blockHash": "0x559d22318ef8bfebedb8e959adf5838a57e90c162c86fbb60ed5d0e1910ae9f3",
      "blockNumber": "0x293a9d4",
      "gasUsed": "0x295af",
      "effectiveGasPrice": "0x2b275d0",
      "from": "0x54f9b12743a7deec0ea48721683cbebedc6e17bc",
      "to": "0x0000006d38568b00b457580b734e0076c62de659",
      "contractAddress": null,
      "l1BatchNumber": null,
      "l1BatchTxIndex": null,
      "l2ToL1Logs": []
    },
    {
      "status": "0x1",
      "cumulativeGasUsed": "0x0",
      "logs": [
        {
          "address": "0x000000000000000000000000000000000000800a",
          "topics": [
            "0xddf252ad1be2c89b69c2b068fc378daa952ba7f163c4a11628f55a4df523b3ef",
            "0x00000000000000000000000054f9b12743a7deec0ea48721683cbebedc6e17bc",
            "0x0000000000000000000000000000000000000000000000000000000000008001"
          ],
          "data": "0x000000000000000000000000000000000000000000000000000027fd4d97c080",
          "blockHash": "0x9a58ce7d024b04f228b9184aad660c1cb68935c0d887bbcdab8e777dcb062272",
          "blockNumber": "0x293a9d6",
          "blockTimestamp": "0x69a6043a",
          "transactionHash": "0x80d87e89a3fcbca0e246806dd2a7384ef435a28b822ccdaae8ede9e1721b76b6",
          "transactionIndex": "0x0",
          "logIndex": "0x0",
          "removed": false
        },
        {
          "address": "0x0000006d38568b00b457580b734e0076c62de659",
          "topics": [
            "0x2f8788117e7eff1d82e926ec794901d17c78024a50270940304540a733656f0d",
            "0x65d7a28e3265b37a6474929f336521b332c1681b933f6cb9f3376673440d862a",
            "0x000000000000000000000000381e2495e683868f693aa5b1414f712f21d34b40",
            "0x00000000000000000000000054f9b12743a7deec0ea48721683cbebedc6e17bc"
          ],
          "data": "0x",
          "blockHash": "0x9a58ce7d024b04f228b9184aad660c1cb68935c0d887bbcdab8e777dcb062272",
          "blockNumber": "0x293a9d6",
          "blockTimestamp": "0x69a6043a",
          "transactionHash": "0x80d87e89a3fcbca0e246806dd2a7384ef435a28b822ccdaae8ede9e1721b76b6",
          "transactionIndex": "0x0",
          "logIndex": "0x1",
          "removed": false
        },
        {
          "address": "0x000000000000000000000000000000000000800a",
          "topics": [
            "0xddf252ad1be2c89b69c2b068fc378daa952ba7f163c4a11628f55a4df523b3ef",
            "0x0000000000000000000000000000000000000000000000000000000000008001",
            "0x00000000000000000000000054f9b12743a7deec0ea48721683cbebedc6e17bc"
          ],
          "data": "0x00000000000000000000000000000000000000000000000000002104ab672750",
          "blockHash": "0x9a58ce7d024b04f228b9184aad660c1cb68935c0d887bbcdab8e777dcb062272",
          "blockNumber": "0x293a9d6",
          "blockTimestamp": "0x69a6043a",
          "transactionHash": "0x80d87e89a3fcbca0e246806dd2a7384ef435a28b822ccdaae8ede9e1721b76b6",
          "transactionIndex": "0x0",
          "logIndex": "0x2",
          "removed": false
        }
      ],
      "logsBloom": "0x00000004420400000000000000000000000000000000000000000000000000000000000000000000000000000000000000000000000000000000000000000000000010000000040000000008000000000000000000000000010000000000080000000000000000000000000000000000000000000000000000000010000800000000000000000000000804000080008080000000000000000000000000000000000000000000100000000040000000000000000000000000001000000000000000000002008000000000000000000000000000000000000100002000000000000000000000000000000000000000000000000400000000000000000000000000",
      "type": "0x71",
      "transactionHash": "0x80d87e89a3fcbca0e246806dd2a7384ef435a28b822ccdaae8ede9e1721b76b6",
      "transactionIndex": "0x0",
      "blockHash": "0x9a58ce7d024b04f228b9184aad660c1cb68935c0d887bbcdab8e777dcb062272",
      "blockNumber": "0x293a9d6",
      "gasUsed": "0x295af",
      "effectiveGasPrice": "0x2b275d0",
      "from": "0x54f9b12743a7deec0ea48721683cbebedc6e17bc",
      "to": "0x0000006d38568b00b457580b734e0076c62de659",
      "contractAddress": null,
      "l1BatchNumber": null,
      "l1BatchTxIndex": null,
      "l2ToL1Logs": []
    },
    {
      "status": "0x1",
      "cumulativeGasUsed": "0x0",
      "logs": [
        {
          "address": "0x000000000000000000000000000000000000800a",
          "topics": [
            "0xddf252ad1be2c89b69c2b068fc378daa952ba7f163c4a11628f55a4df523b3ef",
            "0x00000000000000000000000054f9b12743a7deec0ea48721683cbebedc6e17bc",
            "0x0000000000000000000000000000000000000000000000000000000000008001"
          ],
          "data": "0x000000000000000000000000000000000000000000000000000027fd4d97c080",
          "blockHash": "0xee138453c1704753202c923b90f85aab7cd48aaf25c34be735631a5021223ad8",
          "blockNumber": "0x293a9da",
          "blockTimestamp": "0x69a6043b",
          "transactionHash": "0x5e19b32a39354303bf53dc6bd99fb8368d588a89e1845743a295e8002ed04e6c",
          "transactionIndex": "0x1",
          "logIndex": "0x6",
          "removed": false
        },
        {
          "address": "0x0000006d38568b00b457580b734e0076c62de659",
          "topics": [
            "0x2f8788117e7eff1d82e926ec794901d17c78024a50270940304540a733656f0d",
            "0x65d7a28e3265b37a6474929f336521b332c1681b933f6cb9f3376673440d862a",
            "0x0000000000000000000000006e74053a3798e0fc9a9775f7995316b27f21c4d2",
            "0x00000000000000000000000054f9b12743a7deec0ea48721683cbebedc6e17bc"
          ],
          "data": "0x",
          "blockHash": "0xee138453c1704753202c923b90f85aab7cd48aaf25c34be735631a5021223ad8",
          "blockNumber": "0x293a9da",
          "blockTimestamp": "0x69a6043b",
          "transactionHash": "0x5e19b32a39354303bf53dc6bd99fb8368d588a89e1845743a295e8002ed04e6c",
          "transactionIndex": "0x1",
          "logIndex": "0x7",
          "removed": false
        },
        {
          "address": "0x000000000000000000000000000000000000800a",
          "topics": [
            "0xddf252ad1be2c89b69c2b068fc378daa952ba7f163c4a11628f55a4df523b3ef",
            "0x0000000000000000000000000000000000000000000000000000000000008001",
            "0x00000000000000000000000054f9b12743a7deec0ea48721683cbebedc6e17bc"
          ],
          "data": "0x00000000000000000000000000000000000000000000000000002104ab672750",
          "blockHash": "0xee138453c1704753202c923b90f85aab7cd48aaf25c34be735631a5021223ad8",
          "blockNumber": "0x293a9da",
          "blockTimestamp": "0x69a6043b",
          "transactionHash": "0x5e19b32a39354303bf53dc6bd99fb8368d588a89e1845743a295e8002ed04e6c",
          "transactionIndex": "0x1",
          "logIndex": "0x8",
          "removed": false
        }
      ],
      "logsBloom": "0x00000004400400000000000000000000000000000000000000000000000000000000000000000000000000000000000000000000000000000000000000000000000000000000040000000008000000000000000000000000010000000000080000000000000020000000000000000000000000000000000000000010000800000000000000000000000804000080008000000000000010000000000000000000000000000000100000000040000000000000000000000000001000000000000000000002008000000000000000000000000000000000000100002000000000000000000000000000000000000000000000000400800000000000000000000000",
      "type": "0x71",
      "transactionHash": "0x5e19b32a39354303bf53dc6bd99fb8368d588a89e1845743a295e8002ed04e6c",
      "transactionIndex": "0x1",
      "blockHash": "0xee138453c1704753202c923b90f85aab7cd48aaf25c34be735631a5021223ad8",
      "blockNumber": "0x293a9da",
      "gasUsed": "0x295af",
      "effectiveGasPrice": "0x2b275d0",
      "from": "0x54f9b12743a7deec0ea48721683cbebedc6e17bc",
      "to": "0x0000006d38568b00b457580b734e0076c62de659",
      "contractAddress": null,
      "l1BatchNumber": null,
      "l1BatchTxIndex": null,
      "l2ToL1Logs": []
    },
    {
      "status": "0x1",
      "cumulativeGasUsed": "0x0",
      "logs": [
        {
          "address": "0x000000000000000000000000000000000000800a",
          "topics": [
            "0xddf252ad1be2c89b69c2b068fc378daa952ba7f163c4a11628f55a4df523b3ef",
            "0x00000000000000000000000054f9b12743a7deec0ea48721683cbebedc6e17bc",
            "0x0000000000000000000000000000000000000000000000000000000000008001"
          ],
          "data": "0x000000000000000000000000000000000000000000000000000027fd4d97c080",
          "blockHash": "0x9a832f4d776cd81df10e1a406c85fd12f826af0ec74ca6cb70f2f6ad1d657351",
          "blockNumber": "0x293a9dc",
          "blockTimestamp": "0x69a6043c",
          "transactionHash": "0x7de1c236d8698bb1bdfa2afbec286910824334b942f140b5514e825c7e796ef5",
          "transactionIndex": "0x1",
          "logIndex": "0x4",
          "removed": false
        },
        {
          "address": "0x0000006d38568b00b457580b734e0076c62de659",
          "topics": [
            "0x2f8788117e7eff1d82e926ec794901d17c78024a50270940304540a733656f0d",
            "0x65d7a28e3265b37a6474929f336521b332c1681b933f6cb9f3376673440d862a",
            "0x000000000000000000000000c6ef452b0de9e95ccb153c2a5a7a90154aab3419",
            "0x00000000000000000000000054f9b12743a7deec0ea48721683cbebedc6e17bc"
          ],
          "data": "0x",
          "blockHash": "0x9a832f4d776cd81df10e1a406c85fd12f826af0ec74ca6cb70f2f6ad1d657351",
          "blockNumber": "0x293a9dc",
          "blockTimestamp": "0x69a6043c",
          "transactionHash": "0x7de1c236d8698bb1bdfa2afbec286910824334b942f140b5514e825c7e796ef5",
          "transactionIndex": "0x1",
          "logIndex": "0x5",
          "removed": false
        },
        {
          "address": "0x000000000000000000000000000000000000800a",
          "topics": [
            "0xddf252ad1be2c89b69c2b068fc378daa952ba7f163c4a11628f55a4df523b3ef",
            "0x0000000000000000000000000000000000000000000000000000000000008001",
            "0x00000000000000000000000054f9b12743a7deec0ea48721683cbebedc6e17bc"
          ],
          "data": "0x00000000000000000000000000000000000000000000000000002104ab672750",
          "blockHash": "0x9a832f4d776cd81df10e1a406c85fd12f826af0ec74ca6cb70f2f6ad1d657351",
          "blockNumber": "0x293a9dc",
          "blockTimestamp": "0x69a6043c",
          "transactionHash": "0x7de1c236d8698bb1bdfa2afbec286910824334b942f140b5514e825c7e796ef5",
          "transactionIndex": "0x1",
          "logIndex": "0x6",
          "removed": false
        }
      ],
      "logsBloom": "0x00000004400400000000000000000000000000000000000000000000000000000000000000000000000000000000000000000000000000000000000000000000000000000000140000000008000000000000000000000000010000000000080000000000000000008000000000000000000000000000000000000010000800000000000000000000000804000080008000000000000000000000000000000000000000000000100000000040000000000000000000000000001000000000000000000002008000000000000000000000000000000000000100002000000000000000000000000080000000000000000000000400000000000000000000000000",
      "type": "0x71",
      "transactionHash": "0x7de1c236d8698bb1bdfa2afbec286910824334b942f140b5514e825c7e796ef5",
      "transactionIndex": "0x1",
      "blockHash": "0x9a832f4d776cd81df10e1a406c85fd12f826af0ec74ca6cb70f2f6ad1d657351",
      "blockNumber": "0x293a9dc",
      "gasUsed": "0x295af",
      "effectiveGasPrice": "0x2b275d0",
      "from": "0x54f9b12743a7deec0ea48721683cbebedc6e17bc",
      "to": "0x0000006d38568b00b457580b734e0076c62de659",
      "contractAddress": null,
      "l1BatchNumber": null,
      "l1BatchTxIndex": null,
      "l2ToL1Logs": []
    },
    {
      "status": "0x1",
      "cumulativeGasUsed": "0x0",
      "logs": [
        {
          "address": "0x000000000000000000000000000000000000800a",
          "topics": [
            "0xddf252ad1be2c89b69c2b068fc378daa952ba7f163c4a11628f55a4df523b3ef",
            "0x00000000000000000000000054f9b12743a7deec0ea48721683cbebedc6e17bc",
            "0x0000000000000000000000000000000000000000000000000000000000008001"
          ],
          "data": "0x000000000000000000000000000000000000000000000000000027fd4d97c080",
          "blockHash": "0xe99cc206a0b41159e31f46048680c4947b7e9cafd357efc103a84f9b38dbd11c",
          "blockNumber": "0x293a9df",
          "blockTimestamp": "0x69a6043d",
          "transactionHash": "0xb10cd301983457357d48c86fe64b4dffaabfaf8134dbdba1a699be49c770f25f",
          "transactionIndex": "0x0",
          "logIndex": "0x0",
          "removed": false
        },
        {
          "address": "0x0000006d38568b00b457580b734e0076c62de659",
          "topics": [
            "0x2f8788117e7eff1d82e926ec794901d17c78024a50270940304540a733656f0d",
            "0x0000000000000000000000000000000000000000000000000000000000000000",
            "0x000000000000000000000000cc20eae3cdc554e96291708b362df349cc443808",
            "0x00000000000000000000000054f9b12743a7deec0ea48721683cbebedc6e17bc"
          ],
          "data": "0x",
          "blockHash": "0xe99cc206a0b41159e31f46048680c4947b7e9cafd357efc103a84f9b38dbd11c",
          "blockNumber": "0x293a9df",
          "blockTimestamp": "0x69a6043d",
          "transactionHash": "0xb10cd301983457357d48c86fe64b4dffaabfaf8134dbdba1a699be49c770f25f",
          "transactionIndex": "0x0",
          "logIndex": "0x1",
          "removed": false
        },
        {
          "address": "0x000000000000000000000000000000000000800a",
          "topics": [
            "0xddf252ad1be2c89b69c2b068fc378daa952ba7f163c4a11628f55a4df523b3ef",
            "0x0000000000000000000000000000000000000000000000000000000000008001",
            "0x00000000000000000000000054f9b12743a7deec0ea48721683cbebedc6e17bc"
          ],
          "data": "0x000000000000000000000000000000000000000000000000000020efea188cb0",
          "blockHash": "0xe99cc206a0b41159e31f46048680c4947b7e9cafd357efc103a84f9b38dbd11c",
          "blockNumber": "0x293a9df",
          "blockTimestamp": "0x69a6043d",
          "transactionHash": "0xb10cd301983457357d48c86fe64b4dffaabfaf8134dbdba1a699be49c770f25f",
          "transactionIndex": "0x0",
          "logIndex": "0x2",
          "removed": false
        }
      ],
      "logsBloom": "0x00000004400400000000000000000000000000000000000000000010000000000000000000000000000000000000000000000000000000000000000000000000000000000000040000000008000000000000000000000000010000000000080000000800020000000000000000000800000000000000000000000010000800000000000000000000000804000080000000000000000000000000000000000000000000000000100000000040000000000000000000000000001000000000200000000002008000000000000000000000000000000000000100000000000020000000000000000000000000000000000000000000000000000000000000000000",
      "type": "0x71",
      "transactionHash": "0xb10cd301983457357d48c86fe64b4dffaabfaf8134dbdba1a699be49c770f25f",
      "transactionIndex": "0x0",
      "blockHash": "0xe99cc206a0b41159e31f46048680c4947b7e9cafd357efc103a84f9b38dbd11c",
      "blockNumber": "0x293a9df",
      "gasUsed": "0x29d61",
      "effectiveGasPrice": "0x2b275d0",
      "from": "0x54f9b12743a7deec0ea48721683cbebedc6e17bc",
      "to": "0x0000006d38568b00b457580b734e0076c62de659",
      "contractAddress": null,
      "l1BatchNumber": null,
      "l1BatchTxIndex": null,
      "l2ToL1Logs": []
    },
    {
      "status": "0x1",
      "cumulativeGasUsed": "0x0",
      "logs": [
        {
          "address": "0x000000000000000000000000000000000000800a",
          "topics": [
            "0xddf252ad1be2c89b69c2b068fc378daa952ba7f163c4a11628f55a4df523b3ef",
            "0x00000000000000000000000054f9b12743a7deec0ea48721683cbebedc6e17bc",
            "0x0000000000000000000000000000000000000000000000000000000000008001"
          ],
          "data": "0x000000000000000000000000000000000000000000000000000027fcf49690b0",
          "blockHash": "0xddc95e8d16dfd49bf8ec99458bb2eb9aedfef350a66197d099e5174fd489159b",
          "blockNumber": "0x293a9e1",
          "blockTimestamp": "0x69a6043d",
          "transactionHash": "0x97ae3272bd27de1eb2fd4a3850087cbd6d494e932396f548ee939823791165d0",
          "transactionIndex": "0x1",
          "logIndex": "0x5",
          "removed": false
        },
        {
          "address": "0x0000006d38568b00b457580b734e0076c62de659",
          "topics": [
            "0x2f8788117e7eff1d82e926ec794901d17c78024a50270940304540a733656f0d",
            "0x0000000000000000000000000000000000000000000000000000000000000000",
            "0x000000000000000000000000000000000e0e120fcac7b4d98e9e35e1de6fdadb",
            "0x00000000000000000000000054f9b12743a7deec0ea48721683cbebedc6e17bc"
          ],
          "data": "0x",
          "blockHash": "0xddc95e8d16dfd49bf8ec99458bb2eb9aedfef350a66197d099e5174fd489159b",
          "blockNumber": "0x293a9e1",
          "blockTimestamp": "0x69a6043d",
          "transactionHash": "0x97ae3272bd27de1eb2fd4a3850087cbd6d494e932396f548ee939823791165d0",
          "transactionIndex": "0x1",
          "logIndex": "0x6",
          "removed": false
        },
        {
          "address": "0x000000000000000000000000000000000000800a",
          "topics": [
            "0xddf252ad1be2c89b69c2b068fc378daa952ba7f163c4a11628f55a4df523b3ef",
            "0x0000000000000000000000000000000000000000000000000000000000008001",
            "0x00000000000000000000000054f9b12743a7deec0ea48721683cbebedc6e17bc"
          ],
          "data": "0x00000000000000000000000000000000000000000000000000002104803fca50",
          "blockHash": "0xddc95e8d16dfd49bf8ec99458bb2eb9aedfef350a66197d099e5174fd489159b",
          "blockNumber": "0x293a9e1",
          "blockTimestamp": "0x69a6043d",
          "transactionHash": "0x97ae3272bd27de1eb2fd4a3850087cbd6d494e932396f548ee939823791165d0",
          "transactionIndex": "0x1",
          "logIndex": "0x7",
          "removed": false
        }
      ],
      "logsBloom": "0x00000004400400000000000000000000000000000000000000000000000000000000000000000000000000000000000000000000000000000000000000000000000000000000040000000008000000000000000000000000010000000000080000000000020000000000000000000800000000000000000000000010000800000000000000000000000804000080020000000000000040000000000000000000000000000000100000000040000000000000000000000000001000000000000000000002008000004000000000000000000000000000000100000000000020000000000000000000000000000000000000000000000000000000000000000000",
      "type": "0x71",
      "transactionHash": "0x97ae3272bd27de1eb2fd4a3850087cbd6d494e932396f548ee939823791165d0",
      "transactionIndex": "0x1",
      "blockHash": "0xddc95e8d16dfd49bf8ec99458bb2eb9aedfef350a66197d099e5174fd489159b",
      "blockNumber": "0x293a9e1",
      "gasUsed": "0x2959e",
      "effectiveGasPrice": "0x2b275d0",
      "from": "0x54f9b12743a7deec0ea48721683cbebedc6e17bc",
      "to": "0x0000006d38568b00b457580b734e0076c62de659",
      "contractAddress": null,
      "l1BatchNumber": null,
      "l1BatchTxIndex": null,
      "l2ToL1Logs": []
    },
    {
      "status": "0x1",
      "cumulativeGasUsed": "0x0",
      "logs": [
        {
          "address": "0x000000000000000000000000000000000000800a",
          "topics": [
            "0xddf252ad1be2c89b69c2b068fc378daa952ba7f163c4a11628f55a4df523b3ef",
            "0x00000000000000000000000054f9b12743a7deec0ea48721683cbebedc6e17bc",
            "0x0000000000000000000000000000000000000000000000000000000000008001"
          ],
          "data": "0x000000000000000000000000000000000000000000000000000017b5a824bf60",
          "blockHash": "0x49c691864945e8c149fac8f4d98e74aef6dae696dab193ebea07023ef1712111",
          "blockNumber": "0x293a9e4",
          "blockTimestamp": "0x69a6043f",
          "transactionHash": "0xe0750579e80dfb9ee05976ee64c62a63063931378537a76aae92094c7925233f",
          "transactionIndex": "0x0",
          "logIndex": "0x0",
          "removed": false
        },
        {
          "address": "0x0000006d38568b00b457580b734e0076c62de659",
          "topics": [
            "0xf6391f5c32d9c69d2a47ea670b442974b53935d1edc7fd64eb21e047a839171b",
            "0x0000000000000000000000000000000000000000000000000000000000000000",
            "0x00000000000000000000000054f9b12743a7deec0ea48721683cbebedc6e17bc",
            "0x00000000000000000000000054f9b12743a7deec0ea48721683cbebedc6e17bc"
          ],
          "data": "0x",
          "blockHash": "0x49c691864945e8c149fac8f4d98e74aef6dae696dab193ebea07023ef1712111",
          "blockNumber": "0x293a9e4",
          "blockTimestamp": "0x69a6043f",
          "transactionHash": "0xe0750579e80dfb9ee05976ee64c62a63063931378537a76aae92094c7925233f",
          "transactionIndex": "0x0",
          "logIndex": "0x1",
          "removed": false
        },
        {
          "address": "0x000000000000000000000000000000000000800a",
          "topics": [
            "0xddf252ad1be2c89b69c2b068fc378daa952ba7f163c4a11628f55a4df523b3ef",
            "0x0000000000000000000000000000000000000000000000000000000000008001",
            "0x00000000000000000000000054f9b12743a7deec0ea48721683cbebedc6e17bc"
          ],
          "data": "0x000000000000000000000000000000000000000000000000000010de2dc26a20",
          "blockHash": "0x49c691864945e8c149fac8f4d98e74aef6dae696dab193ebea07023ef1712111",
          "blockNumber": "0x293a9e4",
          "blockTimestamp": "0x69a6043f",
          "transactionHash": "0xe0750579e80dfb9ee05976ee64c62a63063931378537a76aae92094c7925233f",
          "transactionIndex": "0x0",
          "logIndex": "0x2",
          "removed": false
        }
      ],
      "logsBloom": "0x00000000400400000000000000000000000000000000000000000000000000000000000000000000000000000000000000200000000000000000000000000000000000000000040000000008000000000000000000000000010000000000080040000000020000000000000000000800000000000000000000000010000800000000000040000000000804000080000000000000000000000000000000000000000000000000100000000040000000000000000000000000000000000000000000000002008000000000000000000000000000000000000000000000000020000000000000000000000000000000000000000000000000000000000000000000",
      "type": "0x71",
      "transactionHash": "0xe0750579e80dfb9ee05976ee64c62a63063931378537a76aae92094c7925233f",
      "transactionIndex": "0x0",
      "blockHash": "0x49c691864945e8c149fac8f4d98e74aef6dae696dab193ebea07023ef1712111",
      "blockNumber": "0x293a9e4",
      "gasUsed": "0x28964",
      "effectiveGasPrice": "0x2b275d0",
      "from": "0x54f9b12743a7deec0ea48721683cbebedc6e17bc",
      "to": "0x0000006d38568b00b457580b734e0076c62de659",
      "contractAddress": null,
      "l1BatchNumber": null,
      "l1BatchTxIndex": null,
      "l2ToL1Logs": []
    }
  ],
  "libraries": [],
  "pending": [],
  "returns": {},
  "timestamp": 1772487745404,
  "chain": 2741,
  "commit": "8e943fb"
}